{
  "_format": "hh-sol-artifact-1",
  "contractName": "ProductRegistry",
  "sourceName": "contracts/ProductRegistry.sol",
  "abi": [
    {
      "inputs": [
        {
          "internalType": "address",
          "name": "accessControlAddress",
          "type": "address"
        }
      ],
      "stateMutability": "nonpayable",
      "type": "constructor"
    },
    {
      "anonymous": false,
      "inputs": [
        {
          "indexed": true,
          "internalType": "bytes32",
          "name": "batchHash",
          "type": "bytes32"
        },
        {
          "indexed": true,
          "internalType": "bytes32",
          "name": "reasonHash",
          "type": "bytes32"
        },
        {
          "indexed": false,
          "internalType": "uint256",
          "name": "totalProducts",
          "type": "uint256"
        }
      ],
      "name": "BatchRecalled",
      "type": "event"
    },
    {
      "anonymous": false,
      "inputs": [
        {
          "indexed": true,
          "internalType": "bytes32",
          "name": "batchHash",
          "type": "bytes32"
        },
        {
          "indexed": false,
          "internalType": "bool",
          "name": "recalled",
          "type": "bool"
        },
        {
          "indexed": false,
          "internalType": "uint256",
          "name": "totalProducts",
          "type": "uint256"
        }
      ],
      "name": "BatchStatusChecked",
      "type": "event"
    },
    {
      "anonymous": false,
      "inputs": [
        {
          "indexed": true,
          "internalType": "bytes32",
          "name": "serialID",
          "type": "bytes32"
        },
        {
          "indexed": false,
          "internalType": "uint8",
          "name": "riskLevel",
          "type": "uint8"
        },
        {
          "indexed": true,
          "internalType": "bytes32",
          "name": "reason",
          "type": "bytes32"
        }
      ],
      "name": "ProductFlagged",
      "type": "event"
    },
    {
      "anonymous": false,
      "inputs": [
        {
          "indexed": true,
          "internalType": "bytes32",
          "name": "serialID",
          "type": "bytes32"
        },
        {
          "indexed": true,
          "internalType": "address",
          "name": "currentOwner",
          "type": "address"
        }
      ],
      "name": "ProductMarkedInTransit",
      "type": "event"
    },
    {
      "anonymous": false,
      "inputs": [
        {
          "indexed": true,
          "internalType": "bytes32",
          "name": "serialID",
          "type": "bytes32"
        },
        {
          "indexed": true,
          "internalType": "bytes32",
          "name": "batchHash",
          "type": "bytes32"
        },
        {
          "indexed": true,
          "internalType": "address",
          "name": "owner",
          "type": "address"
        },
        {
          "indexed": false,
          "internalType": "bool",
          "name": "isImported",
          "type": "bool"
        },
        {
          "indexed": false,
          "internalType": "bool",
          "name": "zkpVerified",
          "type": "bool"
        },
        {
          "indexed": false,
          "internalType": "enum ProductRegistry.Status",
          "name": "status",
          "type": "uint8"
        }
      ],
      "name": "ProductRegistered",
      "type": "event"
    },
    {
      "anonymous": false,
      "inputs": [
        {
          "indexed": true,
          "internalType": "bytes32",
          "name": "serialID",
          "type": "bytes32"
        },
        {
          "indexed": true,
          "internalType": "address",
          "name": "oldOwner",
          "type": "address"
        },
        {
          "indexed": true,
          "internalType": "address",
          "name": "newOwner",
          "type": "address"
        }
      ],
      "name": "ProductTransferCompleted",
      "type": "event"
    },
    {
      "anonymous": false,
      "inputs": [
        {
          "indexed": true,
          "internalType": "address",
          "name": "oldLedger",
          "type": "address"
        },
        {
          "indexed": true,
          "internalType": "address",
          "name": "newLedger",
          "type": "address"
        }
      ],
      "name": "TransferLedgerUpdated",
      "type": "event"
    },
    {
      "inputs": [],
      "name": "DEFAULT_ADMIN_ROLE",
      "outputs": [
        {
          "internalType": "bytes32",
          "name": "",
          "type": "bytes32"
        }
      ],
      "stateMutability": "view",
      "type": "function"
    },
    {
      "inputs": [],
      "name": "IMPORTER_ROLE",
      "outputs": [
        {
          "internalType": "bytes32",
          "name": "",
          "type": "bytes32"
        }
      ],
      "stateMutability": "view",
      "type": "function"
    },
    {
      "inputs": [],
      "name": "MANUFACTURER_ROLE",
      "outputs": [
        {
          "internalType": "bytes32",
          "name": "",
          "type": "bytes32"
        }
      ],
      "stateMutability": "view",
      "type": "function"
    },
    {
      "inputs": [],
      "name": "RECALL_AUTHORITY_ROLE",
      "outputs": [
        {
          "internalType": "bytes32",
          "name": "",
          "type": "bytes32"
        }
      ],
      "stateMutability": "view",
      "type": "function"
    },
    {
      "inputs": [],
      "name": "RISK_CRITICAL",
      "outputs": [
        {
          "internalType": "uint8",
          "name": "",
          "type": "uint8"
        }
      ],
      "stateMutability": "view",
      "type": "function"
    },
    {
      "inputs": [],
      "name": "RISK_HIGH",
      "outputs": [
        {
          "internalType": "uint8",
          "name": "",
          "type": "uint8"
        }
      ],
      "stateMutability": "view",
      "type": "function"
    },
    {
      "inputs": [],
      "name": "RISK_LOW",
      "outputs": [
        {
          "internalType": "uint8",
          "name": "",
          "type": "uint8"
        }
      ],
      "stateMutability": "view",
      "type": "function"
    },
    {
      "inputs": [],
      "name": "RISK_MEDIUM",
      "outputs": [
        {
          "internalType": "uint8",
          "name": "",
          "type": "uint8"
        }
      ],
      "stateMutability": "view",
      "type": "function"
    },
    {
      "inputs": [],
      "name": "RISK_NONE",
      "outputs": [
        {
          "internalType": "uint8",
          "name": "",
          "type": "uint8"
        }
      ],
      "stateMutability": "view",
      "type": "function"
    },
    {
      "inputs": [],
      "name": "accessControl",
      "outputs": [
        {
          "internalType": "contract ISupplyChainAccessControl",
          "name": "",
          "type": "address"
        }
      ],
      "stateMutability": "view",
      "type": "function"
    },
    {
      "inputs": [
        {
          "internalType": "bytes32",
          "name": "serialID",
          "type": "bytes32"
        },
        {
          "internalType": "address",
          "name": "newOwner",
          "type": "address"
        }
      ],
      "name": "completeTransfer",
      "outputs": [],
      "stateMutability": "nonpayable",
      "type": "function"
    },
    {
      "inputs": [
        {
          "internalType": "bytes32",
          "name": "serialID",
          "type": "bytes32"
        },
        {
          "internalType": "uint8",
          "name": "riskLevel",
          "type": "uint8"
        },
        {
          "internalType": "bytes32",
          "name": "reason",
          "type": "bytes32"
        }
      ],
      "name": "flagProductFromLedger",
      "outputs": [],
      "stateMutability": "nonpayable",
      "type": "function"
    },
    {
      "inputs": [
        {
          "internalType": "bytes32",
          "name": "batchHash",
          "type": "bytes32"
        }
      ],
      "name": "getBatchSerials",
      "outputs": [
        {
          "internalType": "bytes32[]",
          "name": "",
          "type": "bytes32[]"
        }
      ],
      "stateMutability": "view",
      "type": "function"
    },
    {
      "inputs": [
        {
          "internalType": "bytes32",
          "name": "batchHash",
          "type": "bytes32"
        }
      ],
      "name": "getBatchSize",
      "outputs": [
        {
          "internalType": "uint256",
          "name": "",
          "type": "uint256"
        }
      ],
      "stateMutability": "view",
      "type": "function"
    },
    {
      "inputs": [
        {
          "internalType": "bytes32",
          "name": "batchHash",
          "type": "bytes32"
        }
      ],
      "name": "getBatchSummary",
      "outputs": [
        {
          "internalType": "bool",
          "name": "recalled",
          "type": "bool"
        },
        {
          "internalType": "uint256",
          "name": "totalProducts",
          "type": "uint256"
        }
      ],
      "stateMutability": "view",
      "type": "function"
    },
    {
      "inputs": [
        {
          "internalType": "bytes32",
          "name": "serialID",
          "type": "bytes32"
        }
      ],
      "name": "getCurrentOwner",
      "outputs": [
        {
          "internalType": "address",
          "name": "",
          "type": "address"
        }
      ],
      "stateMutability": "view",
      "type": "function"
    },
    {
      "inputs": [
        {
          "internalType": "bytes32",
          "name": "serialID",
          "type": "bytes32"
        }
      ],
      "name": "getFlagReason",
      "outputs": [
        {
          "internalType": "bytes32",
          "name": "",
          "type": "bytes32"
        }
      ],
      "stateMutability": "view",
      "type": "function"
    },
    {
      "inputs": [
        {
          "internalType": "bytes32",
          "name": "serialID",
          "type": "bytes32"
        }
      ],
      "name": "getProduct",
      "outputs": [
        {
          "components": [
            {
              "internalType": "bytes32",
              "name": "serialID",
              "type": "bytes32"
            },
            {
              "internalType": "bytes32",
              "name": "batchHash",
              "type": "bytes32"
            },
            {
              "internalType": "bytes32",
              "name": "metadataHash",
              "type": "bytes32"
            },
            {
              "internalType": "bytes32",
              "name": "importDocHash",
              "type": "bytes32"
            },
            {
              "internalType": "address",
              "name": "origin",
              "type": "address"
            },
            {
              "internalType": "address",
              "name": "currentOwner",
              "type": "address"
            },
            {
              "internalType": "enum ProductRegistry.Status",
              "name": "status",
              "type": "uint8"
            },
            {
              "internalType": "enum ProductRegistry.Status",
              "name": "previousStatus",
              "type": "uint8"
            },
            {
              "internalType": "bool",
              "name": "isImported",
              "type": "bool"
            },
            {
              "internalType": "bool",
              "name": "zkpVerified",
              "type": "bool"
            },
            {
              "internalType": "uint8",
              "name": "riskLevel",
              "type": "uint8"
            },
            {
              "internalType": "bytes32",
              "name": "flagReason",
              "type": "bytes32"
            },
            {
              "internalType": "uint256",
              "name": "registeredAt",
              "type": "uint256"
            },
            {
              "internalType": "bool",
              "name": "exists",
              "type": "bool"
            }
          ],
          "internalType": "struct ProductRegistry.Product",
          "name": "",
          "type": "tuple"
        }
      ],
      "stateMutability": "view",
      "type": "function"
    },
    {
      "inputs": [
        {
          "internalType": "bytes32",
          "name": "serialID",
          "type": "bytes32"
        }
      ],
      "name": "getRiskLevel",
      "outputs": [
        {
          "internalType": "uint8",
          "name": "",
          "type": "uint8"
        }
      ],
      "stateMutability": "view",
      "type": "function"
    },
    {
      "inputs": [
        {
          "internalType": "bytes32",
          "name": "serialID",
          "type": "bytes32"
        }
      ],
      "name": "getStatus",
      "outputs": [
        {
          "internalType": "enum ProductRegistry.Status",
          "name": "",
          "type": "uint8"
        }
      ],
      "stateMutability": "view",
      "type": "function"
    },
    {
      "inputs": [
        {
          "internalType": "bytes32",
          "name": "batchHash",
          "type": "bytes32"
        }
      ],
      "name": "isBatchRecalled",
      "outputs": [
        {
          "internalType": "bool",
          "name": "",
          "type": "bool"
        }
      ],
      "stateMutability": "view",
      "type": "function"
    },
    {
      "inputs": [
        {
          "internalType": "bytes32",
          "name": "serialID",
          "type": "bytes32"
        }
      ],
      "name": "isImportedProduct",
      "outputs": [
        {
          "internalType": "bool",
          "name": "",
          "type": "bool"
        }
      ],
      "stateMutability": "view",
      "type": "function"
    },
    {
      "inputs": [
        {
          "internalType": "bytes32",
          "name": "serialID",
          "type": "bytes32"
        }
      ],
      "name": "isZkpVerified",
      "outputs": [
        {
          "internalType": "bool",
          "name": "",
          "type": "bool"
        }
      ],
      "stateMutability": "view",
      "type": "function"
    },
    {
      "inputs": [
        {
          "internalType": "bytes32",
          "name": "serialID",
          "type": "bytes32"
        }
      ],
      "name": "markInTransit",
      "outputs": [],
      "stateMutability": "nonpayable",
      "type": "function"
    },
    {
      "inputs": [
        {
          "internalType": "bytes32",
          "name": "serialID",
          "type": "bytes32"
        }
      ],
      "name": "productExists",
      "outputs": [
        {
          "internalType": "bool",
          "name": "",
          "type": "bool"
        }
      ],
      "stateMutability": "view",
      "type": "function"
    },
    {
      "inputs": [
        {
          "internalType": "bytes32",
          "name": "batchHash",
          "type": "bytes32"
        },
        {
          "internalType": "bytes32",
          "name": "reasonHash",
          "type": "bytes32"
        }
      ],
      "name": "recallBatch",
      "outputs": [],
      "stateMutability": "nonpayable",
      "type": "function"
    },
    {
      "inputs": [
        {
          "internalType": "bytes32",
          "name": "",
          "type": "bytes32"
        }
      ],
      "name": "recalledBatches",
      "outputs": [
        {
          "internalType": "bool",
          "name": "",
          "type": "bool"
        }
      ],
      "stateMutability": "view",
      "type": "function"
    },
    {
      "inputs": [
        {
          "internalType": "bytes32",
          "name": "serialID",
          "type": "bytes32"
        },
        {
          "internalType": "bytes32",
          "name": "batchHash",
          "type": "bytes32"
        },
        {
          "internalType": "bytes32",
          "name": "metadataHash",
          "type": "bytes32"
        },
        {
          "internalType": "bytes32",
          "name": "importDocHash",
          "type": "bytes32"
        },
        {
          "internalType": "bytes",
          "name": "zkpProof",
          "type": "bytes"
        }
      ],
      "name": "registerProduct",
      "outputs": [],
      "stateMutability": "nonpayable",
      "type": "function"
    },
    {
      "inputs": [
        {
          "internalType": "address",
          "name": "newTransferLedger",
          "type": "address"
        }
      ],
      "name": "setTransferLedger",
      "outputs": [],
      "stateMutability": "nonpayable",
      "type": "function"
    },
    {
      "inputs": [],
      "name": "transferLedger",
      "outputs": [
        {
          "internalType": "address",
          "name": "",
          "type": "address"
        }
      ],
      "stateMutability": "view",
      "type": "function"
    },
    {
      "inputs": [
        {
          "internalType": "bytes32",
          "name": "importDocHash",
          "type": "bytes32"
        },
        {
          "internalType": "bytes",
          "name": "zkpProof",
          "type": "bytes"
        }
      ],
      "name": "verifyProof",
      "outputs": [
        {
          "internalType": "bool",
          "name": "",
          "type": "bool"
        }
      ],
      "stateMutability": "pure",
      "type": "function"
    }
  ],
  "bytecode": "0x608060405234801561001057600080fd5b50604051613c07380380613c078339818101604052810190610032919061014a565b600073ffffffffffffffffffffffffffffffffffffffff168173ffffffffffffffffffffffffffffffffffffffff16036100a1576040517f08c379a0000000000000000000000000000000000000000000000000000000008152600401610098906101d4565b60405180910390fd5b806000806101000a81548173ffffffffffffffffffffffffffffffffffffffff021916908373ffffffffffffffffffffffffffffffffffffffff160217905550506101f4565b600080fd5b600073ffffffffffffffffffffffffffffffffffffffff82169050919050565b6000610117826100ec565b9050919050565b6101278161010c565b811461013257600080fd5b50565b6000815190506101448161011e565b92915050565b6000602082840312156101605761015f6100e7565b5b600061016e84828501610135565b91505092915050565b600082825260208201905092915050565b7f496e76616c69642061636365737320636f6e74726f6c00000000000000000000600082015250565b60006101be601683610177565b91506101c982610188565b602082019050919050565b600060208201905081810360008301526101ed816101b1565b9050919050565b613a04806102036000396000f3fe608060405234801561001057600080fd5b50600436106101e55760003560e01c80636884037d1161010f578063a217fddf116100a2578063c8bda60d11610071578063c8bda60d146105e3578063e411013b14610613578063f590ca821461062f578063f848dfd31461065f576101e5565b8063a217fddf1461056f578063acacc71c1461058d578063bdb33172146105a9578063be23e866146105c5576101e5565b806390656983116100de57806390656983146104e7578063965288b01461051757806399318bf7146105355780639aa90ca714610551576101e5565b80636884037d1461044a5780636fa2a0671461047b57806377347c96146104995780638acb698a146104c9576101e5565b80633aea18cc116101875780634991438211610156578063499143821461039c5780634d472116146103cc5780635de28ae0146103fc578063640ab9531461042c576101e5565b80633aea18cc146102ee57806343ce8fe51461031e57806344701ea51461034e57806348203b071461036c576101e5565b80632d29abdc116101c35780632d29abdc1461025457806337a4cd4d1461027257806338814ac9146102a25780633a20e9df146102be576101e5565b8063075ad852146101ea57806313007d551461021a5780631c1ec2fe14610238575b600080fd5b61020460048036038101906101ff91906127e6565b61067d565b6040516102119190612822565b60405180910390f35b610222610700565b60405161022f91906128bc565b60405180910390f35b610252600480360381019061024d9190612910565b610724565b005b61025c610a40565b6040516102699190612972565b60405180910390f35b61028c600480360381019061028791906127e6565b610a45565b6040516102999190612972565b60405180910390f35b6102bc60048036038101906102b791906127e6565b610ad5565b005b6102d860048036038101906102d391906127e6565b610e5c565b6040516102e59190612b97565b60405180910390f35b610308600480360381019061030391906127e6565b6110b9565b6040516103159190612bc2565b60405180910390f35b610338600480360381019061033391906127e6565b61115c565b6040516103459190612bec565b60405180910390f35b6103566111ec565b6040516103639190612bc2565b60405180910390f35b61038660048036038101906103819190612c6c565b611212565b6040516103939190612bec565b60405180910390f35b6103b660048036038101906103b191906127e6565b611233565b6040516103c39190612bec565b60405180910390f35b6103e660048036038101906103e191906127e6565b6112c3565b6040516103f39190612bec565b60405180910390f35b610416600480360381019061041191906127e6565b6112f0565b6040516104239190612cdb565b60405180910390f35b610434611380565b6040516104419190612822565b60405180910390f35b610464600480360381019061045f91906127e6565b6113a4565b604051610472929190612d05565b60405180910390f35b61048361142d565b6040516104909190612822565b60405180910390f35b6104b360048036038101906104ae91906127e6565b611451565b6040516104c09190612d2e565b60405180910390f35b6104d16114b6565b6040516104de9190612972565b60405180910390f35b61050160048036038101906104fc91906127e6565b6114bb565b60405161050e9190612bec565b60405180910390f35b61051f6114db565b60405161052c9190612822565b60405180910390f35b61054f600480360381019061054a9190612d75565b6114ff565b005b610559611712565b6040516105669190612972565b60405180910390f35b610577611717565b6040516105849190612822565b60405180910390f35b6105a760048036038101906105a29190612da2565b61171e565b005b6105c360048036038101906105be9190612e3c565b611ef9565b005b6105cd61228e565b6040516105da9190612972565b60405180910390f35b6105fd60048036038101906105f891906127e6565b612293565b60405161060a9190612bec565b60405180910390f35b61062d60048036038101906106289190612e7c565b612302565b005b610649600480360381019061064491906127e6565b61261a565b6040516106569190612f6b565b60405180910390f35b6106676126ca565b6040516106749190612972565b60405180910390f35b60006002600083815260200190815260200160002060080160009054906101000a900460ff166106e2576040517f08c379a00000000000000000000000000000000000000000000000000000000081526004016106d990612fea565b60405180910390fd5b60026000838152602001908152602001600020600601549050919050565b60008054906101000a900473ffffffffffffffffffffffffffffffffffffffff1681565b600160009054906101000a900473ffffffffffffffffffffffffffffffffffffffff1673ffffffffffffffffffffffffffffffffffffffff163373ffffffffffffffffffffffffffffffffffffffff16146107b4576040517f08c379a00000000000000000000000000000000000000000000000000000000081526004016107ab90613056565b60405180910390fd5b6002600084815260200190815260200160002060080160009054906101000a900460ff16610817576040517f08c379a000000000000000000000000000000000000000000000000000000000815260040161080e90612fea565b60405180910390fd5b6000801b810361085c576040517f08c379a0000000000000000000000000000000000000000000000000000000008152600401610853906130c2565b60405180910390fd5b600060ff168260ff16116108a5576040517f08c379a000000000000000000000000000000000000000000000000000000000815260040161089c9061312e565b60405180910390fd5b60006002600085815260200190815260200160002090506005808111156108cf576108ce6129bd565b5b8160050160149054906101000a900460ff1660058111156108f3576108f26129bd565b5b03610933576040517f08c379a000000000000000000000000000000000000000000000000000000000815260040161092a9061319a565b60405180910390fd5b60046005811115610947576109466129bd565b5b8160050160149054906101000a900460ff16600581111561096b5761096a6129bd565b5b146109ae578060050160149054906101000a900460ff168160050160156101000a81548160ff021916908360058111156109a8576109a76129bd565b5b02179055505b60048160050160146101000a81548160ff021916908360058111156109d6576109d56129bd565b5b0217905550828160050160186101000a81548160ff021916908360ff16021790555081816006018190555081847fe6b3b069ebd03d4dd37f949e07f7582a911d05350ab7480553325fb2909d8c5885604051610a329190612972565b60405180910390a350505050565b600281565b60006002600083815260200190815260200160002060080160009054906101000a900460ff16610aaa576040517f08c379a0000000000000000000000000000000000000000000000000000000008152600401610aa190612fea565b60405180910390fd5b6002600083815260200190815260200160002060050160189054906101000a900460ff169050919050565b600160009054906101000a900473ffffffffffffffffffffffffffffffffffffffff1673ffffffffffffffffffffffffffffffffffffffff163373ffffffffffffffffffffffffffffffffffffffff1614610b65576040517f08c379a0000000000000000000000000000000000000000000000000000000008152600401610b5c90613056565b60405180910390fd5b6002600082815260200190815260200160002060080160009054906101000a900460ff16610bc8576040517f08c379a0000000000000000000000000000000000000000000000000000000008152600401610bbf90612fea565b60405180910390fd5b6000600260008381526020019081526020016000209050600580811115610bf257610bf16129bd565b5b8160050160149054906101000a900460ff166005811115610c1657610c156129bd565b5b03610c56576040517f08c379a0000000000000000000000000000000000000000000000000000000008152600401610c4d9061319a565b60405180910390fd5b60046005811115610c6a57610c696129bd565b5b8160050160149054906101000a900460ff166005811115610c8e57610c8d6129bd565b5b03610cce576040517f08c379a0000000000000000000000000000000000000000000000000000000008152600401610cc590613206565b60405180910390fd5b60016005811115610ce257610ce16129bd565b5b8160050160149054906101000a900460ff166005811115610d0657610d056129bd565b5b1480610d47575060036005811115610d2157610d206129bd565b5b8160050160149054906101000a900460ff166005811115610d4557610d446129bd565b5b145b610d86576040517f08c379a0000000000000000000000000000000000000000000000000000000008152600401610d7d90613272565b60405180910390fd5b8060050160149054906101000a900460ff168160050160156101000a81548160ff02191690836005811115610dbe57610dbd6129bd565b5b021790555060028160050160146101000a81548160ff02191690836005811115610deb57610dea6129bd565b5b02179055508060050160009054906101000a900473ffffffffffffffffffffffffffffffffffffffff1673ffffffffffffffffffffffffffffffffffffffff16827fb118605e0d0aa2bdb49cd93946627aba675b007e5c7aa1e60009705493a64b9960405160405180910390a35050565b610e646126cf565b6002600083815260200190815260200160002060080160009054906101000a900460ff16610ec7576040517f08c379a0000000000000000000000000000000000000000000000000000000008152600401610ebe90612fea565b60405180910390fd5b60026000838152602001908152602001600020604051806101c0016040529081600082015481526020016001820154815260200160028201548152602001600382015481526020016004820160009054906101000a900473ffffffffffffffffffffffffffffffffffffffff1673ffffffffffffffffffffffffffffffffffffffff1673ffffffffffffffffffffffffffffffffffffffff1681526020016005820160009054906101000a900473ffffffffffffffffffffffffffffffffffffffff1673ffffffffffffffffffffffffffffffffffffffff1673ffffffffffffffffffffffffffffffffffffffff1681526020016005820160149054906101000a900460ff166005811115610fdf57610fde6129bd565b5b6005811115610ff157610ff06129bd565b5b81526020016005820160159054906101000a900460ff16600581111561101a576110196129bd565b5b600581111561102c5761102b6129bd565b5b81526020016005820160169054906101000a900460ff161515151581526020016005820160179054906101000a900460ff161515151581526020016005820160189054906101000a900460ff1660ff1660ff16815260200160068201548152602001600782015481526020016008820160009054906101000a900460ff1615151515815250509050919050565b60006002600083815260200190815260200160002060080160009054906101000a900460ff1661111e576040517f08c379a000000000000000000000000000000000000000000000000000000000815260040161111590612fea565b60405180910390fd5b6002600083815260200190815260200160002060050160009054906101000a900473ffffffffffffffffffffffffffffffffffffffff169050919050565b60006002600083815260200190815260200160002060080160009054906101000a900460ff166111c1576040517f08c379a00000000000000000000000000000000000000000000000000000000081526004016111b890612fea565b60405180910390fd5b6002600083815260200190815260200160002060050160179054906101000a900460ff169050919050565b600160009054906101000a900473ffffffffffffffffffffffffffffffffffffffff1681565b60008060001b841415801561122a5750600083839050115b90509392505050565b60006002600083815260200190815260200160002060080160009054906101000a900460ff16611298576040517f08c379a000000000000000000000000000000000000000000000000000000000815260040161128f90612fea565b60405180910390fd5b6002600083815260200190815260200160002060050160169054906101000a900460ff169050919050565b60006002600083815260200190815260200160002060080160009054906101000a900460ff169050919050565b60006002600083815260200190815260200160002060080160009054906101000a900460ff16611355576040517f08c379a000000000000000000000000000000000000000000000000000000000815260040161134c90612fea565b60405180910390fd5b6002600083815260200190815260200160002060050160149054906101000a900460ff169050919050565b7f53790c0a8b785aa2d322b9af6deababb51631b04fecccd73685fd13875f5571f81565b6000806000801b83036113ec576040517f08c379a00000000000000000000000000000000000000000000000000000000081526004016113e3906132de565b60405180910390fd5b6004600084815260200190815260200160002060009054906101000a900460ff16600360008581526020019081526020016000208054905091509150915091565b7f9dd0c3bd9bb5e1c820c362d05d5cb38480246edb10ff416751bc3dcaccab86fe81565b60008060001b8203611498576040517f08c379a000000000000000000000000000000000000000000000000000000000815260040161148f906132de565b60405180910390fd5b60036000838152602001908152602001600020805490509050919050565b600181565b60046020528060005260406000206000915054906101000a900460ff1681565b7feefb95e842a3287179d933b4460be539a1d5af11aa8b325bb45c5c8dc92de4ed81565b60008054906101000a900473ffffffffffffffffffffffffffffffffffffffff1673ffffffffffffffffffffffffffffffffffffffff166391d148546000801b336040518363ffffffff1660e01b815260040161155d9291906132fe565b602060405180830381865afa15801561157a573d6000803e3d6000fd5b505050506040513d601f19601f8201168201806040525081019061159e9190613353565b6115dd576040517f08c379a00000000000000000000000000000000000000000000000000000000081526004016115d4906133cc565b60405180910390fd5b600073ffffffffffffffffffffffffffffffffffffffff168173ffffffffffffffffffffffffffffffffffffffff160361164c576040517f08c379a000000000000000000000000000000000000000000000000000000000815260040161164390613438565b60405180910390fd5b6000600160009054906101000a900473ffffffffffffffffffffffffffffffffffffffff16905081600160006101000a81548173ffffffffffffffffffffffffffffffffffffffff021916908373ffffffffffffffffffffffffffffffffffffffff1602179055508173ffffffffffffffffffffffffffffffffffffffff168173ffffffffffffffffffffffffffffffffffffffff167f5e617a8cc7911757e18bee1b0d3387d2c5727d5976a34c96901217f799b5f29060405160405180910390a35050565b600381565b6000801b81565b60008060009054906101000a900473ffffffffffffffffffffffffffffffffffffffff1673ffffffffffffffffffffffffffffffffffffffff166391d148547feefb95e842a3287179d933b4460be539a1d5af11aa8b325bb45c5c8dc92de4ed336040518363ffffffff1660e01b815260040161179c9291906132fe565b602060405180830381865afa1580156117b9573d6000803e3d6000fd5b505050506040513d601f19601f820116820180604052508101906117dd9190613353565b905060008060009054906101000a900473ffffffffffffffffffffffffffffffffffffffff1673ffffffffffffffffffffffffffffffffffffffff166391d148547f9dd0c3bd9bb5e1c820c362d05d5cb38480246edb10ff416751bc3dcaccab86fe336040518363ffffffff1660e01b815260040161185d9291906132fe565b602060405180830381865afa15801561187a573d6000803e3d6000fd5b505050506040513d601f19601f8201168201806040525081019061189e9190613353565b905081806118a95750805b6118e8576040517f08c379a00000000000000000000000000000000000000000000000000000000081526004016118df906134a4565b60405180910390fd5b6000801b880361192d576040517f08c379a000000000000000000000000000000000000000000000000000000000815260040161192490613510565b60405180910390fd5b6000801b8703611972576040517f08c379a0000000000000000000000000000000000000000000000000000000008152600401611969906132de565b60405180910390fd5b6000801b86036119b7576040517f08c379a00000000000000000000000000000000000000000000000000000000081526004016119ae9061357c565b60405180910390fd5b6002600089815260200190815260200160002060080160009054906101000a900460ff1615611a1b576040517f08c379a0000000000000000000000000000000000000000000000000000000008152600401611a12906135e8565b60405180910390fd5b6004600088815260200190815260200160002060009054906101000a900460ff1615611a7c576040517f08c379a0000000000000000000000000000000000000000000000000000000008152600401611a7390613654565b60405180910390fd5b60008060009054906101000a900473ffffffffffffffffffffffffffffffffffffffff1673ffffffffffffffffffffffffffffffffffffffff166391d148547f9dd0c3bd9bb5e1c820c362d05d5cb38480246edb10ff416751bc3dcaccab86fe336040518363ffffffff1660e01b8152600401611afa9291906132fe565b602060405180830381865afa158015611b17573d6000803e3d6000fd5b505050506040513d601f19601f82011682018060405250810190611b3b9190613353565b905060008115611bd9576000801b8703611b8a576040517f08c379a0000000000000000000000000000000000000000000000000000000008152600401611b81906136c0565b60405180910390fd5b611b95878787611212565b611bd4576040517f08c379a0000000000000000000000000000000000000000000000000000000008152600401611bcb9061372c565b60405180910390fd5b600190505b604051806101c001604052808b81526020018a81526020018981526020018881526020013373ffffffffffffffffffffffffffffffffffffffff1681526020013373ffffffffffffffffffffffffffffffffffffffff16815260200160016005811115611c4957611c486129bd565b5b815260200160006005811115611c6257611c616129bd565b5b815260200183151581526020018215158152602001600060ff1681526020016000801b815260200142815260200160011515815250600260008c81526020019081526020016000206000820151816000015560208201518160010155604082015181600201556060820151816003015560808201518160040160006101000a81548173ffffffffffffffffffffffffffffffffffffffff021916908373ffffffffffffffffffffffffffffffffffffffff16021790555060a08201518160050160006101000a81548173ffffffffffffffffffffffffffffffffffffffff021916908373ffffffffffffffffffffffffffffffffffffffff16021790555060c08201518160050160146101000a81548160ff02191690836005811115611d8b57611d8a6129bd565b5b021790555060e08201518160050160156101000a81548160ff02191690836005811115611dbb57611dba6129bd565b5b02179055506101008201518160050160166101000a81548160ff0219169083151502179055506101208201518160050160176101000a81548160ff0219169083151502179055506101408201518160050160186101000a81548160ff021916908360ff160217905550610160820151816006015561018082015181600701556101a08201518160080160006101000a81548160ff021916908315150217905550905050600360008a81526020019081526020016000208a90806001815401808255809150506001900390600052602060002001600090919091909150553373ffffffffffffffffffffffffffffffffffffffff16898b7f37456a869538f797717c55251e3c7e8ca8d2de18bedf4a2eaae12affc2f2efc085856001604051611ee59392919061374c565b60405180910390a450505050505050505050565b60008054906101000a900473ffffffffffffffffffffffffffffffffffffffff1673ffffffffffffffffffffffffffffffffffffffff166391d148547f53790c0a8b785aa2d322b9af6deababb51631b04fecccd73685fd13875f5571f336040518363ffffffff1660e01b8152600401611f749291906132fe565b602060405180830381865afa158015611f91573d6000803e3d6000fd5b505050506040513d601f19601f82011682018060405250810190611fb59190613353565b611ff4576040517f08c379a0000000000000000000000000000000000000000000000000000000008152600401611feb906137cf565b60405180910390fd5b6000801b8203612039576040517f08c379a0000000000000000000000000000000000000000000000000000000008152600401612030906132de565b60405180910390fd5b6000801b810361207e576040517f08c379a0000000000000000000000000000000000000000000000000000000008152600401612075906130c2565b60405180910390fd5b6004600083815260200190815260200160002060009054906101000a900460ff16156120df576040517f08c379a00000000000000000000000000000000000000000000000000000000081526004016120d69061383b565b60405180910390fd5b6000600360008481526020019081526020016000209050600081805490501161213d576040517f08c379a0000000000000000000000000000000000000000000000000000000008152600401612134906138a7565b60405180910390fd5b60016004600085815260200190815260200160002060006101000a81548160ff02191690831515021790555060005b818054905081101561224b57600060026000848481548110612191576121906138c7565b5b9060005260206000200154815260200190815260200160002090508060050160149054906101000a900460ff168160050160156101000a81548160ff021916908360058111156121e4576121e36129bd565b5b021790555060058160050160146101000a81548160ff02191690836005811115612211576122106129bd565b5b021790555060048160050160186101000a81548160ff021916908360ff16021790555083816006018190555050808060010191505061216c565b5081837fe1cf5d3437dde2dfd548826712c4a87c45a61df76e2b435d2dd50bf9c76bcec183805490506040516122819190612d2e565b60405180910390a3505050565b600481565b60008060001b82036122da576040517f08c379a00000000000000000000000000000000000000000000000000000000081526004016122d1906132de565b60405180910390fd5b6004600083815260200190815260200160002060009054906101000a900460ff169050919050565b600160009054906101000a900473ffffffffffffffffffffffffffffffffffffffff1673ffffffffffffffffffffffffffffffffffffffff163373ffffffffffffffffffffffffffffffffffffffff1614612392576040517f08c379a000000000000000000000000000000000000000000000000000000000815260040161238990613056565b60405180910390fd5b6002600083815260200190815260200160002060080160009054906101000a900460ff166123f5576040517f08c379a00000000000000000000000000000000000000000000000000000000081526004016123ec90612fea565b60405180910390fd5b600073ffffffffffffffffffffffffffffffffffffffff168173ffffffffffffffffffffffffffffffffffffffff1603612464576040517f08c379a000000000000000000000000000000000000000000000000000000000815260040161245b90613942565b60405180910390fd5b60006002600084815260200190815260200160002090506002600581111561248f5761248e6129bd565b5b8160050160149054906101000a900460ff1660058111156124b3576124b26129bd565b5b146124f3576040517f08c379a00000000000000000000000000000000000000000000000000000000081526004016124ea906139ae565b60405180910390fd5b60008160050160009054906101000a900473ffffffffffffffffffffffffffffffffffffffff169050828260050160006101000a81548173ffffffffffffffffffffffffffffffffffffffff021916908373ffffffffffffffffffffffffffffffffffffffff16021790555060028260050160156101000a81548160ff02191690836005811115612587576125866129bd565b5b021790555060038260050160146101000a81548160ff021916908360058111156125b4576125b36129bd565b5b02179055508273ffffffffffffffffffffffffffffffffffffffff168173ffffffffffffffffffffffffffffffffffffffff16857fb729a62a473d48aaa11caa7e41dcd94d7181b7821656890d7df33518f54e234e60405160405180910390a450505050565b60606000801b8203612661576040517f08c379a0000000000000000000000000000000000000000000000000000000008152600401612658906132de565b60405180910390fd5b600360008381526020019081526020016000208054806020026020016040519081016040528092919081815260200182805480156126be57602002820191906000526020600020905b8154815260200190600101908083116126aa575b50505050509050919050565b600081565b604051806101c0016040528060008019168152602001600080191681526020016000801916815260200160008019168152602001600073ffffffffffffffffffffffffffffffffffffffff168152602001600073ffffffffffffffffffffffffffffffffffffffff16815260200160006005811115612751576127506129bd565b5b81526020016000600581111561276a576127696129bd565b5b8152602001600015158152602001600015158152602001600060ff16815260200160008019168152602001600081526020016000151581525090565b600080fd5b600080fd5b6000819050919050565b6127c3816127b0565b81146127ce57600080fd5b50565b6000813590506127e0816127ba565b92915050565b6000602082840312156127fc576127fb6127a6565b5b600061280a848285016127d1565b91505092915050565b61281c816127b0565b82525050565b60006020820190506128376000830184612813565b92915050565b600073ffffffffffffffffffffffffffffffffffffffff82169050919050565b6000819050919050565b600061288261287d6128788461283d565b61285d565b61283d565b9050919050565b600061289482612867565b9050919050565b60006128a682612889565b9050919050565b6128b68161289b565b82525050565b60006020820190506128d160008301846128ad565b92915050565b600060ff82169050919050565b6128ed816128d7565b81146128f857600080fd5b50565b60008135905061290a816128e4565b92915050565b600080600060608486031215612929576129286127a6565b5b6000612937868287016127d1565b9350506020612948868287016128fb565b9250506040612959868287016127d1565b9150509250925092565b61296c816128d7565b82525050565b60006020820190506129876000830184612963565b92915050565b612996816127b0565b82525050565b60006129a78261283d565b9050919050565b6129b78161299c565b82525050565b7f4e487b7100000000000000000000000000000000000000000000000000000000600052602160045260246000fd5b600681106129fd576129fc6129bd565b5b50565b6000819050612a0e826129ec565b919050565b6000612a1e82612a00565b9050919050565b612a2e81612a13565b82525050565b60008115159050919050565b612a4981612a34565b82525050565b612a58816128d7565b82525050565b6000819050919050565b612a7181612a5e565b82525050565b6101c082016000820151612a8e600085018261298d565b506020820151612aa1602085018261298d565b506040820151612ab4604085018261298d565b506060820151612ac7606085018261298d565b506080820151612ada60808501826129ae565b5060a0820151612aed60a08501826129ae565b5060c0820151612b0060c0850182612a25565b5060e0820151612b1360e0850182612a25565b50610100820151612b28610100850182612a40565b50610120820151612b3d610120850182612a40565b50610140820151612b52610140850182612a4f565b50610160820151612b6761016085018261298d565b50610180820151612b7c610180850182612a68565b506101a0820151612b916101a0850182612a40565b50505050565b60006101c082019050612bad6000830184612a77565b92915050565b612bbc8161299c565b82525050565b6000602082019050612bd76000830184612bb3565b92915050565b612be681612a34565b82525050565b6000602082019050612c016000830184612bdd565b92915050565b600080fd5b600080fd5b600080fd5b60008083601f840112612c2c57612c2b612c07565b5b8235905067ffffffffffffffff811115612c4957612c48612c0c565b5b602083019150836001820283011115612c6557612c64612c11565b5b9250929050565b600080600060408486031215612c8557612c846127a6565b5b6000612c93868287016127d1565b935050602084013567ffffffffffffffff811115612cb457612cb36127ab565b5b612cc086828701612c16565b92509250509250925092565b612cd581612a13565b82525050565b6000602082019050612cf06000830184612ccc565b92915050565b612cff81612a5e565b82525050565b6000604082019050612d1a6000830185612bdd565b612d276020830184612cf6565b9392505050565b6000602082019050612d436000830184612cf6565b92915050565b612d528161299c565b8114612d5d57600080fd5b50565b600081359050612d6f81612d49565b92915050565b600060208284031215612d8b57612d8a6127a6565b5b6000612d9984828501612d60565b91505092915050565b60008060008060008060a08789031215612dbf57612dbe6127a6565b5b6000612dcd89828a016127d1565b9650506020612dde89828a016127d1565b9550506040612def89828a016127d1565b9450506060612e0089828a016127d1565b935050608087013567ffffffffffffffff811115612e2157612e206127ab565b5b612e2d89828a01612c16565b92509250509295509295509295565b60008060408385031215612e5357612e526127a6565b5b6000612e61858286016127d1565b9250506020612e72858286016127d1565b9150509250929050565b60008060408385031215612e9357612e926127a6565b5b6000612ea1858286016127d1565b9250506020612eb285828601612d60565b9150509250929050565b600081519050919050565b600082825260208201905092915050565b6000819050602082019050919050565b6000612ef4838361298d565b60208301905092915050565b6000602082019050919050565b6000612f1882612ebc565b612f228185612ec7565b9350612f2d83612ed8565b8060005b83811015612f5e578151612f458882612ee8565b9750612f5083612f00565b925050600181019050612f31565b5085935050505092915050565b60006020820190508181036000830152612f858184612f0d565b905092915050565b600082825260208201905092915050565b7f50726f64756374206e6f7420666f756e64000000000000000000000000000000600082015250565b6000612fd4601183612f8d565b9150612fdf82612f9e565b602082019050919050565b6000602082019050818103600083015261300381612fc7565b9050919050565b7f4e6f74207472616e73666572206c656467657200000000000000000000000000600082015250565b6000613040601383612f8d565b915061304b8261300a565b602082019050919050565b6000602082019050818103600083015261306f81613033565b9050919050565b7f496e76616c696420726561736f6e000000000000000000000000000000000000600082015250565b60006130ac600e83612f8d565b91506130b782613076565b602082019050919050565b600060208201905081810360008301526130db8161309f565b9050919050565b7f496e76616c6964207269736b206c6576656c0000000000000000000000000000600082015250565b6000613118601283612f8d565b9150613123826130e2565b602082019050919050565b600060208201905081810360008301526131478161310b565b9050919050565b7f50726f6475637420726563616c6c656400000000000000000000000000000000600082015250565b6000613184601083612f8d565b915061318f8261314e565b602082019050919050565b600060208201905081810360008301526131b381613177565b9050919050565b7f50726f6475637420666c61676765640000000000000000000000000000000000600082015250565b60006131f0600f83612f8d565b91506131fb826131ba565b602082019050919050565b6000602082019050818103600083015261321f816131e3565b9050919050565b7f496e76616c696420737461747573000000000000000000000000000000000000600082015250565b600061325c600e83612f8d565b915061326782613226565b602082019050919050565b6000602082019050818103600083015261328b8161324f565b9050919050565b7f496e76616c696420626174636800000000000000000000000000000000000000600082015250565b60006132c8600d83612f8d565b91506132d382613292565b602082019050919050565b600060208201905081810360008301526132f7816132bb565b9050919050565b60006040820190506133136000830185612813565b6133206020830184612bb3565b9392505050565b61333081612a34565b811461333b57600080fd5b50565b60008151905061334d81613327565b92915050565b600060208284031215613369576133686127a6565b5b60006133778482850161333e565b91505092915050565b7f4e6f742061646d696e0000000000000000000000000000000000000000000000600082015250565b60006133b6600983612f8d565b91506133c182613380565b602082019050919050565b600060208201905081810360008301526133e5816133a9565b9050919050565b7f496e76616c6964207472616e73666572206c6564676572000000000000000000600082015250565b6000613422601783612f8d565b915061342d826133ec565b602082019050919050565b6000602082019050818103600083015261345181613415565b9050919050565b7f4e6f74206d616e756661637475726572206f7220696d706f7274657200000000600082015250565b600061348e601c83612f8d565b915061349982613458565b602082019050919050565b600060208201905081810360008301526134bd81613481565b9050919050565b7f496e76616c69642073657269616c000000000000000000000000000000000000600082015250565b60006134fa600e83612f8d565b9150613505826134c4565b602082019050919050565b60006020820190508181036000830152613529816134ed565b9050919050565b7f496e76616c6964206d6574616461746100000000000000000000000000000000600082015250565b6000613566601083612f8d565b915061357182613530565b602082019050919050565b6000602082019050818103600083015261359581613559565b9050919050565b7f4475706c69636174652073657269616c00000000000000000000000000000000600082015250565b60006135d2601083612f8d565b91506135dd8261359c565b602082019050919050565b60006020820190508181036000830152613601816135c5565b9050919050565b7f426174636820726563616c6c6564000000000000000000000000000000000000600082015250565b600061363e600e83612f8d565b915061364982613608565b602082019050919050565b6000602082019050818103600083015261366d81613631565b9050919050565b7f4d697373696e6720696d706f727420646f630000000000000000000000000000600082015250565b60006136aa601283612f8d565b91506136b582613674565b602082019050919050565b600060208201905081810360008301526136d98161369d565b9050919050565b7f496e76616c69642070726f6f6600000000000000000000000000000000000000600082015250565b6000613716600d83612f8d565b9150613721826136e0565b602082019050919050565b6000602082019050818103600083015261374581613709565b9050919050565b60006060820190506137616000830186612bdd565b61376e6020830185612bdd565b61377b6040830184612ccc565b949350505050565b7f4e6f7420726563616c6c20617574686f72697479000000000000000000000000600082015250565b60006137b9601483612f8d565b91506137c482613783565b602082019050919050565b600060208201905081810360008301526137e8816137ac565b9050919050565b7f426174636820616c726561647920726563616c6c656400000000000000000000600082015250565b6000613825601683612f8d565b9150613830826137ef565b602082019050919050565b6000602082019050818103600083015261385481613818565b9050919050565b7f456d707479206261746368000000000000000000000000000000000000000000600082015250565b6000613891600b83612f8d565b915061389c8261385b565b602082019050919050565b600060208201905081810360008301526138c081613884565b9050919050565b7f4e487b7100000000000000000000000000000000000000000000000000000000600052603260045260246000fd5b7f496e76616c6964206f776e657200000000000000000000000000000000000000600082015250565b600061392c600d83612f8d565b9150613937826138f6565b602082019050919050565b6000602082019050818103600083015261395b8161391f565b9050919050565b7f4e6f7420696e207472616e736974000000000000000000000000000000000000600082015250565b6000613998600e83612f8d565b91506139a382613962565b602082019050919050565b600060208201905081810360008301526139c78161398b565b905091905056fea2646970667358221220894e413ec168660391031f8828f92231c27ee0958f8d07f6393d071d4199d17964736f6c634300081c0033",
  "linkReferences": {},
  "deployedLinkReferences": {}
}