{
  "_format": "hh-sol-artifact-1",
  "contractName": "ProductRegistry",
  "sourceName": "contracts/ProductRegistry.sol",
  "abi": [
    {
      "inputs": [
        {
          "internalType": "address",
          "name": "accessControlAddress",
          "type": "address"
        }
      ],
      "stateMutability": "nonpayable",
      "type": "constructor"
    },
    {
      "anonymous": false,
      "inputs": [
        {
          "indexed": true,
          "internalType": "uint256",
          "name": "oldRoot",
          "type": "uint256"
        },
        {
          "indexed": true,
          "internalType": "uint256",
          "name": "newRoot",
          "type": "uint256"
        }
      ],
      "name": "ApprovedImportRootUpdated",
      "type": "event"
    },
    {
      "anonymous": false,
      "inputs": [
        {
          "indexed": true,
          "internalType": "bytes32",
          "name": "batchHash",
          "type": "bytes32"
        },
        {
          "indexed": true,
          "internalType": "bytes32",
          "name": "reasonHash",
          "type": "bytes32"
        },
        {
          "indexed": false,
          "internalType": "uint256",
          "name": "totalProducts",
          "type": "uint256"
        }
      ],
      "name": "BatchRecalled",
      "type": "event"
    },
    {
      "anonymous": false,
      "inputs": [
        {
          "indexed": true,
          "internalType": "bytes32",
          "name": "batchHash",
          "type": "bytes32"
        },
        {
          "indexed": false,
          "internalType": "bool",
          "name": "recalled",
          "type": "bool"
        },
        {
          "indexed": false,
          "internalType": "uint256",
          "name": "totalProducts",
          "type": "uint256"
        }
      ],
      "name": "BatchStatusChecked",
      "type": "event"
    },
    {
      "anonymous": false,
      "inputs": [
        {
          "indexed": true,
          "internalType": "address",
          "name": "oldVerifier",
          "type": "address"
        },
        {
          "indexed": true,
          "internalType": "address",
          "name": "newVerifier",
          "type": "address"
        }
      ],
      "name": "ImportVerifierUpdated",
      "type": "event"
    },
    {
      "anonymous": false,
      "inputs": [
        {
          "indexed": true,
          "internalType": "bytes32",
          "name": "serialID",
          "type": "bytes32"
        },
        {
          "indexed": false,
          "internalType": "uint8",
          "name": "riskLevel",
          "type": "uint8"
        },
        {
          "indexed": true,
          "internalType": "bytes32",
          "name": "reason",
          "type": "bytes32"
        }
      ],
      "name": "ProductFlagged",
      "type": "event"
    },
    {
      "anonymous": false,
      "inputs": [
        {
          "indexed": true,
          "internalType": "bytes32",
          "name": "serialID",
          "type": "bytes32"
        },
        {
          "indexed": true,
          "internalType": "address",
          "name": "currentOwner",
          "type": "address"
        }
      ],
      "name": "ProductMarkedInTransit",
      "type": "event"
    },
    {
      "anonymous": false,
      "inputs": [
        {
          "indexed": true,
          "internalType": "bytes32",
          "name": "serialID",
          "type": "bytes32"
        },
        {
          "indexed": true,
          "internalType": "bytes32",
          "name": "batchHash",
          "type": "bytes32"
        },
        {
          "indexed": true,
          "internalType": "address",
          "name": "owner",
          "type": "address"
        },
        {
          "indexed": false,
          "internalType": "bool",
          "name": "isImported",
          "type": "bool"
        },
        {
          "indexed": false,
          "internalType": "bool",
          "name": "zkpVerified",
          "type": "bool"
        },
        {
          "indexed": false,
          "internalType": "enum ProductRegistry.Status",
          "name": "status",
          "type": "uint8"
        }
      ],
      "name": "ProductRegistered",
      "type": "event"
    },
    {
      "anonymous": false,
      "inputs": [
        {
          "indexed": true,
          "internalType": "bytes32",
          "name": "serialID",
          "type": "bytes32"
        },
        {
          "indexed": true,
          "internalType": "address",
          "name": "oldOwner",
          "type": "address"
        },
        {
          "indexed": true,
          "internalType": "address",
          "name": "newOwner",
          "type": "address"
        }
      ],
      "name": "ProductTransferCompleted",
      "type": "event"
    },
    {
      "anonymous": false,
      "inputs": [
        {
          "indexed": true,
          "internalType": "bytes32",
          "name": "serialID",
          "type": "bytes32"
        },
        {
          "indexed": false,
          "internalType": "enum ProductRegistry.Status",
          "name": "revertedTo",
          "type": "uint8"
        }
      ],
      "name": "ProductTransferReverted",
      "type": "event"
    },
    {
      "anonymous": false,
      "inputs": [
        {
          "indexed": true,
          "internalType": "address",
          "name": "oldLedger",
          "type": "address"
        },
        {
          "indexed": true,
          "internalType": "address",
          "name": "newLedger",
          "type": "address"
        }
      ],
      "name": "TransferLedgerUpdated",
      "type": "event"
    },
    {
      "inputs": [],
      "name": "DEFAULT_ADMIN_ROLE",
      "outputs": [
        {
          "internalType": "bytes32",
          "name": "",
          "type": "bytes32"
        }
      ],
      "stateMutability": "view",
      "type": "function"
    },
    {
      "inputs": [],
      "name": "IMPORTER_ROLE",
      "outputs": [
        {
          "internalType": "bytes32",
          "name": "",
          "type": "bytes32"
        }
      ],
      "stateMutability": "view",
      "type": "function"
    },
    {
      "inputs": [],
      "name": "MANUFACTURER_ROLE",
      "outputs": [
        {
          "internalType": "bytes32",
          "name": "",
          "type": "bytes32"
        }
      ],
      "stateMutability": "view",
      "type": "function"
    },
    {
      "inputs": [],
      "name": "RECALL_AUTHORITY_ROLE",
      "outputs": [
        {
          "internalType": "bytes32",
          "name": "",
          "type": "bytes32"
        }
      ],
      "stateMutability": "view",
      "type": "function"
    },
    {
      "inputs": [],
      "name": "RISK_CRITICAL",
      "outputs": [
        {
          "internalType": "uint8",
          "name": "",
          "type": "uint8"
        }
      ],
      "stateMutability": "view",
      "type": "function"
    },
    {
      "inputs": [],
      "name": "RISK_HIGH",
      "outputs": [
        {
          "internalType": "uint8",
          "name": "",
          "type": "uint8"
        }
      ],
      "stateMutability": "view",
      "type": "function"
    },
    {
      "inputs": [],
      "name": "RISK_LOW",
      "outputs": [
        {
          "internalType": "uint8",
          "name": "",
          "type": "uint8"
        }
      ],
      "stateMutability": "view",
      "type": "function"
    },
    {
      "inputs": [],
      "name": "RISK_MEDIUM",
      "outputs": [
        {
          "internalType": "uint8",
          "name": "",
          "type": "uint8"
        }
      ],
      "stateMutability": "view",
      "type": "function"
    },
    {
      "inputs": [],
      "name": "RISK_NONE",
      "outputs": [
        {
          "internalType": "uint8",
          "name": "",
          "type": "uint8"
        }
      ],
      "stateMutability": "view",
      "type": "function"
    },
    {
      "inputs": [],
      "name": "accessControl",
      "outputs": [
        {
          "internalType": "contract ISupplyChainAccessControl",
          "name": "",
          "type": "address"
        }
      ],
      "stateMutability": "view",
      "type": "function"
    },
    {
      "inputs": [],
      "name": "approvedImportRoot",
      "outputs": [
        {
          "internalType": "uint256",
          "name": "",
          "type": "uint256"
        }
      ],
      "stateMutability": "view",
      "type": "function"
    },
    {
      "inputs": [
        {
          "internalType": "bytes32",
          "name": "serialID",
          "type": "bytes32"
        },
        {
          "internalType": "address",
          "name": "newOwner",
          "type": "address"
        }
      ],
      "name": "completeTransfer",
      "outputs": [],
      "stateMutability": "nonpayable",
      "type": "function"
    },
    {
      "inputs": [
        {
          "internalType": "bytes32",
          "name": "serialID",
          "type": "bytes32"
        },
        {
          "internalType": "uint8",
          "name": "riskLevel",
          "type": "uint8"
        },
        {
          "internalType": "bytes32",
          "name": "reason",
          "type": "bytes32"
        }
      ],
      "name": "flagProductFromLedger",
      "outputs": [],
      "stateMutability": "nonpayable",
      "type": "function"
    },
    {
      "inputs": [
        {
          "internalType": "bytes32",
          "name": "batchHash",
          "type": "bytes32"
        }
      ],
      "name": "getBatchSerials",
      "outputs": [
        {
          "internalType": "bytes32[]",
          "name": "",
          "type": "bytes32[]"
        }
      ],
      "stateMutability": "view",
      "type": "function"
    },
    {
      "inputs": [
        {
          "internalType": "bytes32",
          "name": "batchHash",
          "type": "bytes32"
        }
      ],
      "name": "getBatchSize",
      "outputs": [
        {
          "internalType": "uint256",
          "name": "",
          "type": "uint256"
        }
      ],
      "stateMutability": "view",
      "type": "function"
    },
    {
      "inputs": [
        {
          "internalType": "bytes32",
          "name": "batchHash",
          "type": "bytes32"
        }
      ],
      "name": "getBatchSummary",
      "outputs": [
        {
          "internalType": "bool",
          "name": "recalled",
          "type": "bool"
        },
        {
          "internalType": "uint256",
          "name": "totalProducts",
          "type": "uint256"
        }
      ],
      "stateMutability": "view",
      "type": "function"
    },
    {
      "inputs": [
        {
          "internalType": "bytes32",
          "name": "serialID",
          "type": "bytes32"
        }
      ],
      "name": "getCurrentOwner",
      "outputs": [
        {
          "internalType": "address",
          "name": "",
          "type": "address"
        }
      ],
      "stateMutability": "view",
      "type": "function"
    },
    {
      "inputs": [
        {
          "internalType": "bytes32",
          "name": "serialID",
          "type": "bytes32"
        }
      ],
      "name": "getFlagReason",
      "outputs": [
        {
          "internalType": "bytes32",
          "name": "",
          "type": "bytes32"
        }
      ],
      "stateMutability": "view",
      "type": "function"
    },
    {
      "inputs": [
        {
          "internalType": "bytes32",
          "name": "serialID",
          "type": "bytes32"
        }
      ],
      "name": "getProduct",
      "outputs": [
        {
          "components": [
            {
              "internalType": "bytes32",
              "name": "serialID",
              "type": "bytes32"
            },
            {
              "internalType": "bytes32",
              "name": "batchHash",
              "type": "bytes32"
            },
            {
              "internalType": "bytes32",
              "name": "metadataHash",
              "type": "bytes32"
            },
            {
              "internalType": "bytes32",
              "name": "importDocHash",
              "type": "bytes32"
            },
            {
              "internalType": "uint256",
              "name": "importDocCommitment",
              "type": "uint256"
            },
            {
              "internalType": "uint256",
              "name": "approvedImportRoot",
              "type": "uint256"
            },
            {
              "internalType": "address",
              "name": "origin",
              "type": "address"
            },
            {
              "internalType": "address",
              "name": "currentOwner",
              "type": "address"
            },
            {
              "internalType": "enum ProductRegistry.Status",
              "name": "status",
              "type": "uint8"
            },
            {
              "internalType": "enum ProductRegistry.Status",
              "name": "previousStatus",
              "type": "uint8"
            },
            {
              "internalType": "bool",
              "name": "isImported",
              "type": "bool"
            },
            {
              "internalType": "bool",
              "name": "zkpVerified",
              "type": "bool"
            },
            {
              "internalType": "uint8",
              "name": "riskLevel",
              "type": "uint8"
            },
            {
              "internalType": "bytes32",
              "name": "flagReason",
              "type": "bytes32"
            },
            {
              "internalType": "uint256",
              "name": "registeredAt",
              "type": "uint256"
            },
            {
              "internalType": "bool",
              "name": "exists",
              "type": "bool"
            }
          ],
          "internalType": "struct ProductRegistry.Product",
          "name": "",
          "type": "tuple"
        }
      ],
      "stateMutability": "view",
      "type": "function"
    },
    {
      "inputs": [
        {
          "internalType": "bytes32",
          "name": "serialID",
          "type": "bytes32"
        }
      ],
      "name": "getRiskLevel",
      "outputs": [
        {
          "internalType": "uint8",
          "name": "",
          "type": "uint8"
        }
      ],
      "stateMutability": "view",
      "type": "function"
    },
    {
      "inputs": [
        {
          "internalType": "bytes32",
          "name": "serialID",
          "type": "bytes32"
        }
      ],
      "name": "getStatus",
      "outputs": [
        {
          "internalType": "enum ProductRegistry.Status",
          "name": "",
          "type": "uint8"
        }
      ],
      "stateMutability": "view",
      "type": "function"
    },
    {
      "inputs": [],
      "name": "importVerifier",
      "outputs": [
        {
          "internalType": "contract IImportZKPVerifier",
          "name": "",
          "type": "address"
        }
      ],
      "stateMutability": "view",
      "type": "function"
    },
    {
      "inputs": [
        {
          "internalType": "bytes32",
          "name": "batchHash",
          "type": "bytes32"
        }
      ],
      "name": "isBatchRecalled",
      "outputs": [
        {
          "internalType": "bool",
          "name": "",
          "type": "bool"
        }
      ],
      "stateMutability": "view",
      "type": "function"
    },
    {
      "inputs": [
        {
          "internalType": "bytes32",
          "name": "serialID",
          "type": "bytes32"
        }
      ],
      "name": "isImportedProduct",
      "outputs": [
        {
          "internalType": "bool",
          "name": "",
          "type": "bool"
        }
      ],
      "stateMutability": "view",
      "type": "function"
    },
    {
      "inputs": [
        {
          "internalType": "bytes32",
          "name": "serialID",
          "type": "bytes32"
        }
      ],
      "name": "isZkpVerified",
      "outputs": [
        {
          "internalType": "bool",
          "name": "",
          "type": "bool"
        }
      ],
      "stateMutability": "view",
      "type": "function"
    },
    {
      "inputs": [
        {
          "internalType": "bytes32",
          "name": "serialID",
          "type": "bytes32"
        }
      ],
      "name": "markInTransit",
      "outputs": [],
      "stateMutability": "nonpayable",
      "type": "function"
    },
    {
      "inputs": [
        {
          "internalType": "bytes32",
          "name": "serialID",
          "type": "bytes32"
        }
      ],
      "name": "productExists",
      "outputs": [
        {
          "internalType": "bool",
          "name": "",
          "type": "bool"
        }
      ],
      "stateMutability": "view",
      "type": "function"
    },
    {
      "inputs": [
        {
          "internalType": "bytes32",
          "name": "batchHash",
          "type": "bytes32"
        },
        {
          "internalType": "bytes32",
          "name": "reasonHash",
          "type": "bytes32"
        }
      ],
      "name": "recallBatch",
      "outputs": [],
      "stateMutability": "nonpayable",
      "type": "function"
    },
    {
      "inputs": [
        {
          "internalType": "bytes32",
          "name": "",
          "type": "bytes32"
        }
      ],
      "name": "recalledBatches",
      "outputs": [
        {
          "internalType": "bool",
          "name": "",
          "type": "bool"
        }
      ],
      "stateMutability": "view",
      "type": "function"
    },
    {
      "inputs": [
        {
          "internalType": "bytes32",
          "name": "serialID",
          "type": "bytes32"
        },
        {
          "internalType": "bytes32",
          "name": "batchHash",
          "type": "bytes32"
        },
        {
          "internalType": "bytes32",
          "name": "metadataHash",
          "type": "bytes32"
        },
        {
          "internalType": "uint256[2]",
          "name": "a",
          "type": "uint256[2]"
        },
        {
          "internalType": "uint256[2][2]",
          "name": "b",
          "type": "uint256[2][2]"
        },
        {
          "internalType": "uint256[2]",
          "name": "c",
          "type": "uint256[2]"
        },
        {
          "internalType": "uint256[5]",
          "name": "input",
          "type": "uint256[5]"
        }
      ],
      "name": "registerImportedProductZK",
      "outputs": [],
      "stateMutability": "nonpayable",
      "type": "function"
    },
    {
      "inputs": [
        {
          "internalType": "bytes32",
          "name": "serialID",
          "type": "bytes32"
        },
        {
          "internalType": "bytes32",
          "name": "batchHash",
          "type": "bytes32"
        },
        {
          "internalType": "bytes32",
          "name": "metadataHash",
          "type": "bytes32"
        },
        {
          "internalType": "bytes32",
          "name": "importDocHash",
          "type": "bytes32"
        },
        {
          "internalType": "bytes",
          "name": "zkpProof",
          "type": "bytes"
        }
      ],
      "name": "registerProduct",
      "outputs": [],
      "stateMutability": "nonpayable",
      "type": "function"
    },
    {
      "inputs": [
        {
          "internalType": "bytes32",
          "name": "serialID",
          "type": "bytes32"
        }
      ],
      "name": "revertTransit",
      "outputs": [],
      "stateMutability": "nonpayable",
      "type": "function"
    },
    {
      "inputs": [
        {
          "internalType": "uint256",
          "name": "newApprovedImportRoot",
          "type": "uint256"
        }
      ],
      "name": "setApprovedImportRoot",
      "outputs": [],
      "stateMutability": "nonpayable",
      "type": "function"
    },
    {
      "inputs": [
        {
          "internalType": "address",
          "name": "newImportVerifier",
          "type": "address"
        }
      ],
      "name": "setImportVerifier",
      "outputs": [],
      "stateMutability": "nonpayable",
      "type": "function"
    },
    {
      "inputs": [
        {
          "internalType": "address",
          "name": "newTransferLedger",
          "type": "address"
        }
      ],
      "name": "setTransferLedger",
      "outputs": [],
      "stateMutability": "nonpayable",
      "type": "function"
    },
    {
      "inputs": [],
      "name": "transferLedger",
      "outputs": [
        {
          "internalType": "address",
          "name": "",
          "type": "address"
        }
      ],
      "stateMutability": "view",
      "type": "function"
    },
    {
      "inputs": [
        {
          "internalType": "bytes32",
          "name": "importDocHash",
          "type": "bytes32"
        },
        {
          "internalType": "bytes",
          "name": "zkpProof",
          "type": "bytes"
        }
      ],
      "name": "verifyProof",
      "outputs": [
        {
          "internalType": "bool",
          "name": "",
          "type": "bool"
        }
      ],
      "stateMutability": "pure",
      "type": "function"
    }
  ],
  "bytecode": "0x60803460ba57601f61247b38819003918201601f19168301916001600160401b0383118484101760bf5780849260209460405283398101031260ba57516001600160a01b0381169081900360ba578015607557600080546001600160a01b0319169190911790556040516123a590816100d68239f35b60405162461bcd60e51b815260206004820152601660248201527f496e76616c69642061636365737320636f6e74726f6c000000000000000000006044820152606490fd5b600080fd5b634e487b7160e01b600052604160045260246000fdfe6080604052600436101561001257600080fd5b60003560e01c8063075ad85214611e9657806313007d5514611e6d5780631c1ec2fe14611d1b5780632d29abdc14611cff57806337a4cd4d14611cad57806338814ac914611b5b5780633a20e9df146119015780633aea18cc146118ad57806343ce8fe51461185957806344701ea51461183057806348203b07146117db57806349914382146117875780634bce8fbb1461168b5780634d47211614611657578063587d80cb146116395780635de28ae0146115e0578063640ab953146115a55780636884037d146115575780636fa2a0671461152e57806377347c96146114f75780638053194e146114ce5780638acb698a146114b25780639065698314611481578063965288b01461144657806399318bf71461134a5780639aa90ca71461132e578063a217fddf146101b3578063acacc71c14610ee7578063bd77980914610e19578063bdb3317214610be3578063be23e86614610bc7578063c8bda60d14610b8b578063d177d75b14610aa2578063e393461a146103c9578063e411013b1461028b578063f590ca82146101d45763f848dfd3146101b357600080fd5b346101cf5760003660031901126101cf57602060405160008152f35b600080fd5b346101cf5760203660031901126101cf576004356101f381151561212a565b600052600560205260406000206040518060208354918281520190819360005260206000209060005b81811061027557505050816102329103826120ac565b6040519182916020830190602084525180915260408301919060005b81811061025c575050500390f35b825184528594506020938401939092019160010161024e565b825484526020909301926001928301920161021c565b346101cf5760403660031901126101cf576024356001600160a01b03811690600435908290036101cf576102ca60018060a01b03600354163314611f73565b8060005260046020526102e760ff600a6040600020015416611f33565b811561039457806000526004602052600760406000200180549060ff8260a01c16600681101561037e57600261031d9114612312565b805460ff60a01b1960ff60a81b198616600161ff0160a01b031990921691909117600160a91b1716600360a01b1790556001600160a01b0316907fb729a62a473d48aaa11caa7e41dcd94d7181b7821656890d7df33518f54e234e600080a4005b634e487b7160e01b600052602160045260246000fd5b60405162461bcd60e51b815260206004820152600d60248201526c24b73b30b634b21037bbb732b960991b6044820152606490fd5b346101cf576102003660031901126101cf576004356024356044353660a4116101cf5736610124116101cf5736610164116101cf5736610204116101cf57600054604051632474521560e21b81527feefb95e842a3287179d933b4460be539a1d5af11aa8b325bb45c5c8dc92de4ed60048201523360248201526001600160a01b039091169190602081604481865afa90811561087557600091610a83575b50604051632474521560e21b8152600080516020612350833981519152600482015233602482015290602082604481875afa8015610875576104ba92600091610a64575b508115610a5c575b50612166565b6104c58415156121b2565b6104d083151561212a565b6104db8115156121ef565b8360005260046020526104f960ff600a60406000200154161561222e565b82600052600660205261051460ff604060002054161561226d565b6001546001600160a01b03168015610a17576002549283156109dc57602060449160405192838092632474521560e21b825260008051602061235083398151915260048301523360248301525afa908115610875576000916109bd575b50156109895761016435906101e4359382156109445785610184350361090e576101c4356101a435106108d757840361089b57604080516334baeab960e01b81529190606460048401378160a46000604483015b60028210610881575050506101a481602093604061012460c484013760a06101646101048401375afa90811561087557600091610846575b501561080c57846040519261061184612079565b81845260208401938685526040810191825260608101958487526080820194855260a0820190815260c0820133815260e0830190338252610100840160018152610120850191600083526101408601946001865261016087019960018b5261018088019c60008e526101a089019860008a526101c081019a428c526101e082019c60018e52600052600460205260406000209e8f925183555160018301555190600201555160038d01555160048c01555160058b0155600160a01b6001900390511660068a0190600160a01b60019003166001600160601b0360a01b8254161790556007890192600160a01b6001900390600160a01b60019003905116166001600160601b0360a01b84541617835551600681101561037e576107349083612055565b51600681101561037e576107b798600a976107959461075560ff9486612031565b5184549151925160ff60c01b1961ffff60b01b19909316911515851660b01b91909117921515841660b81b9290921716911660c01b60ff60c01b16179055565b51600885015551600984015551151591019060ff801983541691151516179055565b8060005260056020526107ce8260406000206122d8565b604051916001835260016020840152600160408401527f37456a869538f797717c55251e3c7e8ca8d2de18bedf4a2eaae12affc2f2efc060603394a4005b60405162461bcd60e51b81526020600482015260126024820152710496e76616c696420696d706f7274205a4b560741b6044820152606490fd5b610868915060203d60201161086e575b61086081836120ac565b8101906120da565b866105fd565b503d610856565b6040513d6000823e3d90fd5b8293506040818160019495819437019301910184926105c5565b60405162461bcd60e51b8152602060048201526014602482015273092dae0dee4e840e4dedee840dad2e6dac2e8c6d60631b6044820152606490fd5b60405162461bcd60e51b815260206004820152600f60248201526e159858d8da5b9948195e1c1a5c9959608a1b6044820152606490fd5b60405162461bcd60e51b815260206004820152600e60248201526d084c2e8c6d040dad2e6dac2e8c6d60931b6044820152606490fd5b60405162461bcd60e51b815260206004820152601d60248201527f496e76616c696420696d706f727420646f6320636f6d6d69746d656e740000006044820152606490fd5b60405162461bcd60e51b815260206004820152600c60248201526b2737ba1034b6b837b93a32b960a11b6044820152606490fd5b6109d6915060203d60201161086e5761086081836120ac565b86610571565b60405162461bcd60e51b8152602060048201526013602482015272135a5cdcda5b99c81a5b5c1bdc9d081c9bdbdd606a1b6044820152606490fd5b60405162461bcd60e51b815260206004820152601760248201527f4d697373696e6720696d706f72742076657269666965720000000000000000006044820152606490fd5b9050866104b4565b610a7d915060203d60201161086e5761086081836120ac565b876104ac565b610a9c915060203d60201161086e5761086081836120ac565b85610468565b346101cf5760203660031901126101cf576004356044602060018060a01b036000541660405192838092632474521560e21b8252600060048301523360248301525afa801561087557610afd91600091610b6c575b506120f2565b8015610b3157600254816002557f2b4c679ad680af4ef496afd7c5704dd079259d6f6b02999967901cddd322c39e600080a3005b60405162461bcd60e51b8152602060048201526013602482015272125b9d985b1a59081a5b5c1bdc9d081c9bdbdd606a1b6044820152606490fd5b610b85915060203d60201161086e5761086081836120ac565b83610af7565b346101cf5760203660031901126101cf57600435610baa81151561212a565b6000526006602052602060ff604060002054166040519015158152f35b346101cf5760003660031901126101cf57602060405160048152f35b346101cf5760403660031901126101cf57600435602435906044602060018060a01b036000541660405192838092632474521560e21b82527f53790c0a8b785aa2d322b9af6deababb51631b04fecccd73685fd13875f5571f60048301523360248301525afa90811561087557600091610dfa575b5015610dbe57610c6981151561212a565b610c74821515611fb5565b80600052600660205260ff60406000205416610d80578060005260056020526040600020805415610d4d576000828152600660205260408120805460ff191660011790555b8154811015610d1e5780610ccf600192846122aa565b90549060031b1c6000526004602052846008604060002060078101610cfb60ff825460a01c1682612031565b805464ff000000ff60a01b191660c287901b17600560a01b179055015501610cb9565b5060207fe1cf5d3437dde2dfd548826712c4a87c45a61df76e2b435d2dd50bf9c76bcec19154604051908152a3005b60405162461bcd60e51b815260206004820152600b60248201526a08adae0e8f240c4c2e8c6d60ab1b6044820152606490fd5b60405162461bcd60e51b815260206004820152601660248201527510985d18da08185b1c9958591e481c9958d85b1b195960521b6044820152606490fd5b60405162461bcd60e51b81526020600482015260146024820152734e6f7420726563616c6c20617574686f7269747960601b6044820152606490fd5b610e13915060203d60201161086e5761086081836120ac565b83610c58565b346101cf5760203660031901126101cf57600435610e4260018060a01b03600354163314611f73565b806000526004602052610e5f60ff600a6040600020015416611f33565b8060005260046020526007604060002001805460ff8160a01c1691600683101561037e5760ff602092610eb560027fe6c133bf403e8d8a108a24bdc0490d22c34a8e52dcebaab73161bc8d1e7bf7fe9614612312565b60a81c1690610ec48282612055565b805460ff60a81b1916600160a91b17905560405190610ee4908290611ee2565ba2005b346101cf5760a03660031901126101cf5760443560243560043560643560843567ffffffffffffffff81116101cf57610f24903690600401611eef565b600054604051632474521560e21b81527feefb95e842a3287179d933b4460be539a1d5af11aa8b325bb45c5c8dc92de4ed60048201523360248201529692506001600160a01b0316602087604481845afa9687156108755760009761130d575b50604051632474521560e21b8152600080516020612350833981519152600482015233602482015290602082604481845afa91821561087557604498602093610fdc926000916112f0575b5081156112e85750612166565b610fe78615156121b2565b610ff287151561212a565b610ffd8415156121ef565b856000526004825261101a60ff600a60406000200154161561222e565b866000526006825261103460ff604060002054161561226d565b604051632474521560e21b8152600080516020612350833981519152600482015233602482015297889182905afa958615610875576000966112c3575b50600092919086611228575b506040519261108b84612079565b848452846020850192878452604086019081526060860194855260808601956000875260a081019960008b5260c0820133815260e08301903382526101008401600181526101208501916000835261014086019415159e8f865261016087019915159c8d8b5261018088019c60008e526101a089019860008a526101c081019a428c526101e082019c60018e52600052600460205260406000209e8f925183555160018301555190600201555160038d01555160048c01555160058b0155600160a01b6001900390511660068a0190600160a01b60019003166001600160601b0360a01b8254161790556007890192600160a01b6001900390600160a01b60019003905116166001600160601b0360a01b84541617835551600681101561037e576111b69083612055565b51600681101561037e576111d798600a976107959461075560ff9486612031565b8260005260056020526111ee8260406000206122d8565b6040519384526020840152600160408401527f37456a869538f797717c55251e3c7e8ca8d2de18bedf4a2eaae12affc2f2efc060603394a4005b909250811590811591611289578161127f575b501561124a576001918661107d565b60405162461bcd60e51b815260206004820152600d60248201526c24b73b30b634b210383937b7b360991b6044820152606490fd5b905015158661123b565b60405162461bcd60e51b81526020600482015260126024820152714d697373696e6720696d706f727420646f6360701b6044820152606490fd5b6112df919392965060203d60201161086e5761086081836120ac565b94909186611071565b90508a6104b4565b6113079150853d871161086e5761086081836120ac565b8b610fcf565b61132791975060203d60201161086e5761086081836120ac565b9587610f84565b346101cf5760003660031901126101cf57602060405160038152f35b346101cf5760203660031901126101cf57611363611f1d565b60008054604051632474521560e21b81526004810192909252336024830152602090829060449082906001600160a01b03165afa8015610875576113ae91600091610b6c57506120f2565b6001600160a01b0316801561140157600380546001600160a01b0319811683179091556001600160a01b03167f5e617a8cc7911757e18bee1b0d3387d2c5727d5976a34c96901217f799b5f290600080a3005b60405162461bcd60e51b815260206004820152601760248201527f496e76616c6964207472616e73666572206c65646765720000000000000000006044820152606490fd5b346101cf5760003660031901126101cf5760206040517feefb95e842a3287179d933b4460be539a1d5af11aa8b325bb45c5c8dc92de4ed8152f35b346101cf5760203660031901126101cf576004356000526006602052602060ff604060002054166040519015158152f35b346101cf5760003660031901126101cf57602060405160018152f35b346101cf5760003660031901126101cf576001546040516001600160a01b039091168152602090f35b346101cf5760203660031901126101cf5760043561151681151561212a565b60005260056020526020604060002054604051908152f35b346101cf5760003660031901126101cf5760206040516000805160206123508339815191528152f35b346101cf5760203660031901126101cf57604060043561157881151561212a565b80600052600660205260ff8260002054169060005260056020528160002054825191151582526020820152f35b346101cf5760003660031901126101cf5760206040517f53790c0a8b785aa2d322b9af6deababb51631b04fecccd73685fd13875f5571f8152f35b346101cf5760203660031901126101cf5760043580600052600460205261161160ff600a6040600020015416611f33565b6000526004602052602060ff60076040600020015460a01c166116376040518092611ee2565bf35b346101cf5760003660031901126101cf576020600254604051908152f35b346101cf5760203660031901126101cf576004356000526004602052602060ff600a60406000200154166040519015158152f35b346101cf5760203660031901126101cf576116a4611f1d565b60008054604051632474521560e21b81526004810192909252336024830152602090829060449082906001600160a01b03165afa8015610875576116ef91600091610b6c57506120f2565b6001600160a01b0316801561174257600180546001600160a01b0319811683179091556001600160a01b03167f79e4fc45febd3d378fabefb9700ba0a84df3b6130402f974e27b6140d852ae3e600080a3005b60405162461bcd60e51b815260206004820152601760248201527f496e76616c696420696d706f72742076657269666965720000000000000000006044820152606490fd5b346101cf5760203660031901126101cf576004358060005260046020526117b860ff600a6040600020015416611f33565b6000526004602052602060ff60076040600020015460b01c166040519015158152f35b346101cf5760403660031901126101cf5760243567ffffffffffffffff81116101cf5761180e6020913690600401611eef565b6004351515915081611826575b506040519015158152f35b905015158261181b565b346101cf5760003660031901126101cf576003546040516001600160a01b039091168152602090f35b346101cf5760203660031901126101cf5760043580600052600460205261188a60ff600a6040600020015416611f33565b6000526004602052602060ff60076040600020015460b81c166040519015158152f35b346101cf5760203660031901126101cf576004358060005260046020526118de60ff600a6040600020015416611f33565b6000526004602052602060018060a01b0360076040600020015416604051908152f35b346101cf5760203660031901126101cf5760043560006101e060405161192681612079565b8281528260208201528260408201528260608201528260808201528260a08201528260c08201528260e08201528261010082015282610120820152826101408201528261016082015282610180820152826101a0820152826101c082015201528060005260046020526119a360ff600a6040600020015416611f33565b600052600460205261020060406000206101e06040516119c281612079565b82548152600183015492602082019384526002810154604083019081526003820154606084019081526004830154906080850191825260058401549260a0860193845260ff600a60018060a01b036006880154169660c0890197885282600782015460018060a01b03811660e08c0152611a45828260a01c166101008d016120ce565b611a58828260a81c166101208d016120ce565b818160b01c1615156101408c0152818160b81c1615156101608c015260c01c166101808a015260088101546101a08a015260098101546101c08a015201541615158787015260405197865189525160208901525160408801525160608701525160808601525160a085015260018060a01b0390511660c084015260018060a01b0360e08201511660e0840152611af8610100820151610100850190611ee2565b611b0c610120820151610120850190611ee2565b6101408101511515610140840152610160810151151561016084015260ff610180820151166101808401526101a08101516101a08401526101c08101516101c0840152015115156101e0820152f35b346101cf5760203660031901126101cf57600435611b8460018060a01b03600354163314611f73565b806000526004602052611ba160ff600a6040600020015416611f33565b806000526004602052600760406000200160ff815460a01c16600681101561037e57611bd06005821415611ff2565b60048114611c7657600181148015611c6c575b15611c3657611bf29082612031565b805460ff60a01b198116600160a11b179091556001600160a01b0316907fb118605e0d0aa2bdb49cd93946627aba675b007e5c7aa1e60009705493a64b99600080a3005b60405162461bcd60e51b815260206004820152600e60248201526d496e76616c69642073746174757360901b6044820152606490fd5b5060038114611be3565b60405162461bcd60e51b815260206004820152600f60248201526e141c9bd91d58dd08199b1859d9d959608a1b6044820152606490fd5b346101cf5760203660031901126101cf57600435806000526004602052611cde60ff600a6040600020015416611f33565b6000526004602052602060ff60076040600020015460c01c16604051908152f35b346101cf5760003660031901126101cf57602060405160028152f35b346101cf5760603660031901126101cf5760043560243560ff8116918282036101cf5760443591611d5760018060a01b03600354163314611f73565b816000526004602052611d7460ff600a6040600020015416611f33565b611d7f831515611fb5565b8315611e33578160005260046020526040600020600781019460ff865460a01c1695600687101561037e576008602093611e177fe6b3b069ebd03d4dd37f949e07f7582a911d05350ab7480553325fb2909d8c58968994611de360058d1415611ff2565b60009b60048103611e23575b50805464ff000000ff60a01b191660c09290921b60ff60c01b1691909117600160a21b179055565b0155604051908152a380f35b611e2d9082612031565b8c611def565b60405162461bcd60e51b8152602060048201526012602482015271125b9d985b1a59081c9a5cdac81b195d995b60721b6044820152606490fd5b346101cf5760003660031901126101cf576000546040516001600160a01b039091168152602090f35b346101cf5760203660031901126101cf57600435806000526004602052611ec760ff600a6040600020015416611f33565b60005260046020526020600860406000200154604051908152f35b90600682101561037e5752565b9181601f840112156101cf5782359167ffffffffffffffff83116101cf57602083818601950101116101cf57565b600435906001600160a01b03821682036101cf57565b15611f3a57565b60405162461bcd60e51b8152602060048201526011602482015270141c9bd91d58dd081b9bdd08199bdd5b99607a1b6044820152606490fd5b15611f7a57565b60405162461bcd60e51b81526020600482015260136024820152722737ba103a3930b739b332b9103632b233b2b960691b6044820152606490fd5b15611fbc57565b60405162461bcd60e51b815260206004820152600e60248201526d24b73b30b634b2103932b0b9b7b760911b6044820152606490fd5b15611ff957565b60405162461bcd60e51b815260206004820152601060248201526f141c9bd91d58dd081c9958d85b1b195960821b6044820152606490fd5b90600681101561037e57815460ff60a81b191660a89190911b60ff60a81b16179055565b90600681101561037e57815460ff60a01b191660a09190911b60ff60a01b16179055565b610200810190811067ffffffffffffffff82111761209657604052565b634e487b7160e01b600052604160045260246000fd5b90601f8019910116810190811067ffffffffffffffff82111761209657604052565b600682101561037e5752565b908160209103126101cf575180151581036101cf5790565b156120f957565b60405162461bcd60e51b81526020600482015260096024820152682737ba1030b236b4b760b91b6044820152606490fd5b1561213157565b60405162461bcd60e51b815260206004820152600d60248201526c092dcecc2d8d2c840c4c2e8c6d609b1b6044820152606490fd5b1561216d57565b60405162461bcd60e51b815260206004820152601c60248201527f4e6f74206d616e756661637475726572206f7220696d706f72746572000000006044820152606490fd5b156121b957565b60405162461bcd60e51b815260206004820152600e60248201526d125b9d985b1a59081cd95c9a585b60921b6044820152606490fd5b156121f657565b60405162461bcd60e51b815260206004820152601060248201526f496e76616c6964206d6574616461746160801b6044820152606490fd5b1561223557565b60405162461bcd60e51b815260206004820152601060248201526f111d5c1b1a58d85d19481cd95c9a585b60821b6044820152606490fd5b1561227457565b60405162461bcd60e51b815260206004820152600e60248201526d10985d18da081c9958d85b1b195960921b6044820152606490fd5b80548210156122c25760005260206000200190600090565b634e487b7160e01b600052603260045260246000fd5b805468010000000000000000811015612096576122fa916001820181556122aa565b819291549060031b91821b91600019901b1916179055565b1561231957565b60405162461bcd60e51b815260206004820152600e60248201526d139bdd081a5b881d1c985b9cda5d60921b6044820152606490fdfe9dd0c3bd9bb5e1c820c362d05d5cb38480246edb10ff416751bc3dcaccab86fea264697066735822122062441c90f51f0d80f57f638a24f9aae22dcf4209481c3e08987ab059b307461d64736f6c634300081c0033",
  "linkReferences": {},
  "deployedLinkReferences": {}
}