{
  "_format": "hh-sol-artifact-1",
  "contractName": "ProductRegistry",
  "sourceName": "contracts/ProductRegistry.sol",
  "abi": [
    {
      "inputs": [
        {
          "internalType": "address",
          "name": "accessControlAddress",
          "type": "address"
        }
      ],
      "stateMutability": "nonpayable",
      "type": "constructor"
    },
    {
      "anonymous": false,
      "inputs": [
        {
          "indexed": true,
          "internalType": "uint256",
          "name": "oldRoot",
          "type": "uint256"
        },
        {
          "indexed": true,
          "internalType": "uint256",
          "name": "newRoot",
          "type": "uint256"
        }
      ],
      "name": "ApprovedImportRootUpdated",
      "type": "event"
    },
    {
      "anonymous": false,
      "inputs": [
        {
          "indexed": true,
          "internalType": "bytes32",
          "name": "batchHash",
          "type": "bytes32"
        },
        {
          "indexed": true,
          "internalType": "bytes32",
          "name": "reasonHash",
          "type": "bytes32"
        },
        {
          "indexed": false,
          "internalType": "uint256",
          "name": "totalProducts",
          "type": "uint256"
        }
      ],
      "name": "BatchRecalled",
      "type": "event"
    },
    {
      "anonymous": false,
      "inputs": [
        {
          "indexed": true,
          "internalType": "bytes32",
          "name": "batchHash",
          "type": "bytes32"
        },
        {
          "indexed": false,
          "internalType": "bool",
          "name": "recalled",
          "type": "bool"
        },
        {
          "indexed": false,
          "internalType": "uint256",
          "name": "totalProducts",
          "type": "uint256"
        }
      ],
      "name": "BatchStatusChecked",
      "type": "event"
    },
    {
      "anonymous": false,
      "inputs": [
        {
          "indexed": true,
          "internalType": "address",
          "name": "oldVerifier",
          "type": "address"
        },
        {
          "indexed": true,
          "internalType": "address",
          "name": "newVerifier",
          "type": "address"
        }
      ],
      "name": "ImportVerifierUpdated",
      "type": "event"
    },
    {
      "anonymous": false,
      "inputs": [
        {
          "indexed": true,
          "internalType": "bytes32",
          "name": "serialID",
          "type": "bytes32"
        },
        {
          "indexed": false,
          "internalType": "uint8",
          "name": "riskLevel",
          "type": "uint8"
        },
        {
          "indexed": true,
          "internalType": "bytes32",
          "name": "reason",
          "type": "bytes32"
        }
      ],
      "name": "ProductFlagged",
      "type": "event"
    },
    {
      "anonymous": false,
      "inputs": [
        {
          "indexed": true,
          "internalType": "bytes32",
          "name": "serialID",
          "type": "bytes32"
        },
        {
          "indexed": true,
          "internalType": "address",
          "name": "currentOwner",
          "type": "address"
        }
      ],
      "name": "ProductMarkedInTransit",
      "type": "event"
    },
    {
      "anonymous": false,
      "inputs": [
        {
          "indexed": true,
          "internalType": "bytes32",
          "name": "serialID",
          "type": "bytes32"
        },
        {
          "indexed": true,
          "internalType": "bytes32",
          "name": "batchHash",
          "type": "bytes32"
        },
        {
          "indexed": true,
          "internalType": "address",
          "name": "owner",
          "type": "address"
        },
        {
          "indexed": false,
          "internalType": "bool",
          "name": "isImported",
          "type": "bool"
        },
        {
          "indexed": false,
          "internalType": "bool",
          "name": "zkpVerified",
          "type": "bool"
        },
        {
          "indexed": false,
          "internalType": "enum ProductRegistry.Status",
          "name": "status",
          "type": "uint8"
        }
      ],
      "name": "ProductRegistered",
      "type": "event"
    },
    {
      "anonymous": false,
      "inputs": [
        {
          "indexed": true,
          "internalType": "bytes32",
          "name": "serialID",
          "type": "bytes32"
        },
        {
          "indexed": true,
          "internalType": "address",
          "name": "oldOwner",
          "type": "address"
        },
        {
          "indexed": true,
          "internalType": "address",
          "name": "newOwner",
          "type": "address"
        }
      ],
      "name": "ProductTransferCompleted",
      "type": "event"
    },
    {
      "anonymous": false,
      "inputs": [
        {
          "indexed": true,
          "internalType": "bytes32",
          "name": "serialID",
          "type": "bytes32"
        },
        {
          "indexed": false,
          "internalType": "enum ProductRegistry.Status",
          "name": "revertedTo",
          "type": "uint8"
        }
      ],
      "name": "ProductTransferReverted",
      "type": "event"
    },
    {
      "anonymous": false,
      "inputs": [
        {
          "indexed": true,
          "internalType": "bytes32",
          "name": "serialID",
          "type": "bytes32"
        },
        {
          "indexed": true,
          "internalType": "address",
          "name": "clearedBy",
          "type": "address"
        }
      ],
      "name": "ProductUnflagged",
      "type": "event"
    },
    {
      "anonymous": false,
      "inputs": [
        {
          "indexed": true,
          "internalType": "address",
          "name": "oldLedger",
          "type": "address"
        },
        {
          "indexed": true,
          "internalType": "address",
          "name": "newLedger",
          "type": "address"
        }
      ],
      "name": "TransferLedgerUpdated",
      "type": "event"
    },
    {
      "inputs": [],
      "name": "DEFAULT_ADMIN_ROLE",
      "outputs": [
        {
          "internalType": "bytes32",
          "name": "",
          "type": "bytes32"
        }
      ],
      "stateMutability": "view",
      "type": "function"
    },
    {
      "inputs": [],
      "name": "IMPORTER_ROLE",
      "outputs": [
        {
          "internalType": "bytes32",
          "name": "",
          "type": "bytes32"
        }
      ],
      "stateMutability": "view",
      "type": "function"
    },
    {
      "inputs": [],
      "name": "MANUFACTURER_ROLE",
      "outputs": [
        {
          "internalType": "bytes32",
          "name": "",
          "type": "bytes32"
        }
      ],
      "stateMutability": "view",
      "type": "function"
    },
    {
      "inputs": [],
      "name": "RECALL_AUTHORITY_ROLE",
      "outputs": [
        {
          "internalType": "bytes32",
          "name": "",
          "type": "bytes32"
        }
      ],
      "stateMutability": "view",
      "type": "function"
    },
    {
      "inputs": [],
      "name": "RISK_CRITICAL",
      "outputs": [
        {
          "internalType": "uint8",
          "name": "",
          "type": "uint8"
        }
      ],
      "stateMutability": "view",
      "type": "function"
    },
    {
      "inputs": [],
      "name": "RISK_HIGH",
      "outputs": [
        {
          "internalType": "uint8",
          "name": "",
          "type": "uint8"
        }
      ],
      "stateMutability": "view",
      "type": "function"
    },
    {
      "inputs": [],
      "name": "RISK_LOW",
      "outputs": [
        {
          "internalType": "uint8",
          "name": "",
          "type": "uint8"
        }
      ],
      "stateMutability": "view",
      "type": "function"
    },
    {
      "inputs": [],
      "name": "RISK_MEDIUM",
      "outputs": [
        {
          "internalType": "uint8",
          "name": "",
          "type": "uint8"
        }
      ],
      "stateMutability": "view",
      "type": "function"
    },
    {
      "inputs": [],
      "name": "RISK_NONE",
      "outputs": [
        {
          "internalType": "uint8",
          "name": "",
          "type": "uint8"
        }
      ],
      "stateMutability": "view",
      "type": "function"
    },
    {
      "inputs": [],
      "name": "accessControl",
      "outputs": [
        {
          "internalType": "contract ISupplyChainAccessControl",
          "name": "",
          "type": "address"
        }
      ],
      "stateMutability": "view",
      "type": "function"
    },
    {
      "inputs": [],
      "name": "approvedImportRoot",
      "outputs": [
        {
          "internalType": "uint256",
          "name": "",
          "type": "uint256"
        }
      ],
      "stateMutability": "view",
      "type": "function"
    },
    {
      "inputs": [
        {
          "internalType": "bytes32",
          "name": "",
          "type": "bytes32"
        }
      ],
      "name": "batchRecallReasons",
      "outputs": [
        {
          "internalType": "bytes32",
          "name": "",
          "type": "bytes32"
        }
      ],
      "stateMutability": "view",
      "type": "function"
    },
    {
      "inputs": [
        {
          "internalType": "bytes32",
          "name": "serialID",
          "type": "bytes32"
        },
        {
          "internalType": "address",
          "name": "newOwner",
          "type": "address"
        }
      ],
      "name": "completeTransfer",
      "outputs": [],
      "stateMutability": "nonpayable",
      "type": "function"
    },
    {
      "inputs": [
        {
          "internalType": "bytes32",
          "name": "serialID",
          "type": "bytes32"
        },
        {
          "internalType": "uint8",
          "name": "riskLevel",
          "type": "uint8"
        },
        {
          "internalType": "bytes32",
          "name": "reason",
          "type": "bytes32"
        }
      ],
      "name": "flagProductFromLedger",
      "outputs": [],
      "stateMutability": "nonpayable",
      "type": "function"
    },
    {
      "inputs": [
        {
          "internalType": "bytes32",
          "name": "batchHash",
          "type": "bytes32"
        }
      ],
      "name": "getBatchSerials",
      "outputs": [
        {
          "internalType": "bytes32[]",
          "name": "",
          "type": "bytes32[]"
        }
      ],
      "stateMutability": "view",
      "type": "function"
    },
    {
      "inputs": [
        {
          "internalType": "bytes32",
          "name": "batchHash",
          "type": "bytes32"
        }
      ],
      "name": "getBatchSize",
      "outputs": [
        {
          "internalType": "uint256",
          "name": "",
          "type": "uint256"
        }
      ],
      "stateMutability": "view",
      "type": "function"
    },
    {
      "inputs": [
        {
          "internalType": "bytes32",
          "name": "batchHash",
          "type": "bytes32"
        }
      ],
      "name": "getBatchSummary",
      "outputs": [
        {
          "internalType": "bool",
          "name": "recalled",
          "type": "bool"
        },
        {
          "internalType": "uint256",
          "name": "totalProducts",
          "type": "uint256"
        }
      ],
      "stateMutability": "view",
      "type": "function"
    },
    {
      "inputs": [
        {
          "internalType": "bytes32",
          "name": "serialID",
          "type": "bytes32"
        }
      ],
      "name": "getCurrentOwner",
      "outputs": [
        {
          "internalType": "address",
          "name": "",
          "type": "address"
        }
      ],
      "stateMutability": "view",
      "type": "function"
    },
    {
      "inputs": [
        {
          "internalType": "bytes32",
          "name": "serialID",
          "type": "bytes32"
        }
      ],
      "name": "getFlagReason",
      "outputs": [
        {
          "internalType": "bytes32",
          "name": "",
          "type": "bytes32"
        }
      ],
      "stateMutability": "view",
      "type": "function"
    },
    {
      "inputs": [
        {
          "internalType": "bytes32",
          "name": "serialID",
          "type": "bytes32"
        }
      ],
      "name": "getProduct",
      "outputs": [
        {
          "components": [
            {
              "internalType": "bytes32",
              "name": "serialID",
              "type": "bytes32"
            },
            {
              "internalType": "bytes32",
              "name": "batchHash",
              "type": "bytes32"
            },
            {
              "internalType": "bytes32",
              "name": "metadataHash",
              "type": "bytes32"
            },
            {
              "internalType": "bytes32",
              "name": "importDocHash",
              "type": "bytes32"
            },
            {
              "internalType": "uint256",
              "name": "importDocCommitment",
              "type": "uint256"
            },
            {
              "internalType": "uint256",
              "name": "approvedImportRoot",
              "type": "uint256"
            },
            {
              "internalType": "address",
              "name": "origin",
              "type": "address"
            },
            {
              "internalType": "address",
              "name": "currentOwner",
              "type": "address"
            },
            {
              "internalType": "enum ProductRegistry.Status",
              "name": "status",
              "type": "uint8"
            },
            {
              "internalType": "enum ProductRegistry.Status",
              "name": "previousStatus",
              "type": "uint8"
            },
            {
              "internalType": "bool",
              "name": "isImported",
              "type": "bool"
            },
            {
              "internalType": "bool",
              "name": "zkpVerified",
              "type": "bool"
            },
            {
              "internalType": "uint8",
              "name": "riskLevel",
              "type": "uint8"
            },
            {
              "internalType": "bytes32",
              "name": "flagReason",
              "type": "bytes32"
            },
            {
              "internalType": "uint256",
              "name": "registeredAt",
              "type": "uint256"
            },
            {
              "internalType": "bool",
              "name": "exists",
              "type": "bool"
            }
          ],
          "internalType": "struct ProductRegistry.Product",
          "name": "",
          "type": "tuple"
        }
      ],
      "stateMutability": "view",
      "type": "function"
    },
    {
      "inputs": [
        {
          "internalType": "bytes32",
          "name": "serialID",
          "type": "bytes32"
        }
      ],
      "name": "getRiskLevel",
      "outputs": [
        {
          "internalType": "uint8",
          "name": "",
          "type": "uint8"
        }
      ],
      "stateMutability": "view",
      "type": "function"
    },
    {
      "inputs": [
        {
          "internalType": "bytes32",
          "name": "serialID",
          "type": "bytes32"
        }
      ],
      "name": "getStatus",
      "outputs": [
        {
          "internalType": "enum ProductRegistry.Status",
          "name": "",
          "type": "uint8"
        }
      ],
      "stateMutability": "view",
      "type": "function"
    },
    {
      "inputs": [],
      "name": "importVerifier",
      "outputs": [
        {
          "internalType": "contract IImportZKPVerifier",
          "name": "",
          "type": "address"
        }
      ],
      "stateMutability": "view",
      "type": "function"
    },
    {
      "inputs": [
        {
          "internalType": "bytes32",
          "name": "batchHash",
          "type": "bytes32"
        }
      ],
      "name": "isBatchRecalled",
      "outputs": [
        {
          "internalType": "bool",
          "name": "",
          "type": "bool"
        }
      ],
      "stateMutability": "view",
      "type": "function"
    },
    {
      "inputs": [
        {
          "internalType": "bytes32",
          "name": "serialID",
          "type": "bytes32"
        }
      ],
      "name": "isImportedProduct",
      "outputs": [
        {
          "internalType": "bool",
          "name": "",
          "type": "bool"
        }
      ],
      "stateMutability": "view",
      "type": "function"
    },
    {
      "inputs": [
        {
          "internalType": "bytes32",
          "name": "serialID",
          "type": "bytes32"
        }
      ],
      "name": "isZkpVerified",
      "outputs": [
        {
          "internalType": "bool",
          "name": "",
          "type": "bool"
        }
      ],
      "stateMutability": "view",
      "type": "function"
    },
    {
      "inputs": [
        {
          "internalType": "bytes32",
          "name": "serialID",
          "type": "bytes32"
        }
      ],
      "name": "markInTransit",
      "outputs": [],
      "stateMutability": "nonpayable",
      "type": "function"
    },
    {
      "inputs": [
        {
          "internalType": "bytes32",
          "name": "serialID",
          "type": "bytes32"
        }
      ],
      "name": "productExists",
      "outputs": [
        {
          "internalType": "bool",
          "name": "",
          "type": "bool"
        }
      ],
      "stateMutability": "view",
      "type": "function"
    },
    {
      "inputs": [
        {
          "internalType": "bytes32",
          "name": "batchHash",
          "type": "bytes32"
        },
        {
          "internalType": "bytes32",
          "name": "reasonHash",
          "type": "bytes32"
        }
      ],
      "name": "recallBatch",
      "outputs": [],
      "stateMutability": "nonpayable",
      "type": "function"
    },
    {
      "inputs": [
        {
          "internalType": "bytes32",
          "name": "",
          "type": "bytes32"
        }
      ],
      "name": "recalledBatches",
      "outputs": [
        {
          "internalType": "bool",
          "name": "",
          "type": "bool"
        }
      ],
      "stateMutability": "view",
      "type": "function"
    },
    {
      "inputs": [
        {
          "internalType": "bytes32",
          "name": "serialID",
          "type": "bytes32"
        },
        {
          "internalType": "bytes32",
          "name": "batchHash",
          "type": "bytes32"
        },
        {
          "internalType": "bytes32",
          "name": "metadataHash",
          "type": "bytes32"
        },
        {
          "internalType": "uint256[2]",
          "name": "a",
          "type": "uint256[2]"
        },
        {
          "internalType": "uint256[2][2]",
          "name": "b",
          "type": "uint256[2][2]"
        },
        {
          "internalType": "uint256[2]",
          "name": "c",
          "type": "uint256[2]"
        },
        {
          "internalType": "uint256[5]",
          "name": "input",
          "type": "uint256[5]"
        }
      ],
      "name": "registerImportedProductZK",
      "outputs": [],
      "stateMutability": "nonpayable",
      "type": "function"
    },
    {
      "inputs": [
        {
          "internalType": "bytes32",
          "name": "serialID",
          "type": "bytes32"
        },
        {
          "internalType": "bytes32",
          "name": "batchHash",
          "type": "bytes32"
        },
        {
          "internalType": "bytes32",
          "name": "metadataHash",
          "type": "bytes32"
        },
        {
          "internalType": "bytes32",
          "name": "importDocHash",
          "type": "bytes32"
        },
        {
          "internalType": "bytes",
          "name": "zkpProof",
          "type": "bytes"
        }
      ],
      "name": "registerProduct",
      "outputs": [],
      "stateMutability": "nonpayable",
      "type": "function"
    },
    {
      "inputs": [
        {
          "internalType": "bytes32",
          "name": "serialID",
          "type": "bytes32"
        }
      ],
      "name": "revertTransit",
      "outputs": [],
      "stateMutability": "nonpayable",
      "type": "function"
    },
    {
      "inputs": [
        {
          "internalType": "uint256",
          "name": "newApprovedImportRoot",
          "type": "uint256"
        }
      ],
      "name": "setApprovedImportRoot",
      "outputs": [],
      "stateMutability": "nonpayable",
      "type": "function"
    },
    {
      "inputs": [
        {
          "internalType": "address",
          "name": "newImportVerifier",
          "type": "address"
        }
      ],
      "name": "setImportVerifier",
      "outputs": [],
      "stateMutability": "nonpayable",
      "type": "function"
    },
    {
      "inputs": [
        {
          "internalType": "address",
          "name": "newTransferLedger",
          "type": "address"
        }
      ],
      "name": "setTransferLedger",
      "outputs": [],
      "stateMutability": "nonpayable",
      "type": "function"
    },
    {
      "inputs": [],
      "name": "transferLedger",
      "outputs": [
        {
          "internalType": "address",
          "name": "",
          "type": "address"
        }
      ],
      "stateMutability": "view",
      "type": "function"
    },
    {
      "inputs": [
        {
          "internalType": "bytes32",
          "name": "serialID",
          "type": "bytes32"
        }
      ],
      "name": "unflagProduct",
      "outputs": [],
      "stateMutability": "nonpayable",
      "type": "function"
    },
    {
      "inputs": [
        {
          "internalType": "bytes32",
          "name": "importDocHash",
          "type": "bytes32"
        },
        {
          "internalType": "bytes",
          "name": "zkpProof",
          "type": "bytes"
        }
      ],
      "name": "verifyProof",
      "outputs": [
        {
          "internalType": "bool",
          "name": "",
          "type": "bool"
        }
      ],
      "stateMutability": "pure",
      "type": "function"
    }
  ],
  "bytecode": "0x60803460ba57601f61264638819003918201601f19168301916001600160401b0383118484101760bf5780849260209460405283398101031260ba57516001600160a01b0381169081900360ba578015607557600080546001600160a01b03191691909117905560405161257090816100d68239f35b60405162461bcd60e51b815260206004820152601660248201527f496e76616c69642061636365737320636f6e74726f6c000000000000000000006044820152606490fd5b600080fd5b634e487b7160e01b600052604160045260246000fdfe6080604052600436101561001257600080fd5b60003560e01c8063075ad85214611f1f57806313007d5514611ef65780631c1ec2fe14611db95780632d29abdc14611d9d57806337a4cd4d14611d4b57806338814ac914611bf45780633a20e9df146119475780633aea18cc146118f357806343ce8fe51461189f57806344701ea514611876578063472286df1461170c57806348203b07146116b857806349914382146116645780634bce8fbb1461156e5780634d4721161461153a578063587d80cb1461151c5780635de28ae0146114ef578063640ab953146114c65780636884037d146114785780636bea25e31461144c5780636fa2a0671461142357806377347c96146113ec5780638053194e146113c35780638acb698a146113a75780639065698314611376578063965288b01461134d57806399318bf7146112575780639aa90ca71461123b578063a217fddf146101c9578063acacc71c14610e1b578063bd77980914610d4d578063bdb3317214610bb8578063be23e86614610b9c578063c8bda60d14610b60578063d177d75b14610a77578063e393461a146103df578063e411013b146102a1578063f590ca82146101ea5763f848dfd3146101c957600080fd5b346101e55760003660031901126101e557602060405160008152f35b600080fd5b346101e55760203660031901126101e5576004356102098115156122b3565b600052600560205260406000206040518060208354918281520190819360005260206000209060005b81811061028b5750505081610248910382612150565b6040519182916020830190602084525180915260408301919060005b818110610272575050500390f35b8251845285945060209384019390920191600101610264565b8254845260209093019260019283019201610232565b346101e55760403660031901126101e5576024356001600160a01b03811690600435908290036101e5576102e060018060a01b03600354163314611ffb565b8060005260046020526102fd60ff600a6040600020015416611fbb565b81156103aa57806000526004602052600760406000200180549060ff8260a01c1660068110156103945760026103339114612434565b805460ff60a01b1960ff60a81b198616600161ff0160a01b031990921691909117600160a91b1716600360a01b1790556001600160a01b0316907fb729a62a473d48aaa11caa7e41dcd94d7181b7821656890d7df33518f54e234e600080a4005b634e487b7160e01b600052602160045260246000fd5b60405162461bcd60e51b815260206004820152600d60248201526c24b73b30b634b21037bbb732b960991b6044820152606490fd5b346101e5576102003660031901126101e5576004356024356044353660a4116101e55736610124116101e55736610164116101e55736610204116101e557600054604051632474521560e21b81526000805160206124bb83398151915260048201523360248201526001600160a01b039091169190602081604481865afa90811561085057600091610a58575b50604051632474521560e21b815260008051602061251b833981519152600482015233602482015290602082604481875afa8015610850576104be92600091610a39575b508115610a31575b506122ef565b6104c984151561233a565b6104d48315156122b3565b6104df811515612377565b8360005260046020526104fd60ff600a6040600020015416156123b6565b82600052600660205261051860ff60406000205416156121da565b6001546001600160a01b031680156109f2576002549283156109b757602060449160405192838092632474521560e21b825260008051602061251b83398151915260048301523360248301525afa90811561085057600091610998575b50156109645761016435906101e43593821561091f578561018435036108e9576101c4356101a435106108b257840361087657604080516334baeab960e01b81529190606460048401378160a46000604483015b6002821061085c575050506101a481602093604061012460c484013760a06101646101048401375afa90811561085057600091610821575b50156107e75784604051926106158461211e565b81845260208401938685526040810191825260608101958487526080820194855260a0820190815260c0820133815260e0830190338252610100840160018152610120850191600083526101408601946001865261016087019960018b5261018088019c60008e526101a089019860008a526101c081019a428c526101e082019c60018e52600052600460205260406000209e8f925183555160018301555190600201555160038d01555160048c01555160058b0155600160a01b6001900390511660068a0190600160a01b6001900316600160a01b60019003198254161790556007890192600160a01b6001900390600160a01b6001900390511616600160a01b60019003198454161783555160068110156103945761073690836120dd565b516006811015610394576107a498600a976107829461075760ff94866120b9565b518454915161ffff60b01b19909216901515841660b01b17901515831660b81b178355511690612101565b51600885015551600984015551151591019060ff801983541691151516179055565b8060005260056020526107bb8260406000206123f5565b604051916001835260016020840152600160408401526000805160206124fb83398151915260603394a4005b60405162461bcd60e51b81526020600482015260126024820152710496e76616c696420696d706f7274205a4b560741b6044820152606490fd5b610843915060203d602011610849575b61083b8183612150565b81019061217f565b86610601565b503d610831565b6040513d6000823e3d90fd5b8293506040818160019495819437019301910184926105c9565b60405162461bcd60e51b8152602060048201526014602482015273092dae0dee4e840e4dedee840dad2e6dac2e8c6d60631b6044820152606490fd5b60405162461bcd60e51b815260206004820152600f60248201526e159858d8da5b9948195e1c1a5c9959608a1b6044820152606490fd5b60405162461bcd60e51b815260206004820152600e60248201526d084c2e8c6d040dad2e6dac2e8c6d60931b6044820152606490fd5b60405162461bcd60e51b815260206004820152601d60248201527f496e76616c696420696d706f727420646f6320636f6d6d69746d656e740000006044820152606490fd5b60405162461bcd60e51b815260206004820152600c60248201526b2737ba1034b6b837b93a32b960a11b6044820152606490fd5b6109b1915060203d6020116108495761083b8183612150565b86610575565b60405162461bcd60e51b8152602060048201526013602482015272135a5cdcda5b99c81a5b5c1bdc9d081c9bdbdd606a1b6044820152606490fd5b60405162461bcd60e51b815260206004820152601760248201527626b4b9b9b4b7339034b6b837b93a103b32b934b334b2b960491b6044820152606490fd5b9050866104b8565b610a52915060203d6020116108495761083b8183612150565b876104b0565b610a71915060203d6020116108495761083b8183612150565b8561046c565b346101e55760203660031901126101e5576004356044602060018060a01b036000541660405192838092632474521560e21b8252600060048301523360248301525afa801561085057610ad291600091610b41575b50612217565b8015610b0657600254816002557f2b4c679ad680af4ef496afd7c5704dd079259d6f6b02999967901cddd322c39e600080a3005b60405162461bcd60e51b8152602060048201526013602482015272125b9d985b1a59081a5b5c1bdc9d081c9bdbdd606a1b6044820152606490fd5b610b5a915060203d6020116108495761083b8183612150565b83610acc565b346101e55760203660031901126101e557600435610b7f8115156122b3565b6000526006602052602060ff604060002054166040519015158152f35b346101e55760003660031901126101e557602060405160048152f35b346101e55760403660031901126101e557600435602435906044602060018060a01b036000541660405192838092632474521560e21b82526000805160206124db83398151915260048301523360248301525afa801561085057610c2491600091610d2e575b50612197565b610c2f8115156122b3565b610c3a82151561203d565b80600052600660205260ff60406000205416610cf05780600052600560205260406000205415610cbd576000818152600660209081526040808320805460ff191660011790556007825280832085905560058252918290205491519182527fe1cf5d3437dde2dfd548826712c4a87c45a61df76e2b435d2dd50bf9c76bcec191a3005b60405162461bcd60e51b815260206004820152600b60248201526a08adae0e8f240c4c2e8c6d60ab1b6044820152606490fd5b60405162461bcd60e51b815260206004820152601660248201527510985d18da08185b1c9958591e481c9958d85b1b195960521b6044820152606490fd5b610d47915060203d6020116108495761083b8183612150565b84610c1e565b346101e55760203660031901126101e557600435610d7660018060a01b03600354163314611ffb565b806000526004602052610d9360ff600a6040600020015416611fbb565b8060005260046020526007604060002001805460ff8160a01c169160068310156103945760ff602092610de960027fe6c133bf403e8d8a108a24bdc0490d22c34a8e52dcebaab73161bc8d1e7bf7fe9614612434565b60a81c1690610df882826120dd565b805460ff60a81b1916600160a91b17905560405190610e18908290611f6b565ba2005b346101e55760a03660031901126101e5576044356024356004356064356084356001600160401b0381116101e557610e57903690600401611f78565b600054604051632474521560e21b81526000805160206124bb83398151915260048201523360248201529692506001600160a01b0316602087604481845afa9687156108505760009761121a575b50604051632474521560e21b815260008051602061251b833981519152600482015233602482015290602082604481845afa91821561085057604498602093610efd926000916111fd575b5081156111f557506122ef565b610f0886151561233a565b610f138715156122b3565b610f1e841515612377565b8560005260048252610f3b60ff600a6040600020015416156123b6565b8660005260068252610f5560ff60406000205416156121da565b604051632474521560e21b815260008051602061251b833981519152600482015233602482015297889182905afa958615610850576000966111d0575b50600092919086611135575b5060405192610fac8461211e565b848452846020850192878452604086019081526060860194855260808601956000875260a081019960008b5260c0820133815260e08301903382526101008401600181526101208501916000835261014086019415159e8f865261016087019915159c8d8b5261018088019c60008e526101a089019860008a526101c081019a428c526101e082019c60018e52600052600460205260406000209e8f925183555160018301555190600201555160038d01555160048c01555160058b0155600160a01b6001900390511660068a0190600160a01b6001900316600160a01b60019003198254161790556007890192600160a01b6001900390600160a01b6001900390511616600160a01b6001900319845416178355516006811015610394576110d590836120dd565b516006811015610394576110f698600a976107829461075760ff94866120b9565b82600052600560205261110d8260406000206123f5565b6040519384526020840152600160408401526000805160206124fb83398151915260603394a4005b909250811590811591611196578161118c575b50156111575760019186610f9e565b60405162461bcd60e51b815260206004820152600d60248201526c24b73b30b634b210383937b7b360991b6044820152606490fd5b9050151586611148565b60405162461bcd60e51b81526020600482015260126024820152714d697373696e6720696d706f727420646f6360701b6044820152606490fd5b6111ec919392965060203d6020116108495761083b8183612150565b94909186610f92565b90508a6104b8565b6112149150853d87116108495761083b8183612150565b8b610ef0565b61123491975060203d6020116108495761083b8183612150565b9587610ea5565b346101e55760003660031901126101e557602060405160038152f35b346101e55760203660031901126101e557611270611fa5565b60008054604051632474521560e21b81526004810192909252336024830152602090829060449082906001600160a01b03165afa8015610850576112bb91600091610b415750612217565b6001600160a01b0316801561130e57600380546001600160a01b0319811683179091556001600160a01b03167f5e617a8cc7911757e18bee1b0d3387d2c5727d5976a34c96901217f799b5f290600080a3005b60405162461bcd60e51b815260206004820152601760248201527624b73b30b634b2103a3930b739b332b9103632b233b2b960491b6044820152606490fd5b346101e55760003660031901126101e55760206040516000805160206124bb8339815191528152f35b346101e55760203660031901126101e5576004356000526006602052602060ff604060002054166040519015158152f35b346101e55760003660031901126101e557602060405160018152f35b346101e55760003660031901126101e5576001546040516001600160a01b039091168152602090f35b346101e55760203660031901126101e55760043561140b8115156122b3565b60005260056020526020604060002054604051908152f35b346101e55760003660031901126101e557602060405160008051602061251b8339815191528152f35b346101e55760203660031901126101e55760043560005260076020526020604060002054604051908152f35b346101e55760203660031901126101e55760406004356114998115156122b3565b80600052600660205260ff8260002054169060005260056020528160002054825191151582526020820152f35b346101e55760003660031901126101e55760206040516000805160206124db8339815191528152f35b346101e55760203660031901126101e557602061150d60043561224f565b61151a6040518092611f6b565bf35b346101e55760003660031901126101e5576020600254604051908152f35b346101e55760203660031901126101e5576004356000526004602052602060ff600a60406000200154166040519015158152f35b346101e55760203660031901126101e557611587611fa5565b60008054604051632474521560e21b81526004810192909252336024830152602090829060449082906001600160a01b03165afa8015610850576115d291600091610b415750612217565b6001600160a01b0316801561162557600180546001600160a01b0319811683179091556001600160a01b03167f79e4fc45febd3d378fabefb9700ba0a84df3b6130402f974e27b6140d852ae3e600080a3005b60405162461bcd60e51b815260206004820152601760248201527624b73b30b634b21034b6b837b93a103b32b934b334b2b960491b6044820152606490fd5b346101e55760203660031901126101e55760043580600052600460205261169560ff600a6040600020015416611fbb565b6000526004602052602060ff60076040600020015460b01c166040519015158152f35b346101e55760403660031901126101e5576024356001600160401b0381116101e5576116ea6020913690600401611f78565b6004351515915081611702575b506040519015158152f35b90501515826116f7565b346101e55760203660031901126101e5576004356044602060018060a01b036000541660405192838092632474521560e21b82526000805160206124db83398151915260048301523360248301525afa801561085057611773916000916118575750612197565b80600052600460205261179060ff600a6040600020015416611fbb565b8060005260046020526040600020600781019081549060ff8260a01c16600681101561039457600403611824576000926117ee60ff6008946001850154875260066020526117e482604089205416156121da565b60a81c16826120dd565b805460ff60c01b19169055015533907fdbd5714c7cbde7ea4b436f5d5350db30a84c4cb05ed9b76e93cb59db8d875a6e600080a3005b60405162461bcd60e51b815260206004820152600b60248201526a139bdd08199b1859d9d95960aa1b6044820152606490fd5b611870915060203d6020116108495761083b8183612150565b83610c1e565b346101e55760003660031901126101e5576003546040516001600160a01b039091168152602090f35b346101e55760203660031901126101e5576004358060005260046020526118d060ff600a6040600020015416611fbb565b6000526004602052602060ff60076040600020015460b81c166040519015158152f35b346101e55760203660031901126101e55760043580600052600460205261192460ff600a6040600020015416611fbb565b6000526004602052602060018060a01b0360076040600020015416604051908152f35b346101e55760203660031901126101e55760043560006101e060405161196c8161211e565b8281528260208201528260408201528260608201528260808201528260a08201528260c08201528260e08201528261010082015282610120820152826101408201528261016082015282610180820152826101a0820152826101c082015201528060005260046020526119e960ff600a6040600020015416611fbb565b6000526004602052610200604060002060ff600a60405192611a0a8461211e565b8054845260018101546020850152600281015460408501526003810154606085015260048101546080850152600581015460a085015260018060a01b0360068201541660c085015282600782015460018060a01b03811660e0870152611a79828260a01c166101008801612173565b611a8c828260a81c166101208801612173565b818160b01c161515610140870152818160b81c16151561016087015260c01c1661018085015260088101546101a085015260098101546101c085015201541615156101e08201526020810151600052600660205260ff60406000205416611bc6575b6101e060405191805183526020810151602084015260408101516040840152606081015160608401526080810151608084015260a081015160a084015260018060a01b0360c08201511660c084015260018060a01b0360e08201511660e0840152611b63610100820151610100850190611f6b565b611b77610120820151610120850190611f6b565b6101408101511515610140840152610160810151151561016084015260ff610180820151166101808401526101a08101516101a08401526101c08101516101c0840152015115156101e0820152f35b60056101008201526004610180820152602081015160005260076020526040600020546101a0820152611aee565b346101e55760203660031901126101e557600435611c1d60018060a01b03600354163314611ffb565b806000526004602052611c3a60ff600a6040600020015416611fbb565b80600052600460205260076040600020611c5c611c5684612471565b1561207a565b0160ff815460a01c1660068110156103945760048114611d1457600181148015611d0a575b15611cd457611c9090826120b9565b805460ff60a01b198116600160a11b179091556001600160a01b0316907fb118605e0d0aa2bdb49cd93946627aba675b007e5c7aa1e60009705493a64b99600080a3005b60405162461bcd60e51b815260206004820152600e60248201526d496e76616c69642073746174757360901b6044820152606490fd5b5060038114611c81565b60405162461bcd60e51b815260206004820152600f60248201526e141c9bd91d58dd08199b1859d9d959608a1b6044820152606490fd5b346101e55760203660031901126101e557600435806000526004602052611d7c60ff600a6040600020015416611fbb565b6000526004602052602060ff60076040600020015460c01c16604051908152f35b346101e55760003660031901126101e557602060405160028152f35b346101e55760603660031901126101e55760243560043560ff82168083036101e55760443592611df460018060a01b03600354163314611ffb565b826000526004602052611e1160ff600a6040600020015416611fbb565b611e1c84151561203d565b8115611ebc57826000526004602052604060002091611e3d611c5685612471565b600783019160ff835460a01c16926006841015610394577fe6b3b069ebd03d4dd37f949e07f7582a911d05350ab7480553325fb2909d8c5894611ea1889360089387600460209903611eac575b50805460ff60a01b1916600160a21b178155612101565b0155604051908152a3005b611eb690826120b9565b8b611e8a565b60405162461bcd60e51b8152602060048201526012602482015271125b9d985b1a59081c9a5cdac81b195d995b60721b6044820152606490fd5b346101e55760003660031901126101e5576000546040516001600160a01b039091168152602090f35b346101e55760203660031901126101e557600435806000526004602052611f5060ff600a6040600020015416611fbb565b60005260046020526020600860406000200154604051908152f35b9060068210156103945752565b9181601f840112156101e5578235916001600160401b0383116101e557602083818601950101116101e557565b600435906001600160a01b03821682036101e557565b15611fc257565b60405162461bcd60e51b8152602060048201526011602482015270141c9bd91d58dd081b9bdd08199bdd5b99607a1b6044820152606490fd5b1561200257565b60405162461bcd60e51b81526020600482015260136024820152722737ba103a3930b739b332b9103632b233b2b960691b6044820152606490fd5b1561204457565b60405162461bcd60e51b815260206004820152600e60248201526d24b73b30b634b2103932b0b9b7b760911b6044820152606490fd5b1561208157565b60405162461bcd60e51b815260206004820152601060248201526f141c9bd91d58dd081c9958d85b1b195960821b6044820152606490fd5b90600681101561039457815460ff60a81b191660a89190911b60ff60a81b16179055565b90600681101561039457815460ff60a01b191660a09190911b60ff60a01b16179055565b805460ff60c01b191660c09290921b60ff60c01b16919091179055565b61020081019081106001600160401b0382111761213a57604052565b634e487b7160e01b600052604160045260246000fd5b601f909101601f19168101906001600160401b0382119082101761213a57604052565b60068210156103945752565b908160209103126101e5575180151581036101e55790565b1561219e57565b60405162461bcd60e51b81526020600482015260146024820152734e6f7420726563616c6c20617574686f7269747960601b6044820152606490fd5b156121e157565b60405162461bcd60e51b815260206004820152600e60248201526d10985d18da081c9958d85b1b195960921b6044820152606490fd5b1561221e57565b60405162461bcd60e51b81526020600482015260096024820152682737ba1030b236b4b760b91b6044820152606490fd5b80600052600460205261226c60ff600a6040600020015416611fbb565b806000526004602052600160406000200154600052600660205260ff604060002054166122ad57600052600460205260ff60076040600020015460a01c1690565b50600590565b156122ba57565b60405162461bcd60e51b815260206004820152600d60248201526c092dcecc2d8d2c840c4c2e8c6d609b1b6044820152606490fd5b156122f657565b60405162461bcd60e51b815260206004820152601c60248201527b2737ba1036b0b73ab330b1ba3ab932b91037b91034b6b837b93a32b960211b6044820152606490fd5b1561234157565b60405162461bcd60e51b815260206004820152600e60248201526d125b9d985b1a59081cd95c9a585b60921b6044820152606490fd5b1561237e57565b60405162461bcd60e51b815260206004820152601060248201526f496e76616c6964206d6574616461746160801b6044820152606490fd5b156123bd57565b60405162461bcd60e51b815260206004820152601060248201526f111d5c1b1a58d85d19481cd95c9a585b60821b6044820152606490fd5b805490600160401b82101561213a576001820180825582101561241e5760005260206000200155565b634e487b7160e01b600052603260045260246000fd5b1561243b57565b60405162461bcd60e51b815260206004820152600e60248201526d139bdd081a5b881d1c985b9cda5d60921b6044820152606490fd5b6000526004602052604060002060ff600782015460a01c166006811015610394576005149081156124a0575090565b600191500154600052600660205260ff604060002054169056feeefb95e842a3287179d933b4460be539a1d5af11aa8b325bb45c5c8dc92de4ed53790c0a8b785aa2d322b9af6deababb51631b04fecccd73685fd13875f5571f37456a869538f797717c55251e3c7e8ca8d2de18bedf4a2eaae12affc2f2efc09dd0c3bd9bb5e1c820c362d05d5cb38480246edb10ff416751bc3dcaccab86fea2646970667358221220defcfaf39511cfba2340f91f2de9083657debbcb4e98916d52e90fa07e5e14ce64736f6c634300081c0033",
  "linkReferences": {},
  "deployedLinkReferences": {}
}