{
  "_format": "hh-sol-artifact-1",
  "contractName": "SupplyChainAccessControl",
  "sourceName": "contracts/SupplyChainAccessControl.sol",
  "abi": [
    {
      "inputs": [
        {
          "internalType": "address",
          "name": "admin",
          "type": "address"
        }
      ],
      "stateMutability": "nonpayable",
      "type": "constructor"
    },
    {
      "inputs": [],
      "name": "AccessControlBadConfirmation",
      "type": "error"
    },
    {
      "inputs": [
        {
          "internalType": "address",
          "name": "account",
          "type": "address"
        },
        {
          "internalType": "bytes32",
          "name": "neededRole",
          "type": "bytes32"
        }
      ],
      "name": "AccessControlUnauthorizedAccount",
      "type": "error"
    },
    {
      "anonymous": false,
      "inputs": [],
      "name": "MvpRoutesConfigured",
      "type": "event"
    },
    {
      "anonymous": false,
      "inputs": [
        {
          "indexed": true,
          "internalType": "address",
          "name": "account",
          "type": "address"
        },
        {
          "indexed": true,
          "internalType": "bytes32",
          "name": "role",
          "type": "bytes32"
        }
      ],
      "name": "PrimaryRoleSet",
      "type": "event"
    },
    {
      "anonymous": false,
      "inputs": [
        {
          "indexed": true,
          "internalType": "bytes32",
          "name": "role",
          "type": "bytes32"
        },
        {
          "indexed": true,
          "internalType": "bytes32",
          "name": "previousAdminRole",
          "type": "bytes32"
        },
        {
          "indexed": true,
          "internalType": "bytes32",
          "name": "newAdminRole",
          "type": "bytes32"
        }
      ],
      "name": "RoleAdminChanged",
      "type": "event"
    },
    {
      "anonymous": false,
      "inputs": [
        {
          "indexed": true,
          "internalType": "bytes32",
          "name": "role",
          "type": "bytes32"
        },
        {
          "indexed": true,
          "internalType": "address",
          "name": "account",
          "type": "address"
        },
        {
          "indexed": true,
          "internalType": "address",
          "name": "sender",
          "type": "address"
        }
      ],
      "name": "RoleGranted",
      "type": "event"
    },
    {
      "anonymous": false,
      "inputs": [
        {
          "indexed": true,
          "internalType": "bytes32",
          "name": "role",
          "type": "bytes32"
        },
        {
          "indexed": true,
          "internalType": "address",
          "name": "account",
          "type": "address"
        },
        {
          "indexed": true,
          "internalType": "address",
          "name": "sender",
          "type": "address"
        }
      ],
      "name": "RoleRevoked",
      "type": "event"
    },
    {
      "anonymous": false,
      "inputs": [
        {
          "indexed": true,
          "internalType": "bytes32",
          "name": "fromRole",
          "type": "bytes32"
        },
        {
          "indexed": true,
          "internalType": "bytes32",
          "name": "toRole",
          "type": "bytes32"
        },
        {
          "indexed": false,
          "internalType": "bool",
          "name": "allowed",
          "type": "bool"
        }
      ],
      "name": "RouteUpdated",
      "type": "event"
    },
    {
      "anonymous": false,
      "inputs": [
        {
          "indexed": true,
          "internalType": "address",
          "name": "account",
          "type": "address"
        },
        {
          "indexed": true,
          "internalType": "bytes32",
          "name": "role",
          "type": "bytes32"
        }
      ],
      "name": "UserRoleGranted",
      "type": "event"
    },
    {
      "anonymous": false,
      "inputs": [
        {
          "indexed": true,
          "internalType": "address",
          "name": "account",
          "type": "address"
        },
        {
          "indexed": true,
          "internalType": "bytes32",
          "name": "role",
          "type": "bytes32"
        }
      ],
      "name": "UserRoleRevoked",
      "type": "event"
    },
    {
      "inputs": [],
      "name": "CLINIC_ROLE",
      "outputs": [
        {
          "internalType": "bytes32",
          "name": "",
          "type": "bytes32"
        }
      ],
      "stateMutability": "view",
      "type": "function"
    },
    {
      "inputs": [],
      "name": "DEFAULT_ADMIN_ROLE",
      "outputs": [
        {
          "internalType": "bytes32",
          "name": "",
          "type": "bytes32"
        }
      ],
      "stateMutability": "view",
      "type": "function"
    },
    {
      "inputs": [],
      "name": "DISTRIBUTOR_ROLE",
      "outputs": [
        {
          "internalType": "bytes32",
          "name": "",
          "type": "bytes32"
        }
      ],
      "stateMutability": "view",
      "type": "function"
    },
    {
      "inputs": [],
      "name": "IMPORTER_ROLE",
      "outputs": [
        {
          "internalType": "bytes32",
          "name": "",
          "type": "bytes32"
        }
      ],
      "stateMutability": "view",
      "type": "function"
    },
    {
      "inputs": [],
      "name": "MANUFACTURER_ROLE",
      "outputs": [
        {
          "internalType": "bytes32",
          "name": "",
          "type": "bytes32"
        }
      ],
      "stateMutability": "view",
      "type": "function"
    },
    {
      "inputs": [],
      "name": "PHARMACY_ROLE",
      "outputs": [
        {
          "internalType": "bytes32",
          "name": "",
          "type": "bytes32"
        }
      ],
      "stateMutability": "view",
      "type": "function"
    },
    {
      "inputs": [],
      "name": "RECALL_AUTHORITY_ROLE",
      "outputs": [
        {
          "internalType": "bytes32",
          "name": "",
          "type": "bytes32"
        }
      ],
      "stateMutability": "view",
      "type": "function"
    },
    {
      "inputs": [
        {
          "internalType": "bytes32",
          "name": "role",
          "type": "bytes32"
        }
      ],
      "name": "canInitiateTransfer",
      "outputs": [
        {
          "internalType": "bool",
          "name": "",
          "type": "bool"
        }
      ],
      "stateMutability": "pure",
      "type": "function"
    },
    {
      "inputs": [
        {
          "internalType": "bytes32",
          "name": "role",
          "type": "bytes32"
        }
      ],
      "name": "canReceiveTransfer",
      "outputs": [
        {
          "internalType": "bool",
          "name": "",
          "type": "bool"
        }
      ],
      "stateMutability": "pure",
      "type": "function"
    },
    {
      "inputs": [],
      "name": "configureMvpRoutes",
      "outputs": [],
      "stateMutability": "nonpayable",
      "type": "function"
    },
    {
      "inputs": [
        {
          "internalType": "address",
          "name": "account",
          "type": "address"
        }
      ],
      "name": "getPrimaryRole",
      "outputs": [
        {
          "internalType": "bytes32",
          "name": "",
          "type": "bytes32"
        }
      ],
      "stateMutability": "view",
      "type": "function"
    },
    {
      "inputs": [
        {
          "internalType": "bytes32",
          "name": "role",
          "type": "bytes32"
        }
      ],
      "name": "getRoleAdmin",
      "outputs": [
        {
          "internalType": "bytes32",
          "name": "",
          "type": "bytes32"
        }
      ],
      "stateMutability": "view",
      "type": "function"
    },
    {
      "inputs": [
        {
          "internalType": "bytes32",
          "name": "role",
          "type": "bytes32"
        },
        {
          "internalType": "address",
          "name": "account",
          "type": "address"
        }
      ],
      "name": "grantRole",
      "outputs": [],
      "stateMutability": "nonpayable",
      "type": "function"
    },
    {
      "inputs": [
        {
          "internalType": "address",
          "name": "account",
          "type": "address"
        },
        {
          "internalType": "bytes32",
          "name": "role",
          "type": "bytes32"
        }
      ],
      "name": "grantUserRole",
      "outputs": [],
      "stateMutability": "nonpayable",
      "type": "function"
    },
    {
      "inputs": [
        {
          "internalType": "bytes32",
          "name": "role",
          "type": "bytes32"
        },
        {
          "internalType": "address",
          "name": "account",
          "type": "address"
        }
      ],
      "name": "hasRole",
      "outputs": [
        {
          "internalType": "bool",
          "name": "",
          "type": "bool"
        }
      ],
      "stateMutability": "view",
      "type": "function"
    },
    {
      "inputs": [
        {
          "internalType": "bytes32",
          "name": "role",
          "type": "bytes32"
        }
      ],
      "name": "isSupportedRole",
      "outputs": [
        {
          "internalType": "bool",
          "name": "",
          "type": "bool"
        }
      ],
      "stateMutability": "pure",
      "type": "function"
    },
    {
      "inputs": [
        {
          "internalType": "bytes32",
          "name": "fromRole",
          "type": "bytes32"
        },
        {
          "internalType": "bytes32",
          "name": "toRole",
          "type": "bytes32"
        }
      ],
      "name": "isValidRoute",
      "outputs": [
        {
          "internalType": "bool",
          "name": "",
          "type": "bool"
        }
      ],
      "stateMutability": "view",
      "type": "function"
    },
    {
      "inputs": [
        {
          "internalType": "bytes32",
          "name": "role",
          "type": "bytes32"
        },
        {
          "internalType": "address",
          "name": "callerConfirmation",
          "type": "address"
        }
      ],
      "name": "renounceRole",
      "outputs": [],
      "stateMutability": "nonpayable",
      "type": "function"
    },
    {
      "inputs": [
        {
          "internalType": "bytes32",
          "name": "role",
          "type": "bytes32"
        },
        {
          "internalType": "address",
          "name": "account",
          "type": "address"
        }
      ],
      "name": "revokeRole",
      "outputs": [],
      "stateMutability": "nonpayable",
      "type": "function"
    },
    {
      "inputs": [
        {
          "internalType": "address",
          "name": "account",
          "type": "address"
        },
        {
          "internalType": "bytes32",
          "name": "role",
          "type": "bytes32"
        }
      ],
      "name": "revokeUserRole",
      "outputs": [],
      "stateMutability": "nonpayable",
      "type": "function"
    },
    {
      "inputs": [
        {
          "internalType": "address",
          "name": "account",
          "type": "address"
        },
        {
          "internalType": "bytes32",
          "name": "role",
          "type": "bytes32"
        }
      ],
      "name": "setPrimaryRole",
      "outputs": [],
      "stateMutability": "nonpayable",
      "type": "function"
    },
    {
      "inputs": [
        {
          "internalType": "bytes32",
          "name": "fromRole",
          "type": "bytes32"
        },
        {
          "internalType": "bytes32",
          "name": "toRole",
          "type": "bytes32"
        },
        {
          "internalType": "bool",
          "name": "allowed",
          "type": "bool"
        }
      ],
      "name": "setRoute",
      "outputs": [],
      "stateMutability": "nonpayable",
      "type": "function"
    },
    {
      "inputs": [
        {
          "internalType": "bytes4",
          "name": "interfaceId",
          "type": "bytes4"
        }
      ],
      "name": "supportsInterface",
      "outputs": [
        {
          "internalType": "bool",
          "name": "",
          "type": "bool"
        }
      ],
      "stateMutability": "view",
      "type": "function"
    }
  ],
  "bytecode": "0x6080346100a357601f6111c038819003918201601f19168301916001600160401b038311848410176100a8578084926020946040528339810103126100a357516001600160a01b0381168082036100a3571561006e5761005e906100be565b50604051611053908161014d8239f35b60405162461bcd60e51b815260206004820152600d60248201526c24b73b30b634b21030b236b4b760991b6044820152606490fd5b600080fd5b634e487b7160e01b600052604160045260246000fd5b6001600160a01b03811660009081526000805160206111a0833981519152602052604090205460ff16610146576001600160a01b031660008181526000805160206111a083398151915260205260408120805460ff191660011790553391907f2f8788117e7eff1d82e926ec794901d17c78024a50270940304540a733656f0d8180a4600190565b5060009056fe608080604052600436101561001357600080fd5b60003560e01c90816301ffc9a714610ac6575080630f5403ad146109bd578063248a9ca3146109975780632f2ff15d14610966578063302be1a31461094857806336568abe146109025780634188327f146108e45780634906f8a91461081f5780635bd5700e146104f1578063640ab953146104c85780636fa2a0671461049f57806382673e77146104765780638929a776146103a757806391d148541461035a578063965288b014610331578063a217fddf14610315578063b198e1ed146102ed578063d19c7191146102b3578063d49137a9146101ea578063d547741f146101b2578063f0bd87cc14610189578063f0c58ea7146101605763fc191a2a1461011c57600080fd5b3461015b57604036600319011261015b5760043560005260016020526040600020602435600052602052602060ff604060002054166040519015158152f35b600080fd5b3461015b57600036600319011261015b576020604051600080516020610ffe8339815191528152f35b3461015b57600036600319011261015b576020604051600080516020610f1e8339815191528152f35b3461015b57604036600319011261015b576101e86004356101d1610b19565b906101e36101de82610b45565b610d95565b610e5b565b005b3461015b57604036600319011261015b57610203610b2f565b6024359061020f610d42565b6001600160a01b0381169061024c90610229831515610c75565b61023a61023585610b59565b610cb3565b6102466101de85610b45565b83610dd0565b5080600052600260205260406000205415610289575b7fc5d15e78ba9e73e59b2c91f5ec783e626470d976d290163eeec77636e832e0bf600080a3005b806000526002602052816040600020558181600080516020610fde833981519152600080a3610262565b3461015b57602036600319011261015b576001600160a01b036102d4610b2f565b1660005260026020526020604060002054604051908152f35b3461015b57602036600319011261015b57602061030b600435610cf2565b6040519015158152f35b3461015b57600036600319011261015b57602060405160008152f35b3461015b57600036600319011261015b576020604051600080516020610efe8339815191528152f35b3461015b57604036600319011261015b57610373610b19565b600435600052600060205260406000209060018060a01b0316600052602052602060ff604060002054166040519015158152f35b3461015b57604036600319011261015b576103c0610b2f565b602435906103cc610d42565b6001600160a01b03166103e0811515610c75565b6103ec61023583610b59565b81600052600060205260406000208160005260205260ff60406000205416156104345780600052600260205281604060002055600080516020610fde833981519152600080a3005b60405162461bcd60e51b815260206004820152601a6024820152794163636f756e7420646f6573206e6f74206861766520726f6c6560301b6044820152606490fd5b3461015b57600036600319011261015b576020604051600080516020610f7e8339815191528152f35b3461015b57600036600319011261015b576020604051600080516020610fbe8339815191528152f35b3461015b57600036600319011261015b576020604051600080516020610f3e8339815191528152f35b3461015b57600036600319011261015b5761050a610d42565b600080516020610fbe8339815191526000818152600080516020610f5e83398151915260209081527f9ef99aca2e540319a93aba00c41311b9c4733fda02ae149e8700753b4bb60e5f805460ff19169055604051918252600080516020610efe83398151915291600080516020610ede8339815191529190a3600080516020610f1e8339815191526000819052600080516020610f5e83398151915260209081527f374923b775d6336384bbbf9f8aeb5ae46b5e77e685b3543e63509f7d2208ea60805460ff19166001908117909155604051908152600080516020610efe83398151915291600080516020610ede83398151915291a3600080516020610f1e83398151915260008190527fc7dd095393f955e869f40ed35eaff5d9062b02d8abcdac19856388e590ec747260209081527ff8c9dc2326977dec6ed6c47b27af3d01c0a3da30e97c5904070c4823cd1c3474805460ff19166001908117909155604051908152600080516020610fbe83398151915291600080516020610ede83398151915291a3600080516020610f1e8339815191526000818152600080516020610f9e83398151915260209081527f75a81a406f06ba355189b269207a45cddd5ccaf4ed75bc6055fb27d99d7f1697805460ff191690556040519182528291600080516020610ede8339815191529190a3600080516020610f7e8339815191526000819052600080516020610f9e83398151915260209081527f7a8cf1e59d6e8ff27b1db6c8c1cc3b31f5e6e642a93869ae5597338a1f8e4608805460ff19166001908117909155604051908152600080516020610f1e83398151915291600080516020610ede83398151915291a3600080516020610ffe8339815191526000819052600080516020610f9e83398151915260209081527fc848f2e84baed677239de55fff75071dc608cbb5340d6c3a3f4b583821443448805460ff19166001908117909155604051908152600080516020610f1e83398151915291600080516020610ede83398151915291a37fb789139fdd65612d4e25b9f01f883a9019554d55cb3390b63fd6e18afb04289f600080a1005b3461015b57604036600319011261015b57610838610b2f565b60243590610844610d42565b6001600160a01b0381169061087c9061085e831515610c75565b61086a61023585610b59565b6108766101de85610b45565b83610e5b565b5080600052600260205281604060002054146108ba575b7f6e2b227fdda719e2696d7e06c8f2391ef19dee3296ff6737a92acd099622b87b600080a3005b80600052600260205260006040812055600081600080516020610fde8339815191528280a3610893565b3461015b57602036600319011261015b57602061030b600435610c06565b3461015b57604036600319011261015b5761091b610b19565b336001600160a01b03821603610937576101e890600435610e5b565b63334bd91960e11b60005260046000fd5b3461015b57602036600319011261015b57602061030b600435610b59565b3461015b57604036600319011261015b576101e8600435610985610b19565b906109926101de82610b45565b610dd0565b3461015b57602036600319011261015b5760206109b5600435610b45565b604051908152f35b3461015b57606036600319011261015b576004356024359060443580151580910361015b576109ea610d42565b6109f382610cf2565b15610a8757610a0183610c06565b15610a46576020600080516020610ede8339815191529183600052600182526040600020856000528252604060002060ff1981541660ff8316179055604051908152a3005b60405162461bcd60e51b8152602060048201526019602482015278556e737570706f7274656420726563656976657220726f6c6560381b6044820152606490fd5b60405162461bcd60e51b8152602060048201526017602482015276556e737570706f727465642073656e64657220726f6c6560481b6044820152606490fd5b3461015b57602036600319011261015b576004359063ffffffff60e01b821680920361015b57602091637965db0b60e01b8114908115610b08575b5015158152f35b6301ffc9a760e01b14905083610b01565b602435906001600160a01b038216820361015b57565b600435906001600160a01b038216820361015b57565b600052600060205260016040600020015490565b600080516020610efe8339815191528114908115610bee575b8115610bd6575b8115610bbe575b8115610ba6575b8115610b91575090565b600080516020610f3e83398151915291501490565b600080516020610ffe83398151915281149150610b87565b600080516020610f7e83398151915281149150610b80565b600080516020610f1e83398151915281149150610b79565b600080516020610fbe83398151915281149150610b72565b600080516020610fbe8339815191528114908115610c5d575b8115610c45575b8115610c30575090565b600080516020610ffe83398151915291501490565b600080516020610f7e83398151915281149150610c26565b600080516020610f1e83398151915281149150610c1f565b15610c7c57565b60405162461bcd60e51b815260206004820152600f60248201526e125b9d985b1a59081858d8dbdd5b9d608a1b6044820152606490fd5b15610cba57565b60405162461bcd60e51b815260206004820152601060248201526f556e737570706f7274656420726f6c6560801b6044820152606490fd5b600080516020610efe8339815191528114908115610d2a575b8115610d15575090565b600080516020610f1e83398151915291501490565b600080516020610fbe83398151915281149150610d0b565b3360009081527fad3228b676f7d3cd4284a5443f17f1962b36e491b30a40b2405849e597ba5fb5602052604090205460ff1615610d7b57565b63e2517d3f60e01b60005233600452600060245260446000fd5b60008181526020818152604080832033845290915290205460ff1615610db85750565b63e2517d3f60e01b6000523360045260245260446000fd5b6000818152602081815260408083206001600160a01b038616845290915290205460ff16610e54576000818152602081815260408083206001600160a01b0395909516808452949091528120805460ff19166001179055339291907f2f8788117e7eff1d82e926ec794901d17c78024a50270940304540a733656f0d9080a4600190565b5050600090565b6000818152602081815260408083206001600160a01b038616845290915290205460ff1615610e54576000818152602081815260408083206001600160a01b0395909516808452949091528120805460ff19169055339291907ff6391f5c32d9c69d2a47ea670b442974b53935d1edc7fd64eb21e047a839171b9080a460019056feaf25fa890fd07eca9d60fbc1cf016d1691791b553da956c4851887a8816a1450eefb95e842a3287179d933b4460be539a1d5af11aa8b325bb45c5c8dc92de4edfbd454f36a7e1a388bd6fc3ab10d434aa4578f811acbbcf33afb1c697486313c53790c0a8b785aa2d322b9af6deababb51631b04fecccd73685fd13875f5571f9bf69c02ecb57bec2332bd5ee59fccb5621131eaae23124e1464351ca514c1621976159518e32c975351d3eb18509d62ab7629098636e52c6ce63466e939167f210932760c18fe8bc12f9d1bd245c25c0f21fa2541f289eb5b159588ce1f7b3f9dd0c3bd9bb5e1c820c362d05d5cb38480246edb10ff416751bc3dcaccab86fedb60cb8fe80302625e728ded9284a2be011e2591a3381941e19765ae3526c0fb2f3a5455f35aeca177ac653592f277fbe2fbafef01081a2030451bb2fb41c91da2646970667358221220f6ce598b7f9548bb08ff3dbfa25f5ba6f702230181e36197741d1f5549579f3c64736f6c634300081c0033ad3228b676f7d3cd4284a5443f17f1962b36e491b30a40b2405849e597ba5fb5",
  "linkReferences": {},
  "deployedLinkReferences": {}
}