{
  "_format": "hh-sol-artifact-1",
  "contractName": "SupplyChainAccessControl",
  "sourceName": "contracts/SupplyChainAccessControl.sol",
  "abi": [
    {
      "inputs": [
        {
          "internalType": "address",
          "name": "admin",
          "type": "address"
        }
      ],
      "stateMutability": "nonpayable",
      "type": "constructor"
    },
    {
      "inputs": [],
      "name": "AccessControlBadConfirmation",
      "type": "error"
    },
    {
      "inputs": [
        {
          "internalType": "address",
          "name": "account",
          "type": "address"
        },
        {
          "internalType": "bytes32",
          "name": "neededRole",
          "type": "bytes32"
        }
      ],
      "name": "AccessControlUnauthorizedAccount",
      "type": "error"
    },
    {
      "anonymous": false,
      "inputs": [],
      "name": "MvpRoutesConfigured",
      "type": "event"
    },
    {
      "anonymous": false,
      "inputs": [
        {
          "indexed": true,
          "internalType": "address",
          "name": "account",
          "type": "address"
        },
        {
          "indexed": true,
          "internalType": "bytes32",
          "name": "role",
          "type": "bytes32"
        }
      ],
      "name": "PrimaryRoleSet",
      "type": "event"
    },
    {
      "anonymous": false,
      "inputs": [
        {
          "indexed": true,
          "internalType": "bytes32",
          "name": "role",
          "type": "bytes32"
        },
        {
          "indexed": true,
          "internalType": "bytes32",
          "name": "previousAdminRole",
          "type": "bytes32"
        },
        {
          "indexed": true,
          "internalType": "bytes32",
          "name": "newAdminRole",
          "type": "bytes32"
        }
      ],
      "name": "RoleAdminChanged",
      "type": "event"
    },
    {
      "anonymous": false,
      "inputs": [
        {
          "indexed": true,
          "internalType": "bytes32",
          "name": "role",
          "type": "bytes32"
        },
        {
          "indexed": true,
          "internalType": "address",
          "name": "account",
          "type": "address"
        },
        {
          "indexed": true,
          "internalType": "address",
          "name": "sender",
          "type": "address"
        }
      ],
      "name": "RoleGranted",
      "type": "event"
    },
    {
      "anonymous": false,
      "inputs": [
        {
          "indexed": true,
          "internalType": "bytes32",
          "name": "role",
          "type": "bytes32"
        },
        {
          "indexed": true,
          "internalType": "address",
          "name": "account",
          "type": "address"
        },
        {
          "indexed": true,
          "internalType": "address",
          "name": "sender",
          "type": "address"
        }
      ],
      "name": "RoleRevoked",
      "type": "event"
    },
    {
      "anonymous": false,
      "inputs": [
        {
          "indexed": true,
          "internalType": "bytes32",
          "name": "fromRole",
          "type": "bytes32"
        },
        {
          "indexed": true,
          "internalType": "bytes32",
          "name": "toRole",
          "type": "bytes32"
        },
        {
          "indexed": false,
          "internalType": "bool",
          "name": "allowed",
          "type": "bool"
        }
      ],
      "name": "RouteUpdated",
      "type": "event"
    },
    {
      "anonymous": false,
      "inputs": [
        {
          "indexed": true,
          "internalType": "address",
          "name": "account",
          "type": "address"
        },
        {
          "indexed": true,
          "internalType": "bytes32",
          "name": "role",
          "type": "bytes32"
        }
      ],
      "name": "UserRoleGranted",
      "type": "event"
    },
    {
      "anonymous": false,
      "inputs": [
        {
          "indexed": true,
          "internalType": "address",
          "name": "account",
          "type": "address"
        },
        {
          "indexed": true,
          "internalType": "bytes32",
          "name": "role",
          "type": "bytes32"
        }
      ],
      "name": "UserRoleRevoked",
      "type": "event"
    },
    {
      "inputs": [],
      "name": "AUDITOR_ROLE",
      "outputs": [
        {
          "internalType": "bytes32",
          "name": "",
          "type": "bytes32"
        }
      ],
      "stateMutability": "view",
      "type": "function"
    },
    {
      "inputs": [],
      "name": "CLINIC_ROLE",
      "outputs": [
        {
          "internalType": "bytes32",
          "name": "",
          "type": "bytes32"
        }
      ],
      "stateMutability": "view",
      "type": "function"
    },
    {
      "inputs": [],
      "name": "DEFAULT_ADMIN_ROLE",
      "outputs": [
        {
          "internalType": "bytes32",
          "name": "",
          "type": "bytes32"
        }
      ],
      "stateMutability": "view",
      "type": "function"
    },
    {
      "inputs": [],
      "name": "DISTRIBUTOR_ROLE",
      "outputs": [
        {
          "internalType": "bytes32",
          "name": "",
          "type": "bytes32"
        }
      ],
      "stateMutability": "view",
      "type": "function"
    },
    {
      "inputs": [],
      "name": "IMPORTER_ROLE",
      "outputs": [
        {
          "internalType": "bytes32",
          "name": "",
          "type": "bytes32"
        }
      ],
      "stateMutability": "view",
      "type": "function"
    },
    {
      "inputs": [],
      "name": "MANUFACTURER_ROLE",
      "outputs": [
        {
          "internalType": "bytes32",
          "name": "",
          "type": "bytes32"
        }
      ],
      "stateMutability": "view",
      "type": "function"
    },
    {
      "inputs": [],
      "name": "PHARMACY_ROLE",
      "outputs": [
        {
          "internalType": "bytes32",
          "name": "",
          "type": "bytes32"
        }
      ],
      "stateMutability": "view",
      "type": "function"
    },
    {
      "inputs": [],
      "name": "RECALL_AUTHORITY_ROLE",
      "outputs": [
        {
          "internalType": "bytes32",
          "name": "",
          "type": "bytes32"
        }
      ],
      "stateMutability": "view",
      "type": "function"
    },
    {
      "inputs": [
        {
          "internalType": "bytes32",
          "name": "role",
          "type": "bytes32"
        }
      ],
      "name": "canInitiateTransfer",
      "outputs": [
        {
          "internalType": "bool",
          "name": "",
          "type": "bool"
        }
      ],
      "stateMutability": "pure",
      "type": "function"
    },
    {
      "inputs": [
        {
          "internalType": "bytes32",
          "name": "role",
          "type": "bytes32"
        }
      ],
      "name": "canReceiveTransfer",
      "outputs": [
        {
          "internalType": "bool",
          "name": "",
          "type": "bool"
        }
      ],
      "stateMutability": "pure",
      "type": "function"
    },
    {
      "inputs": [],
      "name": "configureMvpRoutes",
      "outputs": [],
      "stateMutability": "nonpayable",
      "type": "function"
    },
    {
      "inputs": [
        {
          "internalType": "address",
          "name": "account",
          "type": "address"
        }
      ],
      "name": "getPrimaryRole",
      "outputs": [
        {
          "internalType": "bytes32",
          "name": "",
          "type": "bytes32"
        }
      ],
      "stateMutability": "view",
      "type": "function"
    },
    {
      "inputs": [
        {
          "internalType": "bytes32",
          "name": "role",
          "type": "bytes32"
        }
      ],
      "name": "getRoleAdmin",
      "outputs": [
        {
          "internalType": "bytes32",
          "name": "",
          "type": "bytes32"
        }
      ],
      "stateMutability": "view",
      "type": "function"
    },
    {
      "inputs": [
        {
          "internalType": "bytes32",
          "name": "role",
          "type": "bytes32"
        },
        {
          "internalType": "address",
          "name": "account",
          "type": "address"
        }
      ],
      "name": "grantRole",
      "outputs": [],
      "stateMutability": "nonpayable",
      "type": "function"
    },
    {
      "inputs": [
        {
          "internalType": "address",
          "name": "account",
          "type": "address"
        },
        {
          "internalType": "bytes32",
          "name": "role",
          "type": "bytes32"
        }
      ],
      "name": "grantUserRole",
      "outputs": [],
      "stateMutability": "nonpayable",
      "type": "function"
    },
    {
      "inputs": [
        {
          "internalType": "bytes32",
          "name": "role",
          "type": "bytes32"
        },
        {
          "internalType": "address",
          "name": "account",
          "type": "address"
        }
      ],
      "name": "hasRole",
      "outputs": [
        {
          "internalType": "bool",
          "name": "",
          "type": "bool"
        }
      ],
      "stateMutability": "view",
      "type": "function"
    },
    {
      "inputs": [
        {
          "internalType": "bytes32",
          "name": "role",
          "type": "bytes32"
        }
      ],
      "name": "isSupportedRole",
      "outputs": [
        {
          "internalType": "bool",
          "name": "",
          "type": "bool"
        }
      ],
      "stateMutability": "pure",
      "type": "function"
    },
    {
      "inputs": [
        {
          "internalType": "bytes32",
          "name": "fromRole",
          "type": "bytes32"
        },
        {
          "internalType": "bytes32",
          "name": "toRole",
          "type": "bytes32"
        }
      ],
      "name": "isValidRoute",
      "outputs": [
        {
          "internalType": "bool",
          "name": "",
          "type": "bool"
        }
      ],
      "stateMutability": "view",
      "type": "function"
    },
    {
      "inputs": [
        {
          "internalType": "bytes32",
          "name": "role",
          "type": "bytes32"
        },
        {
          "internalType": "address",
          "name": "callerConfirmation",
          "type": "address"
        }
      ],
      "name": "renounceRole",
      "outputs": [],
      "stateMutability": "nonpayable",
      "type": "function"
    },
    {
      "inputs": [
        {
          "internalType": "bytes32",
          "name": "role",
          "type": "bytes32"
        },
        {
          "internalType": "address",
          "name": "account",
          "type": "address"
        }
      ],
      "name": "revokeRole",
      "outputs": [],
      "stateMutability": "nonpayable",
      "type": "function"
    },
    {
      "inputs": [
        {
          "internalType": "address",
          "name": "account",
          "type": "address"
        },
        {
          "internalType": "bytes32",
          "name": "role",
          "type": "bytes32"
        }
      ],
      "name": "revokeUserRole",
      "outputs": [],
      "stateMutability": "nonpayable",
      "type": "function"
    },
    {
      "inputs": [
        {
          "internalType": "address",
          "name": "account",
          "type": "address"
        },
        {
          "internalType": "bytes32",
          "name": "role",
          "type": "bytes32"
        }
      ],
      "name": "setPrimaryRole",
      "outputs": [],
      "stateMutability": "nonpayable",
      "type": "function"
    },
    {
      "inputs": [
        {
          "internalType": "bytes32",
          "name": "fromRole",
          "type": "bytes32"
        },
        {
          "internalType": "bytes32",
          "name": "toRole",
          "type": "bytes32"
        },
        {
          "internalType": "bool",
          "name": "allowed",
          "type": "bool"
        }
      ],
      "name": "setRoute",
      "outputs": [],
      "stateMutability": "nonpayable",
      "type": "function"
    },
    {
      "inputs": [
        {
          "internalType": "bytes4",
          "name": "interfaceId",
          "type": "bytes4"
        }
      ],
      "name": "supportsInterface",
      "outputs": [
        {
          "internalType": "bool",
          "name": "",
          "type": "bool"
        }
      ],
      "stateMutability": "view",
      "type": "function"
    }
  ],
  "bytecode": "0x608060405234801561001057600080fd5b50604051611e64380380611e648339818101604052810190610032919061028d565b600073ffffffffffffffffffffffffffffffffffffffff168173ffffffffffffffffffffffffffffffffffffffff16036100a1576040517f08c379a000000000000000000000000000000000000000000000000000000000815260040161009890610317565b60405180910390fd5b6100b46000801b826100bb60201b60201c565b5050610337565b60006100cd83836101b860201b60201c565b6101ad57600160008085815260200190815260200160002060000160008473ffffffffffffffffffffffffffffffffffffffff1673ffffffffffffffffffffffffffffffffffffffff16815260200190815260200160002060006101000a81548160ff02191690831515021790555061014a61022260201b60201c565b73ffffffffffffffffffffffffffffffffffffffff168273ffffffffffffffffffffffffffffffffffffffff16847f2f8788117e7eff1d82e926ec794901d17c78024a50270940304540a733656f0d60405160405180910390a4600190506101b2565b600090505b92915050565b600080600084815260200190815260200160002060000160008373ffffffffffffffffffffffffffffffffffffffff1673ffffffffffffffffffffffffffffffffffffffff16815260200190815260200160002060009054906101000a900460ff16905092915050565b600033905090565b600080fd5b600073ffffffffffffffffffffffffffffffffffffffff82169050919050565b600061025a8261022f565b9050919050565b61026a8161024f565b811461027557600080fd5b50565b60008151905061028781610261565b92915050565b6000602082840312156102a3576102a261022a565b5b60006102b184828501610278565b91505092915050565b600082825260208201905092915050565b7f496e76616c69642061646d696e00000000000000000000000000000000000000600082015250565b6000610301600d836102ba565b915061030c826102cb565b602082019050919050565b60006020820190508181036000830152610330816102f4565b9050919050565b611b1e806103466000396000f3fe608060405234801561001057600080fd5b50600436106101585760003560e01c806382673e77116100c3578063d19c71911161007c578063d19c7191146103c7578063d49137a9146103f7578063d547741f14610413578063f0bd87cc1461042f578063f0c58ea71461044d578063fc191a2a1461046b57610158565b806382673e77146102f15780638929a7761461030f57806391d148541461032b578063965288b01461035b578063a217fddf14610379578063b198e1ed1461039757610158565b80634188327f116101155780634188327f146102415780634906f8a9146102715780635bd5700e1461028d578063640ab953146102975780636e1d616e146102b55780636fa2a067146102d357610158565b806301ffc9a71461015d5780630f5403ad1461018d578063248a9ca3146101a95780632f2ff15d146101d9578063302be1a3146101f557806336568abe14610225575b600080fd5b610177600480360381019061017291906115c9565b61049b565b6040516101849190611611565b60405180910390f35b6101a760048036038101906101a2919061168e565b610515565b005b6101c360048036038101906101be91906116e1565b6105c3565b6040516101d0919061171d565b60405180910390f35b6101f360048036038101906101ee9190611796565b6105e2565b005b61020f600480360381019061020a91906116e1565b610604565b60405161021c9190611611565b60405180910390f35b61023f600480360381019061023a9190611796565b61072c565b005b61025b600480360381019061025691906116e1565b6107a7565b6040516102689190611611565b60405180910390f35b61028b600480360381019061028691906117d6565b610851565b005b610295610a3d565b005b61029f610c21565b6040516102ac919061171d565b60405180910390f35b6102bd610c45565b6040516102ca919061171d565b60405180910390f35b6102db610c69565b6040516102e8919061171d565b60405180910390f35b6102f9610c8d565b604051610306919061171d565b60405180910390f35b610329600480360381019061032491906117d6565b610cb1565b005b61034560048036038101906103409190611796565b610e4b565b6040516103529190611611565b60405180910390f35b610363610eb5565b604051610370919061171d565b60405180910390f35b610381610ed9565b60405161038e919061171d565b60405180910390f35b6103b160048036038101906103ac91906116e1565b610ee0565b6040516103be9190611611565b60405180910390f35b6103e160048036038101906103dc9190611816565b610f60565b6040516103ee919061171d565b60405180910390f35b610411600480360381019061040c91906117d6565b610fa9565b005b61042d60048036038101906104289190611796565b611192565b005b6104376111b4565b604051610444919061171d565b60405180910390f35b6104556111d8565b604051610462919061171d565b60405180910390f35b61048560048036038101906104809190611843565b6111fc565b6040516104929190611611565b60405180910390f35b60007f7965db0b000000000000000000000000000000000000000000000000000000007bffffffffffffffffffffffffffffffffffffffffffffffffffffffff1916827bffffffffffffffffffffffffffffffffffffffffffffffffffffffff1916148061050e575061050d82611238565b5b9050919050565b6000801b610522816112a2565b61052b84610ee0565b61056a576040517f08c379a0000000000000000000000000000000000000000000000000000000008152600401610561906118e0565b60405180910390fd5b610573836107a7565b6105b2576040517f08c379a00000000000000000000000000000000000000000000000000000000081526004016105a99061194c565b60405180910390fd5b6105bd8484846112b6565b50505050565b6000806000838152602001908152602001600020600101549050919050565b6105eb826105c3565b6105f4816112a2565b6105fe8383611330565b50505050565b60007feefb95e842a3287179d933b4460be539a1d5af11aa8b325bb45c5c8dc92de4ed82148061065357507f9dd0c3bd9bb5e1c820c362d05d5cb38480246edb10ff416751bc3dcaccab86fe82145b8061067d57507ffbd454f36a7e1a388bd6fc3ab10d434aa4578f811acbbcf33afb1c697486313c82145b806106a757507f1976159518e32c975351d3eb18509d62ab7629098636e52c6ce63466e939167f82145b806106d157507f2f3a5455f35aeca177ac653592f277fbe2fbafef01081a2030451bb2fb41c91d82145b806106fb57507f59a1c48e5837ad7a7f3dcedcbe129bf3249ec4fbf651fd4f5e2600ead39fe2f582145b8061072557507f53790c0a8b785aa2d322b9af6deababb51631b04fecccd73685fd13875f5571f82145b9050919050565b610734611421565b73ffffffffffffffffffffffffffffffffffffffff168173ffffffffffffffffffffffffffffffffffffffff1614610798576040517f6697b23200000000000000000000000000000000000000000000000000000000815260040160405180910390fd5b6107a28282611429565b505050565b60007f9dd0c3bd9bb5e1c820c362d05d5cb38480246edb10ff416751bc3dcaccab86fe8214806107f657507ffbd454f36a7e1a388bd6fc3ab10d434aa4578f811acbbcf33afb1c697486313c82145b8061082057507f1976159518e32c975351d3eb18509d62ab7629098636e52c6ce63466e939167f82145b8061084a57507f2f3a5455f35aeca177ac653592f277fbe2fbafef01081a2030451bb2fb41c91d82145b9050919050565b6000801b61085e816112a2565b600073ffffffffffffffffffffffffffffffffffffffff168373ffffffffffffffffffffffffffffffffffffffff16036108cd576040517f08c379a00000000000000000000000000000000000000000000000000000000081526004016108c4906119b8565b60405180910390fd5b6108d682610604565b610915576040517f08c379a000000000000000000000000000000000000000000000000000000000815260040161090c90611a24565b60405180910390fd5b61091f8284611192565b81600260008573ffffffffffffffffffffffffffffffffffffffff1673ffffffffffffffffffffffffffffffffffffffff16815260200190815260200160002054036109f4576000801b600260008573ffffffffffffffffffffffffffffffffffffffff1673ffffffffffffffffffffffffffffffffffffffff168152602001908152602001600020819055506000801b8373ffffffffffffffffffffffffffffffffffffffff167fdb60cb8fe80302625e728ded9284a2be011e2591a3381941e19765ae3526c0fb60405160405180910390a35b818373ffffffffffffffffffffffffffffffffffffffff167f6e2b227fdda719e2696d7e06c8f2391ef19dee3296ff6737a92acd099622b87b60405160405180910390a3505050565b6000801b610a4a816112a2565b610a967feefb95e842a3287179d933b4460be539a1d5af11aa8b325bb45c5c8dc92de4ed7f9dd0c3bd9bb5e1c820c362d05d5cb38480246edb10ff416751bc3dcaccab86fe60016112b6565b610ae27feefb95e842a3287179d933b4460be539a1d5af11aa8b325bb45c5c8dc92de4ed7ffbd454f36a7e1a388bd6fc3ab10d434aa4578f811acbbcf33afb1c697486313c60016112b6565b610b2e7f9dd0c3bd9bb5e1c820c362d05d5cb38480246edb10ff416751bc3dcaccab86fe7ffbd454f36a7e1a388bd6fc3ab10d434aa4578f811acbbcf33afb1c697486313c60016112b6565b610b5a7ffbd454f36a7e1a388bd6fc3ab10d434aa4578f811acbbcf33afb1c697486313c8060016112b6565b610ba67ffbd454f36a7e1a388bd6fc3ab10d434aa4578f811acbbcf33afb1c697486313c7f1976159518e32c975351d3eb18509d62ab7629098636e52c6ce63466e939167f60016112b6565b610bf27ffbd454f36a7e1a388bd6fc3ab10d434aa4578f811acbbcf33afb1c697486313c7f2f3a5455f35aeca177ac653592f277fbe2fbafef01081a2030451bb2fb41c91d60016112b6565b7fb789139fdd65612d4e25b9f01f883a9019554d55cb3390b63fd6e18afb04289f60405160405180910390a150565b7f53790c0a8b785aa2d322b9af6deababb51631b04fecccd73685fd13875f5571f81565b7f59a1c48e5837ad7a7f3dcedcbe129bf3249ec4fbf651fd4f5e2600ead39fe2f581565b7f9dd0c3bd9bb5e1c820c362d05d5cb38480246edb10ff416751bc3dcaccab86fe81565b7f1976159518e32c975351d3eb18509d62ab7629098636e52c6ce63466e939167f81565b6000801b610cbe816112a2565b600073ffffffffffffffffffffffffffffffffffffffff168373ffffffffffffffffffffffffffffffffffffffff1603610d2d576040517f08c379a0000000000000000000000000000000000000000000000000000000008152600401610d24906119b8565b60405180910390fd5b610d3682610604565b610d75576040517f08c379a0000000000000000000000000000000000000000000000000000000008152600401610d6c90611a24565b60405180910390fd5b610d7f8284610e4b565b610dbe576040517f08c379a0000000000000000000000000000000000000000000000000000000008152600401610db590611a90565b60405180910390fd5b81600260008573ffffffffffffffffffffffffffffffffffffffff1673ffffffffffffffffffffffffffffffffffffffff16815260200190815260200160002081905550818373ffffffffffffffffffffffffffffffffffffffff167fdb60cb8fe80302625e728ded9284a2be011e2591a3381941e19765ae3526c0fb60405160405180910390a3505050565b600080600084815260200190815260200160002060000160008373ffffffffffffffffffffffffffffffffffffffff1673ffffffffffffffffffffffffffffffffffffffff16815260200190815260200160002060009054906101000a900460ff16905092915050565b7feefb95e842a3287179d933b4460be539a1d5af11aa8b325bb45c5c8dc92de4ed81565b6000801b81565b60007feefb95e842a3287179d933b4460be539a1d5af11aa8b325bb45c5c8dc92de4ed821480610f2f57507f9dd0c3bd9bb5e1c820c362d05d5cb38480246edb10ff416751bc3dcaccab86fe82145b80610f5957507ffbd454f36a7e1a388bd6fc3ab10d434aa4578f811acbbcf33afb1c697486313c82145b9050919050565b6000600260008373ffffffffffffffffffffffffffffffffffffffff1673ffffffffffffffffffffffffffffffffffffffff168152602001908152602001600020549050919050565b6000801b610fb6816112a2565b600073ffffffffffffffffffffffffffffffffffffffff168373ffffffffffffffffffffffffffffffffffffffff1603611025576040517f08c379a000000000000000000000000000000000000000000000000000000000815260040161101c906119b8565b60405180910390fd5b61102e82610604565b61106d576040517f08c379a000000000000000000000000000000000000000000000000000000000815260040161106490611a24565b60405180910390fd5b61107782846105e2565b6000801b600260008573ffffffffffffffffffffffffffffffffffffffff1673ffffffffffffffffffffffffffffffffffffffff16815260200190815260200160002054036111495781600260008573ffffffffffffffffffffffffffffffffffffffff1673ffffffffffffffffffffffffffffffffffffffff16815260200190815260200160002081905550818373ffffffffffffffffffffffffffffffffffffffff167fdb60cb8fe80302625e728ded9284a2be011e2591a3381941e19765ae3526c0fb60405160405180910390a35b818373ffffffffffffffffffffffffffffffffffffffff167fc5d15e78ba9e73e59b2c91f5ec783e626470d976d290163eeec77636e832e0bf60405160405180910390a3505050565b61119b826105c3565b6111a4816112a2565b6111ae8383611429565b50505050565b7ffbd454f36a7e1a388bd6fc3ab10d434aa4578f811acbbcf33afb1c697486313c81565b7f2f3a5455f35aeca177ac653592f277fbe2fbafef01081a2030451bb2fb41c91d81565b600060016000848152602001908152602001600020600083815260200190815260200160002060009054906101000a900460ff16905092915050565b60007f01ffc9a7000000000000000000000000000000000000000000000000000000007bffffffffffffffffffffffffffffffffffffffffffffffffffffffff1916827bffffffffffffffffffffffffffffffffffffffffffffffffffffffff1916149050919050565b6112b3816112ae611421565b61151b565b50565b8060016000858152602001908152602001600020600084815260200190815260200160002060006101000a81548160ff02191690831515021790555081837faf25fa890fd07eca9d60fbc1cf016d1691791b553da956c4851887a8816a1450836040516113239190611611565b60405180910390a3505050565b600061133c8383610e4b565b61141657600160008085815260200190815260200160002060000160008473ffffffffffffffffffffffffffffffffffffffff1673ffffffffffffffffffffffffffffffffffffffff16815260200190815260200160002060006101000a81548160ff0219169083151502179055506113b3611421565b73ffffffffffffffffffffffffffffffffffffffff168273ffffffffffffffffffffffffffffffffffffffff16847f2f8788117e7eff1d82e926ec794901d17c78024a50270940304540a733656f0d60405160405180910390a46001905061141b565b600090505b92915050565b600033905090565b60006114358383610e4b565b1561151057600080600085815260200190815260200160002060000160008473ffffffffffffffffffffffffffffffffffffffff1673ffffffffffffffffffffffffffffffffffffffff16815260200190815260200160002060006101000a81548160ff0219169083151502179055506114ad611421565b73ffffffffffffffffffffffffffffffffffffffff168273ffffffffffffffffffffffffffffffffffffffff16847ff6391f5c32d9c69d2a47ea670b442974b53935d1edc7fd64eb21e047a839171b60405160405180910390a460019050611515565b600090505b92915050565b6115258282610e4b565b6115685780826040517fe2517d3f00000000000000000000000000000000000000000000000000000000815260040161155f929190611abf565b60405180910390fd5b5050565b600080fd5b60007fffffffff0000000000000000000000000000000000000000000000000000000082169050919050565b6115a681611571565b81146115b157600080fd5b50565b6000813590506115c38161159d565b92915050565b6000602082840312156115df576115de61156c565b5b60006115ed848285016115b4565b91505092915050565b60008115159050919050565b61160b816115f6565b82525050565b60006020820190506116266000830184611602565b92915050565b6000819050919050565b61163f8161162c565b811461164a57600080fd5b50565b60008135905061165c81611636565b92915050565b61166b816115f6565b811461167657600080fd5b50565b60008135905061168881611662565b92915050565b6000806000606084860312156116a7576116a661156c565b5b60006116b58682870161164d565b93505060206116c68682870161164d565b92505060406116d786828701611679565b9150509250925092565b6000602082840312156116f7576116f661156c565b5b60006117058482850161164d565b91505092915050565b6117178161162c565b82525050565b6000602082019050611732600083018461170e565b92915050565b600073ffffffffffffffffffffffffffffffffffffffff82169050919050565b600061176382611738565b9050919050565b61177381611758565b811461177e57600080fd5b50565b6000813590506117908161176a565b92915050565b600080604083850312156117ad576117ac61156c565b5b60006117bb8582860161164d565b92505060206117cc85828601611781565b9150509250929050565b600080604083850312156117ed576117ec61156c565b5b60006117fb85828601611781565b925050602061180c8582860161164d565b9150509250929050565b60006020828403121561182c5761182b61156c565b5b600061183a84828501611781565b91505092915050565b6000806040838503121561185a5761185961156c565b5b60006118688582860161164d565b92505060206118798582860161164d565b9150509250929050565b600082825260208201905092915050565b7f556e737570706f727465642073656e64657220726f6c65000000000000000000600082015250565b60006118ca601783611883565b91506118d582611894565b602082019050919050565b600060208201905081810360008301526118f9816118bd565b9050919050565b7f556e737570706f7274656420726563656976657220726f6c6500000000000000600082015250565b6000611936601983611883565b915061194182611900565b602082019050919050565b6000602082019050818103600083015261196581611929565b9050919050565b7f496e76616c6964206163636f756e740000000000000000000000000000000000600082015250565b60006119a2600f83611883565b91506119ad8261196c565b602082019050919050565b600060208201905081810360008301526119d181611995565b9050919050565b7f556e737570706f7274656420726f6c6500000000000000000000000000000000600082015250565b6000611a0e601083611883565b9150611a19826119d8565b602082019050919050565b60006020820190508181036000830152611a3d81611a01565b9050919050565b7f4163636f756e7420646f6573206e6f74206861766520726f6c65000000000000600082015250565b6000611a7a601a83611883565b9150611a8582611a44565b602082019050919050565b60006020820190508181036000830152611aa981611a6d565b9050919050565b611ab981611758565b82525050565b6000604082019050611ad46000830185611ab0565b611ae1602083018461170e565b939250505056fea2646970667358221220836a9bfea5ace7942ab898ae6d667bd551cc7d04705e3e14bc81bf80fa4cc31764736f6c634300081c0033",
  "linkReferences": {},
  "deployedLinkReferences": {}
}