{
  "_format": "hh-sol-artifact-1",
  "contractName": "SupplyChainAccessControl",
  "sourceName": "contracts/SupplyChainAccessControl.sol",
  "abi": [
    {
      "inputs": [
        {
          "internalType": "address",
          "name": "admin",
          "type": "address"
        }
      ],
      "stateMutability": "nonpayable",
      "type": "constructor"
    },
    {
      "inputs": [],
      "name": "AccessControlBadConfirmation",
      "type": "error"
    },
    {
      "inputs": [
        {
          "internalType": "address",
          "name": "account",
          "type": "address"
        },
        {
          "internalType": "bytes32",
          "name": "neededRole",
          "type": "bytes32"
        }
      ],
      "name": "AccessControlUnauthorizedAccount",
      "type": "error"
    },
    {
      "anonymous": false,
      "inputs": [],
      "name": "MvpRoutesConfigured",
      "type": "event"
    },
    {
      "anonymous": false,
      "inputs": [
        {
          "indexed": true,
          "internalType": "address",
          "name": "account",
          "type": "address"
        },
        {
          "indexed": true,
          "internalType": "bytes32",
          "name": "role",
          "type": "bytes32"
        }
      ],
      "name": "PrimaryRoleSet",
      "type": "event"
    },
    {
      "anonymous": false,
      "inputs": [
        {
          "indexed": true,
          "internalType": "bytes32",
          "name": "role",
          "type": "bytes32"
        },
        {
          "indexed": true,
          "internalType": "bytes32",
          "name": "previousAdminRole",
          "type": "bytes32"
        },
        {
          "indexed": true,
          "internalType": "bytes32",
          "name": "newAdminRole",
          "type": "bytes32"
        }
      ],
      "name": "RoleAdminChanged",
      "type": "event"
    },
    {
      "anonymous": false,
      "inputs": [
        {
          "indexed": true,
          "internalType": "bytes32",
          "name": "role",
          "type": "bytes32"
        },
        {
          "indexed": true,
          "internalType": "address",
          "name": "account",
          "type": "address"
        },
        {
          "indexed": true,
          "internalType": "address",
          "name": "sender",
          "type": "address"
        }
      ],
      "name": "RoleGranted",
      "type": "event"
    },
    {
      "anonymous": false,
      "inputs": [
        {
          "indexed": true,
          "internalType": "bytes32",
          "name": "role",
          "type": "bytes32"
        },
        {
          "indexed": true,
          "internalType": "address",
          "name": "account",
          "type": "address"
        },
        {
          "indexed": true,
          "internalType": "address",
          "name": "sender",
          "type": "address"
        }
      ],
      "name": "RoleRevoked",
      "type": "event"
    },
    {
      "anonymous": false,
      "inputs": [
        {
          "indexed": true,
          "internalType": "bytes32",
          "name": "fromRole",
          "type": "bytes32"
        },
        {
          "indexed": true,
          "internalType": "bytes32",
          "name": "toRole",
          "type": "bytes32"
        },
        {
          "indexed": false,
          "internalType": "bool",
          "name": "allowed",
          "type": "bool"
        }
      ],
      "name": "RouteUpdated",
      "type": "event"
    },
    {
      "anonymous": false,
      "inputs": [
        {
          "indexed": true,
          "internalType": "address",
          "name": "account",
          "type": "address"
        },
        {
          "indexed": true,
          "internalType": "bytes32",
          "name": "role",
          "type": "bytes32"
        }
      ],
      "name": "UserRoleGranted",
      "type": "event"
    },
    {
      "anonymous": false,
      "inputs": [
        {
          "indexed": true,
          "internalType": "address",
          "name": "account",
          "type": "address"
        },
        {
          "indexed": true,
          "internalType": "bytes32",
          "name": "role",
          "type": "bytes32"
        }
      ],
      "name": "UserRoleRevoked",
      "type": "event"
    },
    {
      "inputs": [],
      "name": "AUDITOR_ROLE",
      "outputs": [
        {
          "internalType": "bytes32",
          "name": "",
          "type": "bytes32"
        }
      ],
      "stateMutability": "view",
      "type": "function"
    },
    {
      "inputs": [],
      "name": "CLINIC_ROLE",
      "outputs": [
        {
          "internalType": "bytes32",
          "name": "",
          "type": "bytes32"
        }
      ],
      "stateMutability": "view",
      "type": "function"
    },
    {
      "inputs": [],
      "name": "DEFAULT_ADMIN_ROLE",
      "outputs": [
        {
          "internalType": "bytes32",
          "name": "",
          "type": "bytes32"
        }
      ],
      "stateMutability": "view",
      "type": "function"
    },
    {
      "inputs": [],
      "name": "DISTRIBUTOR_ROLE",
      "outputs": [
        {
          "internalType": "bytes32",
          "name": "",
          "type": "bytes32"
        }
      ],
      "stateMutability": "view",
      "type": "function"
    },
    {
      "inputs": [],
      "name": "IMPORTER_ROLE",
      "outputs": [
        {
          "internalType": "bytes32",
          "name": "",
          "type": "bytes32"
        }
      ],
      "stateMutability": "view",
      "type": "function"
    },
    {
      "inputs": [],
      "name": "MANUFACTURER_ROLE",
      "outputs": [
        {
          "internalType": "bytes32",
          "name": "",
          "type": "bytes32"
        }
      ],
      "stateMutability": "view",
      "type": "function"
    },
    {
      "inputs": [],
      "name": "PHARMACY_ROLE",
      "outputs": [
        {
          "internalType": "bytes32",
          "name": "",
          "type": "bytes32"
        }
      ],
      "stateMutability": "view",
      "type": "function"
    },
    {
      "inputs": [],
      "name": "RECALL_AUTHORITY_ROLE",
      "outputs": [
        {
          "internalType": "bytes32",
          "name": "",
          "type": "bytes32"
        }
      ],
      "stateMutability": "view",
      "type": "function"
    },
    {
      "inputs": [
        {
          "internalType": "bytes32",
          "name": "role",
          "type": "bytes32"
        }
      ],
      "name": "canInitiateTransfer",
      "outputs": [
        {
          "internalType": "bool",
          "name": "",
          "type": "bool"
        }
      ],
      "stateMutability": "pure",
      "type": "function"
    },
    {
      "inputs": [
        {
          "internalType": "bytes32",
          "name": "role",
          "type": "bytes32"
        }
      ],
      "name": "canReceiveTransfer",
      "outputs": [
        {
          "internalType": "bool",
          "name": "",
          "type": "bool"
        }
      ],
      "stateMutability": "pure",
      "type": "function"
    },
    {
      "inputs": [],
      "name": "configureMvpRoutes",
      "outputs": [],
      "stateMutability": "nonpayable",
      "type": "function"
    },
    {
      "inputs": [
        {
          "internalType": "address",
          "name": "account",
          "type": "address"
        }
      ],
      "name": "getPrimaryRole",
      "outputs": [
        {
          "internalType": "bytes32",
          "name": "",
          "type": "bytes32"
        }
      ],
      "stateMutability": "view",
      "type": "function"
    },
    {
      "inputs": [
        {
          "internalType": "bytes32",
          "name": "role",
          "type": "bytes32"
        }
      ],
      "name": "getRoleAdmin",
      "outputs": [
        {
          "internalType": "bytes32",
          "name": "",
          "type": "bytes32"
        }
      ],
      "stateMutability": "view",
      "type": "function"
    },
    {
      "inputs": [
        {
          "internalType": "bytes32",
          "name": "role",
          "type": "bytes32"
        },
        {
          "internalType": "address",
          "name": "account",
          "type": "address"
        }
      ],
      "name": "grantRole",
      "outputs": [],
      "stateMutability": "nonpayable",
      "type": "function"
    },
    {
      "inputs": [
        {
          "internalType": "address",
          "name": "account",
          "type": "address"
        },
        {
          "internalType": "bytes32",
          "name": "role",
          "type": "bytes32"
        }
      ],
      "name": "grantUserRole",
      "outputs": [],
      "stateMutability": "nonpayable",
      "type": "function"
    },
    {
      "inputs": [
        {
          "internalType": "bytes32",
          "name": "role",
          "type": "bytes32"
        },
        {
          "internalType": "address",
          "name": "account",
          "type": "address"
        }
      ],
      "name": "hasRole",
      "outputs": [
        {
          "internalType": "bool",
          "name": "",
          "type": "bool"
        }
      ],
      "stateMutability": "view",
      "type": "function"
    },
    {
      "inputs": [
        {
          "internalType": "bytes32",
          "name": "role",
          "type": "bytes32"
        }
      ],
      "name": "isSupportedRole",
      "outputs": [
        {
          "internalType": "bool",
          "name": "",
          "type": "bool"
        }
      ],
      "stateMutability": "pure",
      "type": "function"
    },
    {
      "inputs": [
        {
          "internalType": "bytes32",
          "name": "fromRole",
          "type": "bytes32"
        },
        {
          "internalType": "bytes32",
          "name": "toRole",
          "type": "bytes32"
        }
      ],
      "name": "isValidRoute",
      "outputs": [
        {
          "internalType": "bool",
          "name": "",
          "type": "bool"
        }
      ],
      "stateMutability": "view",
      "type": "function"
    },
    {
      "inputs": [
        {
          "internalType": "bytes32",
          "name": "role",
          "type": "bytes32"
        },
        {
          "internalType": "address",
          "name": "callerConfirmation",
          "type": "address"
        }
      ],
      "name": "renounceRole",
      "outputs": [],
      "stateMutability": "nonpayable",
      "type": "function"
    },
    {
      "inputs": [
        {
          "internalType": "bytes32",
          "name": "role",
          "type": "bytes32"
        },
        {
          "internalType": "address",
          "name": "account",
          "type": "address"
        }
      ],
      "name": "revokeRole",
      "outputs": [],
      "stateMutability": "nonpayable",
      "type": "function"
    },
    {
      "inputs": [
        {
          "internalType": "address",
          "name": "account",
          "type": "address"
        },
        {
          "internalType": "bytes32",
          "name": "role",
          "type": "bytes32"
        }
      ],
      "name": "revokeUserRole",
      "outputs": [],
      "stateMutability": "nonpayable",
      "type": "function"
    },
    {
      "inputs": [
        {
          "internalType": "address",
          "name": "account",
          "type": "address"
        },
        {
          "internalType": "bytes32",
          "name": "role",
          "type": "bytes32"
        }
      ],
      "name": "setPrimaryRole",
      "outputs": [],
      "stateMutability": "nonpayable",
      "type": "function"
    },
    {
      "inputs": [
        {
          "internalType": "bytes32",
          "name": "fromRole",
          "type": "bytes32"
        },
        {
          "internalType": "bytes32",
          "name": "toRole",
          "type": "bytes32"
        },
        {
          "internalType": "bool",
          "name": "allowed",
          "type": "bool"
        }
      ],
      "name": "setRoute",
      "outputs": [],
      "stateMutability": "nonpayable",
      "type": "function"
    },
    {
      "inputs": [
        {
          "internalType": "bytes4",
          "name": "interfaceId",
          "type": "bytes4"
        }
      ],
      "name": "supportsInterface",
      "outputs": [
        {
          "internalType": "bool",
          "name": "",
          "type": "bool"
        }
      ],
      "stateMutability": "view",
      "type": "function"
    }
  ],
  "bytecode": "0x6080346100a357601f6112b938819003918201601f19168301916001600160401b038311848410176100a8578084926020946040528339810103126100a357516001600160a01b0381168082036100a3571561006e5761005e906100be565b5060405161114c908161014d8239f35b60405162461bcd60e51b815260206004820152600d60248201526c24b73b30b634b21030b236b4b760991b6044820152606490fd5b600080fd5b634e487b7160e01b600052604160045260246000fd5b6001600160a01b0381166000908152600080516020611299833981519152602052604090205460ff16610146576001600160a01b0316600081815260008051602061129983398151915260205260408120805460ff191660011790553391907f2f8788117e7eff1d82e926ec794901d17c78024a50270940304540a733656f0d8180a4600190565b5060009056fe608080604052600436101561001357600080fd5b60003560e01c90816301ffc9a714610c10575080630f5403ad14610afd578063248a9ca314610ac85780632f2ff15d14610a88578063302be1a314610a6a57806336568abe14610a245780634188327f14610a065780634906f8a9146109205780635bd5700e1461058e578063640ab953146105535780636e1d616e146105185780636fa2a067146104ef57806382673e77146104c65780638929a776146103e257806391d1485414610395578063965288b01461036c578063a217fddf14610350578063b198e1ed14610328578063d19c7191146102ee578063d49137a914610204578063d547741f146101bd578063f0bd87cc14610194578063f0c58ea71461016b5763fc191a2a1461012757600080fd5b346101665760403660031901126101665760043560005260016020526040600020602435600052602052602060ff604060002054166040519015158152f35b600080fd5b346101665760003660031901126101665760206040516000805160206110f78339815191528152f35b346101665760003660031901126101665760206040516000805160206110978339815191528152f35b34610166576040366003190112610166576102026004356101dc610c63565b906101fd6101f882600052600060205260016040600020015490565b610f0e565b610fd4565b005b346101665760403660031901126101665761021d610c79565b60243590610229610ebb565b6001600160a01b0381169061027590610243831515610dee565b61025461024f85610c8f565b610e2c565b61026f6101f885600052600060205260016040600020015490565b83610f49565b50806000526002602052604060002054156102b2575b7fc5d15e78ba9e73e59b2c91f5ec783e626470d976d290163eeec77636e832e0bf600080a3005b8060005260026020528160406000205581817fdb60cb8fe80302625e728ded9284a2be011e2591a3381941e19765ae3526c0fb600080a361028b565b34610166576020366003190112610166576001600160a01b0361030f610c79565b1660005260026020526020604060002054604051908152f35b34610166576020366003190112610166576020610346600435610e6b565b6040519015158152f35b3461016657600036600319011261016657602060405160008152f35b346101665760003660031901126101665760206040516000805160206110778339815191528152f35b34610166576040366003190112610166576103ae610c63565b600435600052600060205260406000209060018060a01b0316600052602052602060ff604060002054166040519015158152f35b34610166576040366003190112610166576103fb610c79565b60243590610407610ebb565b6001600160a01b031661041b811515610dee565b61042761024f83610c8f565b81600052600060205260406000208160005260205260ff604060002054161561048157806000526002602052816040600020557fdb60cb8fe80302625e728ded9284a2be011e2591a3381941e19765ae3526c0fb600080a3005b60405162461bcd60e51b815260206004820152601a60248201527f4163636f756e7420646f6573206e6f74206861766520726f6c650000000000006044820152606490fd5b346101665760003660031901126101665760206040516000805160206110b78339815191528152f35b346101665760003660031901126101665760206040516000805160206110d78339815191528152f35b346101665760003660031901126101665760206040517f59a1c48e5837ad7a7f3dcedcbe129bf3249ec4fbf651fd4f5e2600ead39fe2f58152f35b346101665760003660031901126101665760206040517f53790c0a8b785aa2d322b9af6deababb51631b04fecccd73685fd13875f5571f8152f35b34610166576000366003190112610166576105a7610ebb565b6000805160206110d783398151915260008190527f9bf69c02ecb57bec2332bd5ee59fccb5621131eaae23124e1464351ca514c16260209081527f9ef99aca2e540319a93aba00c41311b9c4733fda02ae149e8700753b4bb60e5f805460ff191660019081179091556040519081526000805160206110778339815191529160008051602061105783398151915291a360008051602061109783398151915260008190527f9bf69c02ecb57bec2332bd5ee59fccb5621131eaae23124e1464351ca514c16260209081527f374923b775d6336384bbbf9f8aeb5ae46b5e77e685b3543e63509f7d2208ea60805460ff191660019081179091556040519081526000805160206110778339815191529160008051602061105783398151915291a360008051602061109783398151915260008190527fc7dd095393f955e869f40ed35eaff5d9062b02d8abcdac19856388e590ec747260209081527ff8c9dc2326977dec6ed6c47b27af3d01c0a3da30e97c5904070c4823cd1c3474805460ff191660019081179091556040519081526000805160206110d78339815191529160008051602061105783398151915291a360008051602061109783398151915260008190527f210932760c18fe8bc12f9d1bd245c25c0f21fa2541f289eb5b159588ce1f7b3f60209081527f75a81a406f06ba355189b269207a45cddd5ccaf4ed75bc6055fb27d99d7f1697805460ff19166001908117909155604051908152829160008051602061105783398151915291a36000805160206110b783398151915260008190527f210932760c18fe8bc12f9d1bd245c25c0f21fa2541f289eb5b159588ce1f7b3f60209081527f7a8cf1e59d6e8ff27b1db6c8c1cc3b31f5e6e642a93869ae5597338a1f8e4608805460ff191660019081179091556040519081526000805160206110978339815191529160008051602061105783398151915291a36000805160206110f783398151915260008190527f210932760c18fe8bc12f9d1bd245c25c0f21fa2541f289eb5b159588ce1f7b3f60209081527fc848f2e84baed677239de55fff75071dc608cbb5340d6c3a3f4b583821443448805460ff191660019081179091556040519081526000805160206110978339815191529160008051602061105783398151915291a37fb789139fdd65612d4e25b9f01f883a9019554d55cb3390b63fd6e18afb04289f600080a1005b3461016657604036600319011261016657610939610c79565b60243590610945610ebb565b6001600160a01b0381169061098c9061095f831515610dee565b61096b61024f85610c8f565b6109866101f885600052600060205260016040600020015490565b83610fd4565b5080600052600260205281604060002054146109ca575b7f6e2b227fdda719e2696d7e06c8f2391ef19dee3296ff6737a92acd099622b87b600080a3005b806000526002602052600060408120556000817fdb60cb8fe80302625e728ded9284a2be011e2591a3381941e19765ae3526c0fb8280a36109a3565b34610166576020366003190112610166576020610346600435610d7f565b3461016657604036600319011261016657610a3d610c63565b336001600160a01b03821603610a595761020290600435610fd4565b63334bd91960e11b60005260046000fd5b34610166576020366003190112610166576020610346600435610c8f565b3461016657604036600319011261016657610202600435610aa7610c63565b90610ac36101f882600052600060205260016040600020015490565b610f49565b34610166576020366003190112610166576020610af5600435600052600060205260016040600020015490565b604051908152f35b34610166576060366003190112610166576004356024359060443580151580910361016657610b2a610ebb565b610b3382610e6b565b15610bcb57610b4183610d7f565b15610b865760206000805160206110578339815191529183600052600182526040600020856000528252604060002060ff1981541660ff8316179055604051908152a3005b60405162461bcd60e51b815260206004820152601960248201527f556e737570706f7274656420726563656976657220726f6c65000000000000006044820152606490fd5b60405162461bcd60e51b815260206004820152601760248201527f556e737570706f727465642073656e64657220726f6c650000000000000000006044820152606490fd5b34610166576020366003190112610166576004359063ffffffff60e01b821680920361016657602091637965db0b60e01b8114908115610c52575b5015158152f35b6301ffc9a760e01b14905083610c4b565b602435906001600160a01b038216820361016657565b600435906001600160a01b038216820361016657565b6000805160206110778339815191528114908115610d67575b8115610d4f575b8115610d37575b8115610d1f575b8115610cf5575b8115610cce575090565b7f53790c0a8b785aa2d322b9af6deababb51631b04fecccd73685fd13875f5571f91501490565b7f59a1c48e5837ad7a7f3dcedcbe129bf3249ec4fbf651fd4f5e2600ead39fe2f581149150610cc4565b6000805160206110f783398151915281149150610cbd565b6000805160206110b783398151915281149150610cb6565b60008051602061109783398151915281149150610caf565b6000805160206110d783398151915281149150610ca8565b6000805160206110d78339815191528114908115610dd6575b8115610dbe575b8115610da9575090565b6000805160206110f783398151915291501490565b6000805160206110b783398151915281149150610d9f565b60008051602061109783398151915281149150610d98565b15610df557565b60405162461bcd60e51b815260206004820152600f60248201526e125b9d985b1a59081858d8dbdd5b9d608a1b6044820152606490fd5b15610e3357565b60405162461bcd60e51b815260206004820152601060248201526f556e737570706f7274656420726f6c6560801b6044820152606490fd5b6000805160206110778339815191528114908115610ea3575b8115610e8e575090565b60008051602061109783398151915291501490565b6000805160206110d783398151915281149150610e84565b3360009081527fad3228b676f7d3cd4284a5443f17f1962b36e491b30a40b2405849e597ba5fb5602052604090205460ff1615610ef457565b63e2517d3f60e01b60005233600452600060245260446000fd5b60008181526020818152604080832033845290915290205460ff1615610f315750565b63e2517d3f60e01b6000523360045260245260446000fd5b6000818152602081815260408083206001600160a01b038616845290915290205460ff16610fcd576000818152602081815260408083206001600160a01b0395909516808452949091528120805460ff19166001179055339291907f2f8788117e7eff1d82e926ec794901d17c78024a50270940304540a733656f0d9080a4600190565b5050600090565b6000818152602081815260408083206001600160a01b038616845290915290205460ff1615610fcd576000818152602081815260408083206001600160a01b0395909516808452949091528120805460ff19169055339291907ff6391f5c32d9c69d2a47ea670b442974b53935d1edc7fd64eb21e047a839171b9080a460019056feaf25fa890fd07eca9d60fbc1cf016d1691791b553da956c4851887a8816a1450eefb95e842a3287179d933b4460be539a1d5af11aa8b325bb45c5c8dc92de4edfbd454f36a7e1a388bd6fc3ab10d434aa4578f811acbbcf33afb1c697486313c1976159518e32c975351d3eb18509d62ab7629098636e52c6ce63466e939167f9dd0c3bd9bb5e1c820c362d05d5cb38480246edb10ff416751bc3dcaccab86fe2f3a5455f35aeca177ac653592f277fbe2fbafef01081a2030451bb2fb41c91da26469706673582212200913c636feb6abb907d195e9b364ce45fd382d8965c792ee44e92869826e253164736f6c634300081c0033ad3228b676f7d3cd4284a5443f17f1962b36e491b30a40b2405849e597ba5fb5",
  "linkReferences": {},
  "deployedLinkReferences": {}
}