{
  "_format": "hh-sol-artifact-1",
  "contractName": "TransferLedger",
  "sourceName": "contracts/TransferLedger.sol",
  "abi": [
    {
      "inputs": [
        {
          "internalType": "address",
          "name": "productRegistryAddress",
          "type": "address"
        },
        {
          "internalType": "address",
          "name": "accessControlAddress",
          "type": "address"
        }
      ],
      "stateMutability": "nonpayable",
      "type": "constructor"
    },
    {
      "anonymous": false,
      "inputs": [
        {
          "indexed": true,
          "internalType": "bytes32",
          "name": "serialID",
          "type": "bytes32"
        },
        {
          "indexed": false,
          "internalType": "bytes32",
          "name": "previousLocationHash",
          "type": "bytes32"
        },
        {
          "indexed": false,
          "internalType": "bytes32",
          "name": "newLocationHash",
          "type": "bytes32"
        },
        {
          "indexed": false,
          "internalType": "uint256",
          "name": "previousTimestamp",
          "type": "uint256"
        },
        {
          "indexed": false,
          "internalType": "uint256",
          "name": "newTimestamp",
          "type": "uint256"
        }
      ],
      "name": "DoubleScanDetected",
      "type": "event"
    },
    {
      "anonymous": false,
      "inputs": [
        {
          "indexed": true,
          "internalType": "bytes32",
          "name": "serialID",
          "type": "bytes32"
        },
        {
          "indexed": true,
          "internalType": "address",
          "name": "sender",
          "type": "address"
        },
        {
          "indexed": true,
          "internalType": "address",
          "name": "receiver",
          "type": "address"
        },
        {
          "indexed": false,
          "internalType": "uint256",
          "name": "confirmedAt",
          "type": "uint256"
        }
      ],
      "name": "TransferConfirmed",
      "type": "event"
    },
    {
      "anonymous": false,
      "inputs": [
        {
          "indexed": true,
          "internalType": "bytes32",
          "name": "serialID",
          "type": "bytes32"
        },
        {
          "indexed": true,
          "internalType": "address",
          "name": "sender",
          "type": "address"
        },
        {
          "indexed": true,
          "internalType": "address",
          "name": "receiver",
          "type": "address"
        },
        {
          "indexed": false,
          "internalType": "bytes32",
          "name": "reason",
          "type": "bytes32"
        }
      ],
      "name": "TransferRejected",
      "type": "event"
    },
    {
      "anonymous": false,
      "inputs": [
        {
          "indexed": true,
          "internalType": "bytes32",
          "name": "serialID",
          "type": "bytes32"
        },
        {
          "indexed": true,
          "internalType": "address",
          "name": "sender",
          "type": "address"
        },
        {
          "indexed": true,
          "internalType": "address",
          "name": "receiver",
          "type": "address"
        },
        {
          "indexed": false,
          "internalType": "bytes32",
          "name": "fromLocationHash",
          "type": "bytes32"
        },
        {
          "indexed": false,
          "internalType": "bytes32",
          "name": "toLocationHash",
          "type": "bytes32"
        },
        {
          "indexed": false,
          "internalType": "uint256",
          "name": "requestedAt",
          "type": "uint256"
        }
      ],
      "name": "TransferRequested",
      "type": "event"
    },
    {
      "inputs": [],
      "name": "DOUBLE_SCAN_WINDOW",
      "outputs": [
        {
          "internalType": "uint256",
          "name": "",
          "type": "uint256"
        }
      ],
      "stateMutability": "view",
      "type": "function"
    },
    {
      "inputs": [],
      "name": "REASON_DOUBLE_SCAN",
      "outputs": [
        {
          "internalType": "bytes32",
          "name": "",
          "type": "bytes32"
        }
      ],
      "stateMutability": "view",
      "type": "function"
    },
    {
      "inputs": [],
      "name": "REASON_INVALID_ROUTE",
      "outputs": [
        {
          "internalType": "bytes32",
          "name": "",
          "type": "bytes32"
        }
      ],
      "stateMutability": "view",
      "type": "function"
    },
    {
      "inputs": [],
      "name": "RISK_HIGH",
      "outputs": [
        {
          "internalType": "uint8",
          "name": "",
          "type": "uint8"
        }
      ],
      "stateMutability": "view",
      "type": "function"
    },
    {
      "inputs": [],
      "name": "accessControl",
      "outputs": [
        {
          "internalType": "contract ISupplyChainAccessControl",
          "name": "",
          "type": "address"
        }
      ],
      "stateMutability": "view",
      "type": "function"
    },
    {
      "inputs": [
        {
          "internalType": "bytes32",
          "name": "serialID",
          "type": "bytes32"
        },
        {
          "internalType": "bytes32",
          "name": "receiverLocationHash",
          "type": "bytes32"
        }
      ],
      "name": "confirmTransfer",
      "outputs": [],
      "stateMutability": "nonpayable",
      "type": "function"
    },
    {
      "inputs": [
        {
          "internalType": "bytes32",
          "name": "serialID",
          "type": "bytes32"
        },
        {
          "internalType": "address",
          "name": "receiver",
          "type": "address"
        },
        {
          "internalType": "bytes32",
          "name": "fromLocationHash",
          "type": "bytes32"
        },
        {
          "internalType": "bytes32",
          "name": "toLocationHash",
          "type": "bytes32"
        }
      ],
      "name": "createTransferRequest",
      "outputs": [],
      "stateMutability": "nonpayable",
      "type": "function"
    },
    {
      "inputs": [
        {
          "internalType": "bytes32",
          "name": "serialID",
          "type": "bytes32"
        }
      ],
      "name": "getTransferHistory",
      "outputs": [
        {
          "components": [
            {
              "internalType": "bytes32",
              "name": "serialID",
              "type": "bytes32"
            },
            {
              "internalType": "address",
              "name": "from",
              "type": "address"
            },
            {
              "internalType": "address",
              "name": "to",
              "type": "address"
            },
            {
              "internalType": "bytes32",
              "name": "fromRole",
              "type": "bytes32"
            },
            {
              "internalType": "bytes32",
              "name": "toRole",
              "type": "bytes32"
            },
            {
              "internalType": "bytes32",
              "name": "fromLocationHash",
              "type": "bytes32"
            },
            {
              "internalType": "bytes32",
              "name": "toLocationHash",
              "type": "bytes32"
            },
            {
              "internalType": "uint256",
              "name": "requestedAt",
              "type": "uint256"
            },
            {
              "internalType": "uint256",
              "name": "confirmedAt",
              "type": "uint256"
            }
          ],
          "internalType": "struct TransferLedger.TransferRecord[]",
          "name": "",
          "type": "tuple[]"
        }
      ],
      "stateMutability": "view",
      "type": "function"
    },
    {
      "inputs": [
        {
          "internalType": "bytes32",
          "name": "serialID",
          "type": "bytes32"
        }
      ],
      "name": "getTransferHistoryLength",
      "outputs": [
        {
          "internalType": "uint256",
          "name": "",
          "type": "uint256"
        }
      ],
      "stateMutability": "view",
      "type": "function"
    },
    {
      "inputs": [
        {
          "internalType": "bytes32",
          "name": "",
          "type": "bytes32"
        }
      ],
      "name": "lastScans",
      "outputs": [
        {
          "internalType": "uint256",
          "name": "timestamp",
          "type": "uint256"
        },
        {
          "internalType": "bytes32",
          "name": "locationHash",
          "type": "bytes32"
        }
      ],
      "stateMutability": "view",
      "type": "function"
    },
    {
      "inputs": [
        {
          "internalType": "bytes32",
          "name": "",
          "type": "bytes32"
        }
      ],
      "name": "pendingTransfers",
      "outputs": [
        {
          "internalType": "bytes32",
          "name": "serialID",
          "type": "bytes32"
        },
        {
          "internalType": "address",
          "name": "sender",
          "type": "address"
        },
        {
          "internalType": "address",
          "name": "receiver",
          "type": "address"
        },
        {
          "internalType": "bytes32",
          "name": "senderRole",
          "type": "bytes32"
        },
        {
          "internalType": "bytes32",
          "name": "receiverRole",
          "type": "bytes32"
        },
        {
          "internalType": "bytes32",
          "name": "fromLocationHash",
          "type": "bytes32"
        },
        {
          "internalType": "bytes32",
          "name": "toLocationHash",
          "type": "bytes32"
        },
        {
          "internalType": "uint256",
          "name": "requestedAt",
          "type": "uint256"
        },
        {
          "internalType": "bool",
          "name": "exists",
          "type": "bool"
        }
      ],
      "stateMutability": "view",
      "type": "function"
    },
    {
      "inputs": [],
      "name": "productRegistry",
      "outputs": [
        {
          "internalType": "contract IProductRegistry",
          "name": "",
          "type": "address"
        }
      ],
      "stateMutability": "view",
      "type": "function"
    },
    {
      "inputs": [
        {
          "internalType": "bytes32",
          "name": "serialID",
          "type": "bytes32"
        },
        {
          "internalType": "bytes32",
          "name": "reason",
          "type": "bytes32"
        }
      ],
      "name": "rejectTransfer",
      "outputs": [],
      "stateMutability": "nonpayable",
      "type": "function"
    }
  ],
  "bytecode": "0x60803461012057601f61181238819003918201601f19168301916001600160401b0383118484101761012557808492604094855283398101031261012057610052602061004b8361013b565b920161013b565b6001600160a01b039091169081156100e8576001600160a01b03169081156100a35760018060a01b0319600054161760005560018060a01b031960015416176001556040516116c290816101508239f35b60405162461bcd60e51b815260206004820152601660248201527f496e76616c69642061636365737320636f6e74726f6c000000000000000000006044820152606490fd5b60405162461bcd60e51b815260206004820152601060248201526f496e76616c696420726567697374727960801b6044820152606490fd5b600080fd5b634e487b7160e01b600052604160045260246000fd5b51906001600160a01b03821682036101205756fe608080604052600436101561001357600080fd5b600090813560e01c90816313007d551461140457508063304b5317146112545780633f126c901461122a5780636fb3207d1461108f5780637a581176146110725780638d4ab2c014610fda5780639465bc23146105f65780639aa90ca7146105da5780639b47009d14610171578063e064ac5614610136578063f9eb543f1461010d578063fb5d692c146100d95763fff218c3146100b057600080fd5b346100d657806003193601126100d657546040516001600160a01b039091168152602090f35b80fd5b50346100d65760203660031901126100d6576040809160043581526004602052206001815491015482519182526020820152f35b50346100d657806003193601126100d657602060405160008051602061166d8339815191528152f35b50346100d657806003193601126100d65760206040517f6e5f9490f5df7c681a41a4ccb579c3d17bbed2e72ae620260be50bb7c9cccddd8152f35b50346100d65761018036611429565b919061018d81151561143f565b821561059957808252600260205260408220604051936101ac8561147c565b8154855260018060a01b03600183015416906020860191825260018060a01b0360028401541692604087019384526003810154906060880191825260048101546080890190815260058201549860a08101998a5261023361010060068501549260c0810193845260ff600860078801549760e08401988952015416151591829101526114ec565b61024760018060a01b03885116331461152e565b88546040516302ef145760e51b8152600481018a90526001600160a01b039091169190602081602481865afa90811561058e578b9161055f575b50600681101561054b578061029b600560029314156115cf565b6102a8600482141561160e565b03610515575185036104dc57803b156104d85788809160446040518094819363e411013b60e01b83528d60048401523360248401525af180156104cd579089916104b4575b5087905260036020526040882098899260018060a01b038751169160018060a01b03895116955193519051915193604051966103288861147c565b8b88526020880194855260408801908152606088019182526080880192835260a0880193845260c088019489865260e0890196875261010089019742895254600160401b8110156104a0578f6001820180915581101561048c578e9f60089a9b9c9d9e9f80600992602092522091020199518a5560018060a01b0390511660018a019060018060a01b031660018060a01b031982541617905560018060a01b03905116600289019060018060a01b031660018060a01b031982541617905551600388015551600487015551600586015551600685015551600784015551910155838552600260205261041c60408620611569565b60016040519161042b836114ae565b42835260208301908152858752600460205260408720925183555191015560018060a01b039051169060018060a01b03905116917f2812a5d80ae0ea7b9f3108a1a67083f47ae2b23ce91104842daa5b2d719632d66020604051428152a480f35b634e487b7160e01b8f52603260045260248ffd5b634e487b7160e01b8f52604160045260248ffd5b816104be916114c9565b6104c95787386102ed565b8780fd5b6040513d8b823e3d90fd5b8880fd5b60405162461bcd60e51b8152602060048201526011602482015270098dec6c2e8d2dedc40dad2e6dac2e8c6d607b1b6044820152606490fd5b60405162461bcd60e51b815260206004820152600e60248201526d139bdd081a5b881d1c985b9cda5d60921b6044820152606490fd5b634e487b7160e01b8b52602160045260248bfd5b610581915060203d602011610587575b61057981836114c9565b8101906115b7565b38610281565b503d61056f565b6040513d8d823e3d90fd5b60405162461bcd60e51b815260206004820152601960248201527824b73b30b634b2103932b1b2b4bb32b9103637b1b0ba34b7b760391b6044820152606490fd5b50346100d657806003193601126100d657602060405160038152f35b50346100d65760803660031901126100d6576024356001600160a01b0381169060043590829003610fd6576044359060643561063382151561143f565b8315610f9e57338414610f5d578215610f20578015610ee55784546040516326a3908b60e11b8152600481018490526001600160a01b0390911690602081602481855afa908115610dc4578791610ec6575b5015610e8d57828652600260205260ff600860408820015416610e4e57604051630eba863360e21b815260048101849052602081602481855afa908115610dc4578791610e08575b50336001600160a01b0390911603610dcf576040516302ef145760e51b815260048101849052602081602481855afa908115610dc4578791610da5575b506006811015610d915780610724600560029314156115cf565b610731600482141561160e565b14610d575760015460405163d19c719160e01b8152336004820152916001600160a01b0390911690602083602481855afa928315610d4c578893610d18575b5060405163d19c719160e01b81526004810188905291602083602481845afa9283156104cd578993610cdf575b508315610ca5578215610c695760405163b198e1ed60e01b815260048101859052602081602481855afa908115610c01578a91610c4a575b5015610c0c57604051634188327f60e01b815260048101849052602081602481855afa908115610c01578a91610be2575b5015610ba357602060449160405192838092637e0c8d1560e11b82528860048301528760248301525afa9081156104cd578991610b74575b5015610ab0575086908482526004602052604082209285604051610861816114ae565b60018654968783520154602082019081528615159687610a77575b50866008969790610a6c575b610a24575b5050506040519161089d8361147c565b86835233602080850191825260408086018c8152606087019586526080870194855260a087018c815260c088018b81524260e08a0190815260016101008b018181528f8e5260029788905295909c2099518a5595519a890180546001600160a01b039c8d166001600160a01b03199182161790915592519489018054958c1695909316949094179091559451600387015592516004860155925160058501559151600684015590516007830155519101805460ff191691151560ff169190911790558554869116803b15610a20578180916024604051809481936338814ac960e01b83528960048401525af18015610a15576109fc575b50506040516109a2816114ae565b428152600160208201858152848852600460205260408820925183555191015560405192835260208301524260408301527ffbc9c71dbdec05b50cfcb5d67a123b3fa35ce8b0f9890b3465449c364f623d7960603393a480f35b81610a06916114c9565b610a11578438610994565b8480fd5b6040513d84823e3d90fd5b5080fd5b7f2f5f4148f9fa8cfe6fcc790136bba805d2a9a56d51ab5350e6df31101d959f72916080915190516040519182528b60208301526040820152426060820152a285388061088d565b508981511415610888565b92509294509294504203428111610a9c5789949260089492610708899310969561087c565b634e487b7160e01b8a52601160045260248afd5b84888289933b15610a2057818091606460405180948193630e0f617f60e11b83528860048401526003602484015260008051602061166d83398151915260448401525af18015610a1557610b5f575b50506040519060008051602061166d833981519152825260008051602061164d83398151915260203393a460405162461bcd60e51b815260206004820152600d60248201526c496e76616c696420726f75746560981b6044820152606490fd5b610b6a8280926114c9565b6100d65780610aff565b610b96915060203d602011610b9c575b610b8e81836114c9565b81019061159f565b3861083e565b503d610b84565b60405162461bcd60e51b815260206004820152601760248201527652656365697665722063616e6e6f74207265636569766560481b6044820152606490fd5b610bfb915060203d602011610b9c57610b8e81836114c9565b38610806565b6040513d8c823e3d90fd5b60405162461bcd60e51b815260206004820152601660248201527553656e6465722063616e6e6f7420696e69746961746560501b6044820152606490fd5b610c63915060203d602011610b9c57610b8e81836114c9565b386107d5565b60405162461bcd60e51b8152602060048201526014602482015273526563656976657220686173206e6f20726f6c6560601b6044820152606490fd5b60405162461bcd60e51b815260206004820152601260248201527153656e64657220686173206e6f20726f6c6560701b6044820152606490fd5b9092506020813d602011610d10575b81610cfb602093836114c9565b81010312610d0b5751913861079d565b600080fd5b3d9150610cee565b9092506020813d602011610d44575b81610d34602093836114c9565b81010312610d0b57519138610770565b3d9150610d27565b6040513d8a823e3d90fd5b60405162461bcd60e51b8152602060048201526012602482015271105b1c9958591e481a5b881d1c985b9cda5d60721b6044820152606490fd5b634e487b7160e01b87526021600452602487fd5b610dbe915060203d6020116105875761057981836114c9565b3861070a565b6040513d89823e3d90fd5b60405162461bcd60e51b81526020600482015260116024820152702737ba1031bab93932b73a1037bbb732b960791b6044820152606490fd5b90506020813d602011610e46575b81610e23602093836114c9565b81010312610e4257516001600160a01b0381168103610e4257386106cd565b8680fd5b3d9150610e16565b60405162461bcd60e51b815260206004820152601760248201527650656e64696e67207472616e736665722065786973747360481b6044820152606490fd5b60405162461bcd60e51b8152602060048201526011602482015270141c9bd91d58dd081b9bdd08199bdd5b99607a1b6044820152606490fd5b610edf915060203d602011610b9c57610b8e81836114c9565b38610685565b60405162461bcd60e51b815260206004820152601360248201527224b73b30b634b2103a37903637b1b0ba34b7b760691b6044820152606490fd5b60405162461bcd60e51b815260206004820152601560248201527424b73b30b634b210333937b6903637b1b0ba34b7b760591b6044820152606490fd5b60405162461bcd60e51b81526020600482015260196024820152782932b1b2b4bb32b91031b0b73737ba1031329039b2b73232b960391b6044820152606490fd5b60405162461bcd60e51b815260206004820152601060248201526f24b73b30b634b2103932b1b2b4bb32b960811b6044820152606490fd5b8280fd5b50346100d65760203660031901126100d657604061012091600435815260026020522080549060018060a01b036001820154169060018060a01b036002820154166003820154600483015460058401549160068501549360ff600860078801549701541696604051988952602089015260408801526060870152608086015260a085015260c084015260e08301521515610100820152f35b50346100d657806003193601126100d65760206040516107088152f35b50346100d65760203660031901126100d657600435815260036020526040812080546001600160401b03811161121657604051906110d360208260051b01836114c9565b80825260208201809385526020852085915b83831061119457868587604051928392602084019060208552518091526040840192915b818110611117575050500390f35b919350916020610120600192610100875180518352858060a01b03858201511685840152858060a01b036040820151166040840152606081015160608401526080810151608084015260a081015160a084015260c081015160c084015260e081015160e08401520151610100820152019401910191849392611109565b600960206001926040516111a78161147c565b85548152848060a01b03858701541683820152848060a01b0360028701541660408201526003860154606082015260048601546080820152600586015460a0820152600686015460c0820152600786015460e082015260088601546101008201528152019201920191906110e5565b634e487b7160e01b83526041600452602483fd5b50346100d65760203660031901126100d65760406020916004358152600383522054604051908152f35b50346100d65761126336611429565b9061126f81151561143f565b81156113ce578083526002602052604083209060405161128e8161147c565b8254815260018301546001600160a01b03908116602083019081526002850154909116604083019081526003850154606084015260048501546080840152600585015460a0840152600685015460c0840152600785015460e084015260089094015460ff16151561010090920182905290611308906114ec565b61131c60018060a01b03845116331461152e565b5191518185526002602052604085206001600160a01b0391821694919093169261134590611569565b845485906001600160a01b0316803b15610a2057819060246040518094819363bd77980960e01b83528860048401525af180156113c35761139e575b50602060008051602061164d83398151915291604051908152a480f35b856113bb60008051602061164d83398151915293976020936114c9565b959150611381565b6040513d88823e3d90fd5b60405162461bcd60e51b815260206004820152600e60248201526d24b73b30b634b2103932b0b9b7b760911b6044820152606490fd5b905034610a205781600319360112610a20576001546001600160a01b03168152602090f35b6040906003190112610d0b576004359060243590565b1561144657565b60405162461bcd60e51b815260206004820152600e60248201526d125b9d985b1a59081cd95c9a585b60921b6044820152606490fd5b61012081019081106001600160401b0382111761149857604052565b634e487b7160e01b600052604160045260246000fd5b604081019081106001600160401b0382111761149857604052565b601f909101601f19168101906001600160401b0382119082101761149857604052565b156114f357565b60405162461bcd60e51b81526020600482015260136024820152722737903832b73234b733903a3930b739b332b960691b6044820152606490fd5b1561153557565b60405162461bcd60e51b815260206004820152600c60248201526b2737ba103932b1b2b4bb32b960a11b6044820152606490fd5b60086000918281558260018201558260028201558260038201558260048201558260058201558260068201558260078201550155565b90816020910312610d0b57518015158103610d0b5790565b90816020910312610d0b57516006811015610d0b5790565b156115d657565b60405162461bcd60e51b815260206004820152601060248201526f141c9bd91d58dd081c9958d85b1b195960821b6044820152606490fd5b1561161557565b60405162461bcd60e51b815260206004820152600f60248201526e141c9bd91d58dd08199b1859d9d959608a1b6044820152606490fdfe61c270a0af6c0959c90c4f1ec8c60b6eb58be8474ca87e16d497756029160f8ff48c35c99ac61eb8b4112c9270c54632b262cc9829cbf2fda9a0ea2dfb325a9ca2646970667358221220b2711beab072d734a37ccc723d57dcf496302ff89fb88962cfe36789abd2d6ac64736f6c634300081c0033",
  "linkReferences": {},
  "deployedLinkReferences": {}
}