{
  "_format": "hh-sol-artifact-1",
  "contractName": "TransferLedger",
  "sourceName": "contracts/TransferLedger.sol",
  "abi": [
    {
      "inputs": [
        {
          "internalType": "address",
          "name": "productRegistryAddress",
          "type": "address"
        },
        {
          "internalType": "address",
          "name": "accessControlAddress",
          "type": "address"
        }
      ],
      "stateMutability": "nonpayable",
      "type": "constructor"
    },
    {
      "anonymous": false,
      "inputs": [
        {
          "indexed": true,
          "internalType": "bytes32",
          "name": "serialID",
          "type": "bytes32"
        },
        {
          "indexed": false,
          "internalType": "bytes32",
          "name": "previousLocationHash",
          "type": "bytes32"
        },
        {
          "indexed": false,
          "internalType": "bytes32",
          "name": "newLocationHash",
          "type": "bytes32"
        },
        {
          "indexed": false,
          "internalType": "uint256",
          "name": "previousTimestamp",
          "type": "uint256"
        },
        {
          "indexed": false,
          "internalType": "uint256",
          "name": "newTimestamp",
          "type": "uint256"
        }
      ],
      "name": "DoubleScanDetected",
      "type": "event"
    },
    {
      "anonymous": false,
      "inputs": [
        {
          "indexed": true,
          "internalType": "bytes32",
          "name": "serialID",
          "type": "bytes32"
        },
        {
          "indexed": true,
          "internalType": "address",
          "name": "sender",
          "type": "address"
        },
        {
          "indexed": true,
          "internalType": "address",
          "name": "receiver",
          "type": "address"
        },
        {
          "indexed": false,
          "internalType": "uint256",
          "name": "confirmedAt",
          "type": "uint256"
        }
      ],
      "name": "TransferConfirmed",
      "type": "event"
    },
    {
      "anonymous": false,
      "inputs": [
        {
          "indexed": true,
          "internalType": "bytes32",
          "name": "serialID",
          "type": "bytes32"
        },
        {
          "indexed": true,
          "internalType": "address",
          "name": "sender",
          "type": "address"
        },
        {
          "indexed": true,
          "internalType": "address",
          "name": "receiver",
          "type": "address"
        },
        {
          "indexed": false,
          "internalType": "bytes32",
          "name": "reason",
          "type": "bytes32"
        }
      ],
      "name": "TransferRejected",
      "type": "event"
    },
    {
      "anonymous": false,
      "inputs": [
        {
          "indexed": true,
          "internalType": "bytes32",
          "name": "serialID",
          "type": "bytes32"
        },
        {
          "indexed": true,
          "internalType": "address",
          "name": "sender",
          "type": "address"
        },
        {
          "indexed": true,
          "internalType": "address",
          "name": "receiver",
          "type": "address"
        },
        {
          "indexed": false,
          "internalType": "bytes32",
          "name": "fromLocationHash",
          "type": "bytes32"
        },
        {
          "indexed": false,
          "internalType": "bytes32",
          "name": "toLocationHash",
          "type": "bytes32"
        },
        {
          "indexed": false,
          "internalType": "uint256",
          "name": "requestedAt",
          "type": "uint256"
        }
      ],
      "name": "TransferRequested",
      "type": "event"
    },
    {
      "inputs": [],
      "name": "DOUBLE_SCAN_WINDOW",
      "outputs": [
        {
          "internalType": "uint256",
          "name": "",
          "type": "uint256"
        }
      ],
      "stateMutability": "view",
      "type": "function"
    },
    {
      "inputs": [],
      "name": "REASON_DOUBLE_SCAN",
      "outputs": [
        {
          "internalType": "bytes32",
          "name": "",
          "type": "bytes32"
        }
      ],
      "stateMutability": "view",
      "type": "function"
    },
    {
      "inputs": [],
      "name": "REASON_INVALID_ROUTE",
      "outputs": [
        {
          "internalType": "bytes32",
          "name": "",
          "type": "bytes32"
        }
      ],
      "stateMutability": "view",
      "type": "function"
    },
    {
      "inputs": [],
      "name": "RISK_HIGH",
      "outputs": [
        {
          "internalType": "uint8",
          "name": "",
          "type": "uint8"
        }
      ],
      "stateMutability": "view",
      "type": "function"
    },
    {
      "inputs": [],
      "name": "accessControl",
      "outputs": [
        {
          "internalType": "contract ISupplyChainAccessControl",
          "name": "",
          "type": "address"
        }
      ],
      "stateMutability": "view",
      "type": "function"
    },
    {
      "inputs": [
        {
          "internalType": "bytes32",
          "name": "serialID",
          "type": "bytes32"
        },
        {
          "internalType": "bytes32",
          "name": "receiverLocationHash",
          "type": "bytes32"
        }
      ],
      "name": "confirmTransfer",
      "outputs": [],
      "stateMutability": "nonpayable",
      "type": "function"
    },
    {
      "inputs": [
        {
          "internalType": "bytes32",
          "name": "serialID",
          "type": "bytes32"
        },
        {
          "internalType": "address",
          "name": "receiver",
          "type": "address"
        },
        {
          "internalType": "bytes32",
          "name": "fromLocationHash",
          "type": "bytes32"
        },
        {
          "internalType": "bytes32",
          "name": "toLocationHash",
          "type": "bytes32"
        }
      ],
      "name": "createTransferRequest",
      "outputs": [],
      "stateMutability": "nonpayable",
      "type": "function"
    },
    {
      "inputs": [
        {
          "internalType": "bytes32",
          "name": "serialID",
          "type": "bytes32"
        }
      ],
      "name": "getTransferHistory",
      "outputs": [
        {
          "components": [
            {
              "internalType": "bytes32",
              "name": "serialID",
              "type": "bytes32"
            },
            {
              "internalType": "address",
              "name": "from",
              "type": "address"
            },
            {
              "internalType": "address",
              "name": "to",
              "type": "address"
            },
            {
              "internalType": "bytes32",
              "name": "fromRole",
              "type": "bytes32"
            },
            {
              "internalType": "bytes32",
              "name": "toRole",
              "type": "bytes32"
            },
            {
              "internalType": "bytes32",
              "name": "fromLocationHash",
              "type": "bytes32"
            },
            {
              "internalType": "bytes32",
              "name": "toLocationHash",
              "type": "bytes32"
            },
            {
              "internalType": "uint256",
              "name": "requestedAt",
              "type": "uint256"
            },
            {
              "internalType": "uint256",
              "name": "confirmedAt",
              "type": "uint256"
            }
          ],
          "internalType": "struct TransferLedger.TransferRecord[]",
          "name": "",
          "type": "tuple[]"
        }
      ],
      "stateMutability": "view",
      "type": "function"
    },
    {
      "inputs": [
        {
          "internalType": "bytes32",
          "name": "serialID",
          "type": "bytes32"
        }
      ],
      "name": "getTransferHistoryLength",
      "outputs": [
        {
          "internalType": "uint256",
          "name": "",
          "type": "uint256"
        }
      ],
      "stateMutability": "view",
      "type": "function"
    },
    {
      "inputs": [
        {
          "internalType": "bytes32",
          "name": "",
          "type": "bytes32"
        }
      ],
      "name": "lastScans",
      "outputs": [
        {
          "internalType": "uint256",
          "name": "timestamp",
          "type": "uint256"
        },
        {
          "internalType": "bytes32",
          "name": "locationHash",
          "type": "bytes32"
        }
      ],
      "stateMutability": "view",
      "type": "function"
    },
    {
      "inputs": [
        {
          "internalType": "bytes32",
          "name": "",
          "type": "bytes32"
        }
      ],
      "name": "pendingTransfers",
      "outputs": [
        {
          "internalType": "bytes32",
          "name": "serialID",
          "type": "bytes32"
        },
        {
          "internalType": "address",
          "name": "sender",
          "type": "address"
        },
        {
          "internalType": "address",
          "name": "receiver",
          "type": "address"
        },
        {
          "internalType": "bytes32",
          "name": "senderRole",
          "type": "bytes32"
        },
        {
          "internalType": "bytes32",
          "name": "receiverRole",
          "type": "bytes32"
        },
        {
          "internalType": "bytes32",
          "name": "fromLocationHash",
          "type": "bytes32"
        },
        {
          "internalType": "bytes32",
          "name": "toLocationHash",
          "type": "bytes32"
        },
        {
          "internalType": "uint256",
          "name": "requestedAt",
          "type": "uint256"
        },
        {
          "internalType": "bool",
          "name": "exists",
          "type": "bool"
        }
      ],
      "stateMutability": "view",
      "type": "function"
    },
    {
      "inputs": [],
      "name": "productRegistry",
      "outputs": [
        {
          "internalType": "contract IProductRegistry",
          "name": "",
          "type": "address"
        }
      ],
      "stateMutability": "view",
      "type": "function"
    }
  ],
  "bytecode": "0x608060405234801561001057600080fd5b506040516131ff3803806131ff833981810160405281019061003291906101fb565b600073ffffffffffffffffffffffffffffffffffffffff168273ffffffffffffffffffffffffffffffffffffffff16036100a1576040517f08c379a000000000000000000000000000000000000000000000000000000000815260040161009890610298565b60405180910390fd5b600073ffffffffffffffffffffffffffffffffffffffff168173ffffffffffffffffffffffffffffffffffffffff1603610110576040517f08c379a000000000000000000000000000000000000000000000000000000000815260040161010790610304565b60405180910390fd5b816000806101000a81548173ffffffffffffffffffffffffffffffffffffffff021916908373ffffffffffffffffffffffffffffffffffffffff16021790555080600160006101000a81548173ffffffffffffffffffffffffffffffffffffffff021916908373ffffffffffffffffffffffffffffffffffffffff1602179055505050610324565b600080fd5b600073ffffffffffffffffffffffffffffffffffffffff82169050919050565b60006101c88261019d565b9050919050565b6101d8816101bd565b81146101e357600080fd5b50565b6000815190506101f5816101cf565b92915050565b6000806040838503121561021257610211610198565b5b6000610220858286016101e6565b9250506020610231858286016101e6565b9150509250929050565b600082825260208201905092915050565b7f496e76616c696420726567697374727900000000000000000000000000000000600082015250565b600061028260108361023b565b915061028d8261024c565b602082019050919050565b600060208201905081810360008301526102b181610275565b9050919050565b7f496e76616c69642061636365737320636f6e74726f6c00000000000000000000600082015250565b60006102ee60168361023b565b91506102f9826102b8565b602082019050919050565b6000602082019050818103600083015261031d816102e1565b9050919050565b612ecc806103336000396000f3fe608060405234801561001057600080fd5b50600436106100b45760003560e01c80639aa90ca7116100715780639aa90ca7146101a95780639b47009d146101c7578063e064ac56146101e3578063f9eb543f14610201578063fb5d692c1461021f578063fff218c314610250576100b4565b806313007d55146100b95780633f126c90146100d75780636fb3207d146101075780637a581176146101375780638d4ab2c0146101555780639465bc231461018d575b600080fd5b6100c161026e565b6040516100ce9190611d8d565b60405180910390f35b6100f160048036038101906100ec9190611de3565b610294565b6040516100fe9190611e29565b60405180910390f35b610121600480360381019061011c9190611de3565b6102b4565b60405161012e9190611fea565b60405180910390f35b61013f610419565b60405161014c9190611e29565b60405180910390f35b61016f600480360381019061016a9190611de3565b61041f565b60405161018499989796959493929190612045565b60405180910390f35b6101a760048036038101906101a291906120fe565b6104ba565b005b6101b16112d4565b6040516101be9190612181565b60405180910390f35b6101e160048036038101906101dc919061219c565b6112d9565b005b6101eb611ad8565b6040516101f891906121dc565b60405180910390f35b610209611afc565b60405161021691906121dc565b60405180910390f35b61023960048036038101906102349190611de3565b611b20565b6040516102479291906121f7565b60405180910390f35b610258611b44565b6040516102659190612241565b60405180910390f35b600160009054906101000a900473ffffffffffffffffffffffffffffffffffffffff1681565b600060036000838152602001908152602001600020805490509050919050565b606060036000838152602001908152602001600020805480602002602001604051908101604052809291908181526020016000905b8282101561040e578382906000526020600020906009020160405180610120016040529081600082015481526020016001820160009054906101000a900473ffffffffffffffffffffffffffffffffffffffff1673ffffffffffffffffffffffffffffffffffffffff1673ffffffffffffffffffffffffffffffffffffffff1681526020016002820160009054906101000a900473ffffffffffffffffffffffffffffffffffffffff1673ffffffffffffffffffffffffffffffffffffffff1673ffffffffffffffffffffffffffffffffffffffff1681526020016003820154815260200160048201548152602001600582015481526020016006820154815260200160078201548152602001600882015481525050815260200190600101906102e9565b505050509050919050565b61070881565b60026020528060005260406000206000915090508060000154908060010160009054906101000a900473ffffffffffffffffffffffffffffffffffffffff16908060020160009054906101000a900473ffffffffffffffffffffffffffffffffffffffff16908060030154908060040154908060050154908060060154908060070154908060080160009054906101000a900460ff16905089565b6000801b84036104ff576040517f08c379a00000000000000000000000000000000000000000000000000000000081526004016104f6906122b9565b60405180910390fd5b600073ffffffffffffffffffffffffffffffffffffffff168373ffffffffffffffffffffffffffffffffffffffff160361056e576040517f08c379a000000000000000000000000000000000000000000000000000000000815260040161056590612325565b60405180910390fd5b3373ffffffffffffffffffffffffffffffffffffffff168373ffffffffffffffffffffffffffffffffffffffff16036105dc576040517f08c379a00000000000000000000000000000000000000000000000000000000081526004016105d390612391565b60405180910390fd5b6000801b8203610621576040517f08c379a0000000000000000000000000000000000000000000000000000000008152600401610618906123fd565b60405180910390fd5b6000801b8103610666576040517f08c379a000000000000000000000000000000000000000000000000000000000815260040161065d90612469565b60405180910390fd5b60008054906101000a900473ffffffffffffffffffffffffffffffffffffffff1673ffffffffffffffffffffffffffffffffffffffff16634d472116856040518263ffffffff1660e01b81526004016106bf91906121dc565b602060405180830381865afa1580156106dc573d6000803e3d6000fd5b505050506040513d601f19601f8201168201806040525081019061070091906124b5565b61073f576040517f08c379a00000000000000000000000000000000000000000000000000000000081526004016107369061252e565b60405180910390fd5b6002600085815260200190815260200160002060080160009054906101000a900460ff16156107a3576040517f08c379a000000000000000000000000000000000000000000000000000000000815260040161079a9061259a565b60405180910390fd5b60008060009054906101000a900473ffffffffffffffffffffffffffffffffffffffff1673ffffffffffffffffffffffffffffffffffffffff16633aea18cc866040518263ffffffff1660e01b81526004016107ff91906121dc565b602060405180830381865afa15801561081c573d6000803e3d6000fd5b505050506040513d601f19601f8201168201806040525081019061084091906125cf565b90503373ffffffffffffffffffffffffffffffffffffffff168173ffffffffffffffffffffffffffffffffffffffff16146108b0576040517f08c379a00000000000000000000000000000000000000000000000000000000081526004016108a790612648565b60405180910390fd5b60008060009054906101000a900473ffffffffffffffffffffffffffffffffffffffff1673ffffffffffffffffffffffffffffffffffffffff16635de28ae0876040518263ffffffff1660e01b815260040161090c91906121dc565b602060405180830381865afa158015610929573d6000803e3d6000fd5b505050506040513d601f19601f8201168201806040525081019061094d919061268d565b9050600580811115610962576109616126ba565b5b816005811115610975576109746126ba565b5b036109b5576040517f08c379a00000000000000000000000000000000000000000000000000000000081526004016109ac90612735565b60405180910390fd5b600460058111156109c9576109c86126ba565b5b8160058111156109dc576109db6126ba565b5b03610a1c576040517f08c379a0000000000000000000000000000000000000000000000000000000008152600401610a13906127a1565b60405180910390fd5b60026005811115610a3057610a2f6126ba565b5b816005811115610a4357610a426126ba565b5b03610a83576040517f08c379a0000000000000000000000000000000000000000000000000000000008152600401610a7a9061280d565b60405180910390fd5b6000600160009054906101000a900473ffffffffffffffffffffffffffffffffffffffff1673ffffffffffffffffffffffffffffffffffffffff1663d19c7191336040518263ffffffff1660e01b8152600401610ae0919061282d565b602060405180830381865afa158015610afd573d6000803e3d6000fd5b505050506040513d601f19601f82011682018060405250810190610b21919061285d565b90506000600160009054906101000a900473ffffffffffffffffffffffffffffffffffffffff1673ffffffffffffffffffffffffffffffffffffffff1663d19c7191886040518263ffffffff1660e01b8152600401610b80919061282d565b602060405180830381865afa158015610b9d573d6000803e3d6000fd5b505050506040513d601f19601f82011682018060405250810190610bc1919061285d565b90506000801b8203610c08576040517f08c379a0000000000000000000000000000000000000000000000000000000008152600401610bff906128d6565b60405180910390fd5b6000801b8103610c4d576040517f08c379a0000000000000000000000000000000000000000000000000000000008152600401610c4490612942565b60405180910390fd5b600160009054906101000a900473ffffffffffffffffffffffffffffffffffffffff1673ffffffffffffffffffffffffffffffffffffffff1663b198e1ed836040518263ffffffff1660e01b8152600401610ca891906121dc565b602060405180830381865afa158015610cc5573d6000803e3d6000fd5b505050506040513d601f19601f82011682018060405250810190610ce991906124b5565b610d28576040517f08c379a0000000000000000000000000000000000000000000000000000000008152600401610d1f906129ae565b60405180910390fd5b600160009054906101000a900473ffffffffffffffffffffffffffffffffffffffff1673ffffffffffffffffffffffffffffffffffffffff16634188327f826040518263ffffffff1660e01b8152600401610d8391906121dc565b602060405180830381865afa158015610da0573d6000803e3d6000fd5b505050506040513d601f19601f82011682018060405250810190610dc491906124b5565b610e03576040517f08c379a0000000000000000000000000000000000000000000000000000000008152600401610dfa90612a1a565b60405180910390fd5b6000600160009054906101000a900473ffffffffffffffffffffffffffffffffffffffff1673ffffffffffffffffffffffffffffffffffffffff1663fc191a2a84846040518363ffffffff1660e01b8152600401610e62929190612a3a565b602060405180830381865afa158015610e7f573d6000803e3d6000fd5b505050506040513d601f19601f82011682018060405250810190610ea391906124b5565b90508061101b5760008054906101000a900473ffffffffffffffffffffffffffffffffffffffff1673ffffffffffffffffffffffffffffffffffffffff16631c1ec2fe8a60037ff48c35c99ac61eb8b4112c9270c54632b262cc9829cbf2fda9a0ea2dfb325a9c6040518463ffffffff1660e01b8152600401610f2893929190612a63565b600060405180830381600087803b158015610f4257600080fd5b505af1158015610f56573d6000803e3d6000fd5b505050508773ffffffffffffffffffffffffffffffffffffffff163373ffffffffffffffffffffffffffffffffffffffff168a7f61c270a0af6c0959c90c4f1ec8c60b6eb58be8474ca87e16d497756029160f8f7ff48c35c99ac61eb8b4112c9270c54632b262cc9829cbf2fda9a0ea2dfb325a9c604051610fd891906121dc565b60405180910390a46040517f08c379a000000000000000000000000000000000000000000000000000000000815260040161101290612ae6565b60405180910390fd5b6110258988611b68565b6040518061012001604052808a81526020013373ffffffffffffffffffffffffffffffffffffffff1681526020018973ffffffffffffffffffffffffffffffffffffffff16815260200184815260200183815260200188815260200187815260200142815260200160011515815250600260008b81526020019081526020016000206000820151816000015560208201518160010160006101000a81548173ffffffffffffffffffffffffffffffffffffffff021916908373ffffffffffffffffffffffffffffffffffffffff16021790555060408201518160020160006101000a81548173ffffffffffffffffffffffffffffffffffffffff021916908373ffffffffffffffffffffffffffffffffffffffff160217905550606082015181600301556080820151816004015560a0820151816005015560c0820151816006015560e082015181600701556101008201518160080160006101000a81548160ff02191690831515021790555090505060008054906101000a900473ffffffffffffffffffffffffffffffffffffffff1673ffffffffffffffffffffffffffffffffffffffff166338814ac98a6040518263ffffffff1660e01b81526004016111ee91906121dc565b600060405180830381600087803b15801561120857600080fd5b505af115801561121c573d6000803e3d6000fd5b50505050604051806040016040528042815260200188815250600460008b815260200190815260200160002060008201518160000155602082015181600101559050508773ffffffffffffffffffffffffffffffffffffffff163373ffffffffffffffffffffffffffffffffffffffff168a7ffbc9c71dbdec05b50cfcb5d67a123b3fa35ce8b0f9890b3465449c364f623d798a8a426040516112c193929190612b06565b60405180910390a4505050505050505050565b600381565b6000801b820361131e576040517f08c379a0000000000000000000000000000000000000000000000000000000008152600401611315906122b9565b60405180910390fd5b6000801b8103611363576040517f08c379a000000000000000000000000000000000000000000000000000000000815260040161135a90612b89565b60405180910390fd5b60006002600084815260200190815260200160002060405180610120016040529081600082015481526020016001820160009054906101000a900473ffffffffffffffffffffffffffffffffffffffff1673ffffffffffffffffffffffffffffffffffffffff1673ffffffffffffffffffffffffffffffffffffffff1681526020016002820160009054906101000a900473ffffffffffffffffffffffffffffffffffffffff1673ffffffffffffffffffffffffffffffffffffffff1673ffffffffffffffffffffffffffffffffffffffff16815260200160038201548152602001600482015481526020016005820154815260200160068201548152602001600782015481526020016008820160009054906101000a900460ff16151515158152505090508061010001516114ce576040517f08c379a00000000000000000000000000000000000000000000000000000000081526004016114c590612bf5565b60405180910390fd5b806040015173ffffffffffffffffffffffffffffffffffffffff163373ffffffffffffffffffffffffffffffffffffffff1614611540576040517f08c379a000000000000000000000000000000000000000000000000000000000815260040161153790612c61565b60405180910390fd5b60008060009054906101000a900473ffffffffffffffffffffffffffffffffffffffff1673ffffffffffffffffffffffffffffffffffffffff16635de28ae0856040518263ffffffff1660e01b815260040161159c91906121dc565b602060405180830381865afa1580156115b9573d6000803e3d6000fd5b505050506040513d601f19601f820116820180604052508101906115dd919061268d565b90506005808111156115f2576115f16126ba565b5b816005811115611605576116046126ba565b5b03611645576040517f08c379a000000000000000000000000000000000000000000000000000000000815260040161163c90612735565b60405180910390fd5b60046005811115611659576116586126ba565b5b81600581111561166c5761166b6126ba565b5b036116ac576040517f08c379a00000000000000000000000000000000000000000000000000000000081526004016116a3906127a1565b60405180910390fd5b600260058111156116c0576116bf6126ba565b5b8160058111156116d3576116d26126ba565b5b14611713576040517f08c379a000000000000000000000000000000000000000000000000000000000815260040161170a90612ccd565b60405180910390fd5b8160c001518314611759576040517f08c379a000000000000000000000000000000000000000000000000000000000815260040161175090612d39565b60405180910390fd5b60008054906101000a900473ffffffffffffffffffffffffffffffffffffffff1673ffffffffffffffffffffffffffffffffffffffff1663e411013b85336040518363ffffffff1660e01b81526004016117b4929190612d59565b600060405180830381600087803b1580156117ce57600080fd5b505af11580156117e2573d6000803e3d6000fd5b5050505060036000858152602001908152602001600020604051806101200160405280868152602001846020015173ffffffffffffffffffffffffffffffffffffffff168152602001846040015173ffffffffffffffffffffffffffffffffffffffff16815260200184606001518152602001846080015181526020018460a0015181526020018581526020018460e0015181526020014281525090806001815401808255809150506001900390600052602060002090600902016000909190919091506000820151816000015560208201518160010160006101000a81548173ffffffffffffffffffffffffffffffffffffffff021916908373ffffffffffffffffffffffffffffffffffffffff16021790555060408201518160020160006101000a81548173ffffffffffffffffffffffffffffffffffffffff021916908373ffffffffffffffffffffffffffffffffffffffff160217905550606082015181600301556080820151816004015560a0820151816005015560c0820151816006015560e0820151816007015561010082015181600801555050600260008581526020019081526020016000206000808201600090556001820160006101000a81549073ffffffffffffffffffffffffffffffffffffffff02191690556002820160006101000a81549073ffffffffffffffffffffffffffffffffffffffff0219169055600382016000905560048201600090556005820160009055600682016000905560078201600090556008820160006101000a81549060ff02191690555050604051806040016040528042815260200184815250600460008681526020019081526020016000206000820151816000015560208201518160010155905050816040015173ffffffffffffffffffffffffffffffffffffffff16826020015173ffffffffffffffffffffffffffffffffffffffff16857f2812a5d80ae0ea7b9f3108a1a67083f47ae2b23ce91104842daa5b2d719632d642604051611aca9190611e29565b60405180910390a450505050565b7f6e5f9490f5df7c681a41a4ccb579c3d17bbed2e72ae620260be50bb7c9cccddd81565b7ff48c35c99ac61eb8b4112c9270c54632b262cc9829cbf2fda9a0ea2dfb325a9c81565b60046020528060005260406000206000915090508060000154908060010154905082565b60008054906101000a900473ffffffffffffffffffffffffffffffffffffffff1681565b6000600460008481526020019081526020016000206040518060400160405290816000820154815260200160018201548152505090506000816000015114158015611bc35750610708816000015142611bc19190612db1565b105b8015611bd3575081816020015114155b15611d095760008054906101000a900473ffffffffffffffffffffffffffffffffffffffff1673ffffffffffffffffffffffffffffffffffffffff16631c1ec2fe8460037f6e5f9490f5df7c681a41a4ccb579c3d17bbed2e72ae620260be50bb7c9cccddd6040518463ffffffff1660e01b8152600401611c5693929190612a63565b600060405180830381600087803b158015611c7057600080fd5b505af1158015611c84573d6000803e3d6000fd5b50505050827f2f5f4148f9fa8cfe6fcc790136bba805d2a9a56d51ab5350e6df31101d959f72826020015184846000015142604051611cc69493929190612de5565b60405180910390a26040517f08c379a0000000000000000000000000000000000000000000000000000000008152600401611d0090612e76565b60405180910390fd5b505050565b600073ffffffffffffffffffffffffffffffffffffffff82169050919050565b6000819050919050565b6000611d53611d4e611d4984611d0e565b611d2e565b611d0e565b9050919050565b6000611d6582611d38565b9050919050565b6000611d7782611d5a565b9050919050565b611d8781611d6c565b82525050565b6000602082019050611da26000830184611d7e565b92915050565b600080fd5b6000819050919050565b611dc081611dad565b8114611dcb57600080fd5b50565b600081359050611ddd81611db7565b92915050565b600060208284031215611df957611df8611da8565b5b6000611e0784828501611dce565b91505092915050565b6000819050919050565b611e2381611e10565b82525050565b6000602082019050611e3e6000830184611e1a565b92915050565b600081519050919050565b600082825260208201905092915050565b6000819050602082019050919050565b611e7981611dad565b82525050565b6000611e8a82611d0e565b9050919050565b611e9a81611e7f565b82525050565b611ea981611e10565b82525050565b61012082016000820151611ec66000850182611e70565b506020820151611ed96020850182611e91565b506040820151611eec6040850182611e91565b506060820151611eff6060850182611e70565b506080820151611f126080850182611e70565b5060a0820151611f2560a0850182611e70565b5060c0820151611f3860c0850182611e70565b5060e0820151611f4b60e0850182611ea0565b50610100820151611f60610100850182611ea0565b50505050565b6000611f728383611eaf565b6101208301905092915050565b6000602082019050919050565b6000611f9782611e44565b611fa18185611e4f565b9350611fac83611e60565b8060005b83811015611fdd578151611fc48882611f66565b9750611fcf83611f7f565b925050600181019050611fb0565b5085935050505092915050565b600060208201905081810360008301526120048184611f8c565b905092915050565b61201581611dad565b82525050565b61202481611e7f565b82525050565b60008115159050919050565b61203f8161202a565b82525050565b60006101208201905061205b600083018c61200c565b612068602083018b61201b565b612075604083018a61201b565b612082606083018961200c565b61208f608083018861200c565b61209c60a083018761200c565b6120a960c083018661200c565b6120b660e0830185611e1a565b6120c4610100830184612036565b9a9950505050505050505050565b6120db81611e7f565b81146120e657600080fd5b50565b6000813590506120f8816120d2565b92915050565b6000806000806080858703121561211857612117611da8565b5b600061212687828801611dce565b9450506020612137878288016120e9565b935050604061214887828801611dce565b925050606061215987828801611dce565b91505092959194509250565b600060ff82169050919050565b61217b81612165565b82525050565b60006020820190506121966000830184612172565b92915050565b600080604083850312156121b3576121b2611da8565b5b60006121c185828601611dce565b92505060206121d285828601611dce565b9150509250929050565b60006020820190506121f1600083018461200c565b92915050565b600060408201905061220c6000830185611e1a565b612219602083018461200c565b9392505050565b600061222b82611d5a565b9050919050565b61223b81612220565b82525050565b60006020820190506122566000830184612232565b92915050565b600082825260208201905092915050565b7f496e76616c69642073657269616c000000000000000000000000000000000000600082015250565b60006122a3600e8361225c565b91506122ae8261226d565b602082019050919050565b600060208201905081810360008301526122d281612296565b9050919050565b7f496e76616c696420726563656976657200000000000000000000000000000000600082015250565b600061230f60108361225c565b915061231a826122d9565b602082019050919050565b6000602082019050818103600083015261233e81612302565b9050919050565b7f52656365697665722063616e6e6f742062652073656e64657200000000000000600082015250565b600061237b60198361225c565b915061238682612345565b602082019050919050565b600060208201905081810360008301526123aa8161236e565b9050919050565b7f496e76616c69642066726f6d206c6f636174696f6e0000000000000000000000600082015250565b60006123e760158361225c565b91506123f2826123b1565b602082019050919050565b60006020820190508181036000830152612416816123da565b9050919050565b7f496e76616c696420746f206c6f636174696f6e00000000000000000000000000600082015250565b600061245360138361225c565b915061245e8261241d565b602082019050919050565b6000602082019050818103600083015261248281612446565b9050919050565b6124928161202a565b811461249d57600080fd5b50565b6000815190506124af81612489565b92915050565b6000602082840312156124cb576124ca611da8565b5b60006124d9848285016124a0565b91505092915050565b7f50726f64756374206e6f7420666f756e64000000000000000000000000000000600082015250565b600061251860118361225c565b9150612523826124e2565b602082019050919050565b600060208201905081810360008301526125478161250b565b9050919050565b7f50656e64696e67207472616e7366657220657869737473000000000000000000600082015250565b600061258460178361225c565b915061258f8261254e565b602082019050919050565b600060208201905081810360008301526125b381612577565b9050919050565b6000815190506125c9816120d2565b92915050565b6000602082840312156125e5576125e4611da8565b5b60006125f3848285016125ba565b91505092915050565b7f4e6f742063757272656e74206f776e6572000000000000000000000000000000600082015250565b600061263260118361225c565b915061263d826125fc565b602082019050919050565b6000602082019050818103600083015261266181612625565b9050919050565b6006811061267557600080fd5b50565b60008151905061268781612668565b92915050565b6000602082840312156126a3576126a2611da8565b5b60006126b184828501612678565b91505092915050565b7f4e487b7100000000000000000000000000000000000000000000000000000000600052602160045260246000fd5b7f50726f6475637420726563616c6c656400000000000000000000000000000000600082015250565b600061271f60108361225c565b915061272a826126e9565b602082019050919050565b6000602082019050818103600083015261274e81612712565b9050919050565b7f50726f6475637420666c61676765640000000000000000000000000000000000600082015250565b600061278b600f8361225c565b915061279682612755565b602082019050919050565b600060208201905081810360008301526127ba8161277e565b9050919050565b7f416c726561647920696e207472616e7369740000000000000000000000000000600082015250565b60006127f760128361225c565b9150612802826127c1565b602082019050919050565b60006020820190508181036000830152612826816127ea565b9050919050565b6000602082019050612842600083018461201b565b92915050565b60008151905061285781611db7565b92915050565b60006020828403121561287357612872611da8565b5b600061288184828501612848565b91505092915050565b7f53656e64657220686173206e6f20726f6c650000000000000000000000000000600082015250565b60006128c060128361225c565b91506128cb8261288a565b602082019050919050565b600060208201905081810360008301526128ef816128b3565b9050919050565b7f526563656976657220686173206e6f20726f6c65000000000000000000000000600082015250565b600061292c60148361225c565b9150612937826128f6565b602082019050919050565b6000602082019050818103600083015261295b8161291f565b9050919050565b7f53656e6465722063616e6e6f7420696e69746961746500000000000000000000600082015250565b600061299860168361225c565b91506129a382612962565b602082019050919050565b600060208201905081810360008301526129c78161298b565b9050919050565b7f52656365697665722063616e6e6f742072656365697665000000000000000000600082015250565b6000612a0460178361225c565b9150612a0f826129ce565b602082019050919050565b60006020820190508181036000830152612a33816129f7565b9050919050565b6000604082019050612a4f600083018561200c565b612a5c602083018461200c565b9392505050565b6000606082019050612a78600083018661200c565b612a856020830185612172565b612a92604083018461200c565b949350505050565b7f496e76616c696420726f75746500000000000000000000000000000000000000600082015250565b6000612ad0600d8361225c565b9150612adb82612a9a565b602082019050919050565b60006020820190508181036000830152612aff81612ac3565b9050919050565b6000606082019050612b1b600083018661200c565b612b28602083018561200c565b612b356040830184611e1a565b949350505050565b7f496e76616c6964207265636569766572206c6f636174696f6e00000000000000600082015250565b6000612b7360198361225c565b9150612b7e82612b3d565b602082019050919050565b60006020820190508181036000830152612ba281612b66565b9050919050565b7f4e6f2070656e64696e67207472616e7366657200000000000000000000000000600082015250565b6000612bdf60138361225c565b9150612bea82612ba9565b602082019050919050565b60006020820190508181036000830152612c0e81612bd2565b9050919050565b7f4e6f742072656365697665720000000000000000000000000000000000000000600082015250565b6000612c4b600c8361225c565b9150612c5682612c15565b602082019050919050565b60006020820190508181036000830152612c7a81612c3e565b9050919050565b7f4e6f7420696e207472616e736974000000000000000000000000000000000000600082015250565b6000612cb7600e8361225c565b9150612cc282612c81565b602082019050919050565b60006020820190508181036000830152612ce681612caa565b9050919050565b7f4c6f636174696f6e206d69736d61746368000000000000000000000000000000600082015250565b6000612d2360118361225c565b9150612d2e82612ced565b602082019050919050565b60006020820190508181036000830152612d5281612d16565b9050919050565b6000604082019050612d6e600083018561200c565b612d7b602083018461201b565b9392505050565b7f4e487b7100000000000000000000000000000000000000000000000000000000600052601160045260246000fd5b6000612dbc82611e10565b9150612dc783611e10565b9250828203905081811115612ddf57612dde612d82565b5b92915050565b6000608082019050612dfa600083018761200c565b612e07602083018661200c565b612e146040830185611e1a565b612e216060830184611e1a565b95945050505050565b7f446f75626c65207363616e206465746563746564000000000000000000000000600082015250565b6000612e6060148361225c565b9150612e6b82612e2a565b602082019050919050565b60006020820190508181036000830152612e8f81612e53565b905091905056fea26469706673582212209a846759a1198fc4bb06f68a555d621d53fae1e437fa8823a4ded7eeda7781c464736f6c634300081c0033",
  "linkReferences": {},
  "deployedLinkReferences": {}
}