{
  "_format": "hh-sol-artifact-1",
  "contractName": "TransferLedger",
  "sourceName": "contracts/TransferLedger.sol",
  "abi": [
    {
      "inputs": [
        {
          "internalType": "address",
          "name": "productRegistryAddress",
          "type": "address"
        },
        {
          "internalType": "address",
          "name": "accessControlAddress",
          "type": "address"
        }
      ],
      "stateMutability": "nonpayable",
      "type": "constructor"
    },
    {
      "anonymous": false,
      "inputs": [
        {
          "indexed": true,
          "internalType": "bytes32",
          "name": "serialID",
          "type": "bytes32"
        },
        {
          "indexed": false,
          "internalType": "bytes32",
          "name": "previousLocationHash",
          "type": "bytes32"
        },
        {
          "indexed": false,
          "internalType": "bytes32",
          "name": "newLocationHash",
          "type": "bytes32"
        },
        {
          "indexed": false,
          "internalType": "uint256",
          "name": "previousTimestamp",
          "type": "uint256"
        },
        {
          "indexed": false,
          "internalType": "uint256",
          "name": "newTimestamp",
          "type": "uint256"
        }
      ],
      "name": "DoubleScanDetected",
      "type": "event"
    },
    {
      "anonymous": false,
      "inputs": [
        {
          "indexed": true,
          "internalType": "bytes32",
          "name": "serialID",
          "type": "bytes32"
        },
        {
          "indexed": true,
          "internalType": "address",
          "name": "sender",
          "type": "address"
        },
        {
          "indexed": true,
          "internalType": "address",
          "name": "receiver",
          "type": "address"
        },
        {
          "indexed": false,
          "internalType": "uint256",
          "name": "confirmedAt",
          "type": "uint256"
        }
      ],
      "name": "TransferConfirmed",
      "type": "event"
    },
    {
      "anonymous": false,
      "inputs": [
        {
          "indexed": true,
          "internalType": "bytes32",
          "name": "serialID",
          "type": "bytes32"
        },
        {
          "indexed": true,
          "internalType": "address",
          "name": "sender",
          "type": "address"
        },
        {
          "indexed": true,
          "internalType": "address",
          "name": "receiver",
          "type": "address"
        },
        {
          "indexed": false,
          "internalType": "bytes32",
          "name": "reason",
          "type": "bytes32"
        }
      ],
      "name": "TransferRejected",
      "type": "event"
    },
    {
      "anonymous": false,
      "inputs": [
        {
          "indexed": true,
          "internalType": "bytes32",
          "name": "serialID",
          "type": "bytes32"
        },
        {
          "indexed": true,
          "internalType": "address",
          "name": "sender",
          "type": "address"
        },
        {
          "indexed": true,
          "internalType": "address",
          "name": "receiver",
          "type": "address"
        },
        {
          "indexed": false,
          "internalType": "bytes32",
          "name": "fromLocationHash",
          "type": "bytes32"
        },
        {
          "indexed": false,
          "internalType": "bytes32",
          "name": "toLocationHash",
          "type": "bytes32"
        },
        {
          "indexed": false,
          "internalType": "uint256",
          "name": "requestedAt",
          "type": "uint256"
        }
      ],
      "name": "TransferRequested",
      "type": "event"
    },
    {
      "inputs": [],
      "name": "DOUBLE_SCAN_WINDOW",
      "outputs": [
        {
          "internalType": "uint256",
          "name": "",
          "type": "uint256"
        }
      ],
      "stateMutability": "view",
      "type": "function"
    },
    {
      "inputs": [],
      "name": "REASON_DOUBLE_SCAN",
      "outputs": [
        {
          "internalType": "bytes32",
          "name": "",
          "type": "bytes32"
        }
      ],
      "stateMutability": "view",
      "type": "function"
    },
    {
      "inputs": [],
      "name": "REASON_INVALID_ROUTE",
      "outputs": [
        {
          "internalType": "bytes32",
          "name": "",
          "type": "bytes32"
        }
      ],
      "stateMutability": "view",
      "type": "function"
    },
    {
      "inputs": [],
      "name": "RISK_HIGH",
      "outputs": [
        {
          "internalType": "uint8",
          "name": "",
          "type": "uint8"
        }
      ],
      "stateMutability": "view",
      "type": "function"
    },
    {
      "inputs": [],
      "name": "accessControl",
      "outputs": [
        {
          "internalType": "contract ISupplyChainAccessControl",
          "name": "",
          "type": "address"
        }
      ],
      "stateMutability": "view",
      "type": "function"
    },
    {
      "inputs": [
        {
          "internalType": "bytes32",
          "name": "serialID",
          "type": "bytes32"
        },
        {
          "internalType": "bytes32",
          "name": "receiverLocationHash",
          "type": "bytes32"
        }
      ],
      "name": "confirmTransfer",
      "outputs": [],
      "stateMutability": "nonpayable",
      "type": "function"
    },
    {
      "inputs": [
        {
          "internalType": "bytes32",
          "name": "serialID",
          "type": "bytes32"
        },
        {
          "internalType": "address",
          "name": "receiver",
          "type": "address"
        },
        {
          "internalType": "bytes32",
          "name": "fromLocationHash",
          "type": "bytes32"
        },
        {
          "internalType": "bytes32",
          "name": "toLocationHash",
          "type": "bytes32"
        }
      ],
      "name": "createTransferRequest",
      "outputs": [],
      "stateMutability": "nonpayable",
      "type": "function"
    },
    {
      "inputs": [
        {
          "internalType": "bytes32",
          "name": "serialID",
          "type": "bytes32"
        }
      ],
      "name": "getTransferHistory",
      "outputs": [
        {
          "components": [
            {
              "internalType": "bytes32",
              "name": "serialID",
              "type": "bytes32"
            },
            {
              "internalType": "address",
              "name": "from",
              "type": "address"
            },
            {
              "internalType": "address",
              "name": "to",
              "type": "address"
            },
            {
              "internalType": "bytes32",
              "name": "fromRole",
              "type": "bytes32"
            },
            {
              "internalType": "bytes32",
              "name": "toRole",
              "type": "bytes32"
            },
            {
              "internalType": "bytes32",
              "name": "fromLocationHash",
              "type": "bytes32"
            },
            {
              "internalType": "bytes32",
              "name": "toLocationHash",
              "type": "bytes32"
            },
            {
              "internalType": "uint256",
              "name": "requestedAt",
              "type": "uint256"
            },
            {
              "internalType": "uint256",
              "name": "confirmedAt",
              "type": "uint256"
            }
          ],
          "internalType": "struct TransferLedger.TransferRecord[]",
          "name": "",
          "type": "tuple[]"
        }
      ],
      "stateMutability": "view",
      "type": "function"
    },
    {
      "inputs": [
        {
          "internalType": "bytes32",
          "name": "serialID",
          "type": "bytes32"
        }
      ],
      "name": "getTransferHistoryLength",
      "outputs": [
        {
          "internalType": "uint256",
          "name": "",
          "type": "uint256"
        }
      ],
      "stateMutability": "view",
      "type": "function"
    },
    {
      "inputs": [
        {
          "internalType": "bytes32",
          "name": "",
          "type": "bytes32"
        }
      ],
      "name": "lastScans",
      "outputs": [
        {
          "internalType": "uint256",
          "name": "timestamp",
          "type": "uint256"
        },
        {
          "internalType": "bytes32",
          "name": "locationHash",
          "type": "bytes32"
        }
      ],
      "stateMutability": "view",
      "type": "function"
    },
    {
      "inputs": [
        {
          "internalType": "bytes32",
          "name": "",
          "type": "bytes32"
        }
      ],
      "name": "pendingTransfers",
      "outputs": [
        {
          "internalType": "bytes32",
          "name": "serialID",
          "type": "bytes32"
        },
        {
          "internalType": "address",
          "name": "sender",
          "type": "address"
        },
        {
          "internalType": "address",
          "name": "receiver",
          "type": "address"
        },
        {
          "internalType": "bytes32",
          "name": "senderRole",
          "type": "bytes32"
        },
        {
          "internalType": "bytes32",
          "name": "receiverRole",
          "type": "bytes32"
        },
        {
          "internalType": "bytes32",
          "name": "fromLocationHash",
          "type": "bytes32"
        },
        {
          "internalType": "bytes32",
          "name": "toLocationHash",
          "type": "bytes32"
        },
        {
          "internalType": "uint256",
          "name": "requestedAt",
          "type": "uint256"
        },
        {
          "internalType": "bool",
          "name": "exists",
          "type": "bool"
        }
      ],
      "stateMutability": "view",
      "type": "function"
    },
    {
      "inputs": [],
      "name": "productRegistry",
      "outputs": [
        {
          "internalType": "contract IProductRegistry",
          "name": "",
          "type": "address"
        }
      ],
      "stateMutability": "view",
      "type": "function"
    },
    {
      "inputs": [
        {
          "internalType": "bytes32",
          "name": "serialID",
          "type": "bytes32"
        },
        {
          "internalType": "bytes32",
          "name": "reason",
          "type": "bytes32"
        }
      ],
      "name": "rejectTransfer",
      "outputs": [],
      "stateMutability": "nonpayable",
      "type": "function"
    }
  ],
  "bytecode": "0x60803461012057601f61193b38819003918201601f19168301916001600160401b0383118484101761012557808492604094855283398101031261012057610052602061004b8361013b565b920161013b565b6001600160a01b039091169081156100e8576001600160a01b03169081156100a35760018060a01b0319600054161760005560018060a01b031960015416176001556040516117eb90816101508239f35b60405162461bcd60e51b815260206004820152601660248201527f496e76616c69642061636365737320636f6e74726f6c000000000000000000006044820152606490fd5b60405162461bcd60e51b815260206004820152601060248201526f496e76616c696420726567697374727960801b6044820152606490fd5b600080fd5b634e487b7160e01b600052604160045260246000fd5b51906001600160a01b03821682036101205756fe608080604052600436101561001357600080fd5b600090813560e01c90816313007d55146115a257508063304b53171461139c5780633f126c90146113725780636fb3207d146111d65780637a581176146111b95780638d4ab2c0146111215780639465bc23146106525780639aa90ca7146106365780639b47009d14610183578063e064ac5614610148578063f9eb543f1461010d578063fb5d692c146100d95763fff218c3146100b057600080fd5b346100d657806003193601126100d657546040516001600160a01b039091168152602090f35b80fd5b50346100d65760203660031901126100d6576040809160043581526004602052206001815491015482519182526020820152f35b50346100d657806003193601126100d65760206040517ff48c35c99ac61eb8b4112c9270c54632b262cc9829cbf2fda9a0ea2dfb325a9c8152f35b50346100d657806003193601126100d65760206040517f6e5f9490f5df7c681a41a4ccb579c3d17bbed2e72ae620260be50bb7c9cccddd8152f35b50346100d657610192366115c7565b919061019f8115156115dd565b82156105f157808252600260205260408220604051936101be8561161a565b8154855260018060a01b03600183015416906020860191825260018060a01b0360028401541692604087019384526003810154906060880191825260048101546080890190815260058201549860a08101998a5261024561010060068501549260c0810193845260ff600860078801549760e084019889520154161515918291015261168b565b61025960018060a01b0388511633146116cd565b88546040516302ef145760e51b8152600481018a90526001600160a01b039091169190602081602481865afa9081156105e6578b916105b7575b5060068110156105a357806102ad60056002931415611738565b6102ba6004821415611777565b0361056d5751850361053457803b156105305788809160446040518094819363e411013b60e01b83528d60048401523360248401525af180156105255790899161050c575b5087905260036020526040882098899260018060a01b038751169160018060a01b038951169551935190519151936040519661033a8861161a565b8b88526020880194855260408801908152606088019182526080880192835260a0880193845260c088019489865260e0890196875261010089019742895254680100000000000000008110156104f8578f600182018091558110156104e4578e9f60089a9b9c9d9e9f80600992602092522091020199518a5560018060a01b0390511660018a019060018060a01b03166bffffffffffffffffffffffff60a01b82541617905560018060a01b03905116600289019060018060a01b03166bffffffffffffffffffffffff60a01b8254161790555160038801555160048701555160058601555160068501555160078401555191015583855260026020526104746040862060086000918281558260018201558260028201558260038201558260048201558260058201558260068201558260078201550155565b6001604051916104838361164d565b42835260208301908152858752600460205260408720925183555191015560018060a01b039051169060018060a01b03905116917f2812a5d80ae0ea7b9f3108a1a67083f47ae2b23ce91104842daa5b2d719632d66020604051428152a480f35b634e487b7160e01b8f52603260045260248ffd5b634e487b7160e01b8f52604160045260248ffd5b8161051691611669565b6105215787386102ff565b8780fd5b6040513d8b823e3d90fd5b8880fd5b60405162461bcd60e51b8152602060048201526011602482015270098dec6c2e8d2dedc40dad2e6dac2e8c6d607b1b6044820152606490fd5b60405162461bcd60e51b815260206004820152600e60248201526d139bdd081a5b881d1c985b9cda5d60921b6044820152606490fd5b634e487b7160e01b8b52602160045260248bfd5b6105d9915060203d6020116105df575b6105d18183611669565b810190611720565b38610293565b503d6105c7565b6040513d8d823e3d90fd5b60405162461bcd60e51b815260206004820152601960248201527f496e76616c6964207265636569766572206c6f636174696f6e000000000000006044820152606490fd5b50346100d657806003193601126100d657602060405160038152f35b50346100d65760803660031901126100d6576024356001600160a01b038116906004359082900361111d576044359060643561068f8215156115dd565b83156110e5573384146110a05782156110635780156110285784546040516326a3908b60e11b8152600481018490526001600160a01b0390911690602081602481855afa908115610f01578791611009575b5015610fd057828652600260205260ff600860408820015416610f8b57604051630eba863360e21b815260048101849052602081602481855afa908115610f01578791610f45575b50336001600160a01b0390911603610f0c576040516302ef145760e51b815260048101849052602081602481855afa908115610f01578791610ee2575b506006811015610ece578061078060056002931415611738565b61078d6004821415611777565b14610e945760015460405163d19c719160e01b81523360048201526001600160a01b0390911691602082602481865afa918215610e89578892610e55575b5060405163d19c719160e01b81526004810188905292602084602481845afa938415610525578994610e1c575b508215610de2578315610da65760405163b198e1ed60e01b815260048101849052602081602481855afa908115610d3e578a91610d87575b5015610d4957604051634188327f60e01b815260048101859052602081602481855afa908115610d3e578a91610d1f575b5015610cda57602060449160405192838092637e0c8d1560e11b82528760048301528860248301525afa908115610525578991610cab575b5015610bb15750838752600460205260408720604051906108b98261164d565b6001815491828452015490602083019182528015159081610b88575b5080610b7d575b610a7b5750508691600891604051916108f48361161a565b86835233602080850191825260408086018c8152606087019586526080870194855260a087018c815260c088018b81524260e08a0190815260016101008b018181528f8e5260029788905295909c2099518a5595519a890180546001600160a01b039c8d166001600160a01b03199182161790915592519489018054958c1695909316949094179091559451600387015592516004860155925160058501559151600684015590516007830155519101805460ff191691151560ff169190911790558554869116803b15610a77578180916024604051809481936338814ac960e01b83528960048401525af18015610a6c57610a53575b50506040516109f98161164d565b428152600160208201858152848852600460205260408820925183555191015560405192835260208301524260408301527ffbc9c71dbdec05b50cfcb5d67a123b3fa35ce8b0f9890b3465449c364f623d7960603393a480f35b81610a5d91611669565b610a685784386109eb565b8480fd5b6040513d84823e3d90fd5b5080fd5b885486929188918b906001600160a01b0316803b15610a7757818091606460405180948193630e0f617f60e11b83528b6004840152600360248401527f6e5f9490f5df7c681a41a4ccb579c3d17bbed2e72ae620260be50bb7c9cccddd60448401525af18015610a6c57610b68575b857f2f5f4148f9fa8cfe6fcc790136bba805d2a9a56d51ab5350e6df31101d959f7260808787875191519060405192835260208301526040820152426060820152a260405162461bcd60e51b8152602060048201526014602482015273111bdd589b19481cd8d85b8819195d1958dd195960621b6044820152606490fd5b610b73828092611669565b6100d65780610aea565b5086815114156108dc565b90504203428111610b9d5761070811386108d5565b634e487b7160e01b8a52601160045260248afd5b84888289933b15610a7757818091606460405180948193630e0f617f60e11b8352886004840152600360248401527ff48c35c99ac61eb8b4112c9270c54632b262cc9829cbf2fda9a0ea2dfb325a9c60448401525af18015610a6c57610c96575b5050604051907ff48c35c99ac61eb8b4112c9270c54632b262cc9829cbf2fda9a0ea2dfb325a9c82527f61c270a0af6c0959c90c4f1ec8c60b6eb58be8474ca87e16d497756029160f8f60203393a460405162461bcd60e51b815260206004820152600d60248201526c496e76616c696420726f75746560981b6044820152606490fd5b610ca1828092611669565b6100d65780610c12565b610ccd915060203d602011610cd3575b610cc58183611669565b810190611708565b38610899565b503d610cbb565b60405162461bcd60e51b815260206004820152601760248201527f52656365697665722063616e6e6f7420726563656976650000000000000000006044820152606490fd5b610d38915060203d602011610cd357610cc58183611669565b38610861565b6040513d8c823e3d90fd5b60405162461bcd60e51b815260206004820152601660248201527553656e6465722063616e6e6f7420696e69746961746560501b6044820152606490fd5b610da0915060203d602011610cd357610cc58183611669565b38610830565b60405162461bcd60e51b8152602060048201526014602482015273526563656976657220686173206e6f20726f6c6560601b6044820152606490fd5b60405162461bcd60e51b815260206004820152601260248201527153656e64657220686173206e6f20726f6c6560701b6044820152606490fd5b9093506020813d602011610e4d575b81610e3860209383611669565b81010312610e48575192386107f8565b600080fd5b3d9150610e2b565b9091506020813d602011610e81575b81610e7160209383611669565b81010312610e48575190386107cb565b3d9150610e64565b6040513d8a823e3d90fd5b60405162461bcd60e51b8152602060048201526012602482015271105b1c9958591e481a5b881d1c985b9cda5d60721b6044820152606490fd5b634e487b7160e01b87526021600452602487fd5b610efb915060203d6020116105df576105d18183611669565b38610766565b6040513d89823e3d90fd5b60405162461bcd60e51b81526020600482015260116024820152702737ba1031bab93932b73a1037bbb732b960791b6044820152606490fd5b90506020813d602011610f83575b81610f6060209383611669565b81010312610f7f57516001600160a01b0381168103610f7f5738610729565b8680fd5b3d9150610f53565b60405162461bcd60e51b815260206004820152601760248201527f50656e64696e67207472616e73666572206578697374730000000000000000006044820152606490fd5b60405162461bcd60e51b8152602060048201526011602482015270141c9bd91d58dd081b9bdd08199bdd5b99607a1b6044820152606490fd5b611022915060203d602011610cd357610cc58183611669565b386106e1565b60405162461bcd60e51b815260206004820152601360248201527224b73b30b634b2103a37903637b1b0ba34b7b760691b6044820152606490fd5b60405162461bcd60e51b815260206004820152601560248201527424b73b30b634b210333937b6903637b1b0ba34b7b760591b6044820152606490fd5b60405162461bcd60e51b815260206004820152601960248201527f52656365697665722063616e6e6f742062652073656e646572000000000000006044820152606490fd5b60405162461bcd60e51b815260206004820152601060248201526f24b73b30b634b2103932b1b2b4bb32b960811b6044820152606490fd5b8280fd5b50346100d65760203660031901126100d657604061012091600435815260026020522080549060018060a01b036001820154169060018060a01b036002820154166003820154600483015460058401549160068501549360ff600860078801549701541696604051988952602089015260408801526060870152608086015260a085015260c084015260e08301521515610100820152f35b50346100d657806003193601126100d65760206040516107088152f35b50346100d65760203660031901126100d6576004358152600360205260408120805467ffffffffffffffff811161135e576040519061121b60208260051b0183611669565b80825260208201809385526020852085915b8383106112dc57868587604051928392602084019060208552518091526040840192915b81811061125f575050500390f35b919350916020610120600192610100875180518352858060a01b03858201511685840152858060a01b036040820151166040840152606081015160608401526080810151608084015260a081015160a084015260c081015160c084015260e081015160e08401520151610100820152019401910191849392611251565b600960206001926040516112ef8161161a565b85548152848060a01b03858701541683820152848060a01b0360028701541660408201526003860154606082015260048601546080820152600586015460a0820152600686015460c0820152600786015460e0820152600886015461010082015281520192019201919061122d565b634e487b7160e01b83526041600452602483fd5b50346100d65760203660031901126100d65760406020916004358152600383522054604051908152f35b50346100d6576113ab366115c7565b906113b78115156115dd565b811561156c57808352600260205260408320906040516113d68161161a565b8254815260018301546001600160a01b03908116602083019081526002850154909116604083019081526003850154606084015260048501546080840152600585015460a0840152600685015460c0840152600785015460e084015260089094015460ff161515610100909201829052906114509061168b565b61146460018060a01b0384511633146116cd565b5191518185526002602052604085206001600160a01b03918216949390911692906114bf9060086000918281558260018201558260028201558260038201558260048201558260058201558260068201558260078201550155565b845485906001600160a01b0316803b15610a7757819060246040518094819363bd77980960e01b83528860048401525af180156115615761152a575b5060207f61c270a0af6c0959c90c4f1ec8c60b6eb58be8474ca87e16d497756029160f8f91604051908152a480f35b856115597f61c270a0af6c0959c90c4f1ec8c60b6eb58be8474ca87e16d497756029160f8f9397602093611669565b9591506114fb565b6040513d88823e3d90fd5b60405162461bcd60e51b815260206004820152600e60248201526d24b73b30b634b2103932b0b9b7b760911b6044820152606490fd5b905034610a775781600319360112610a77576001546001600160a01b03168152602090f35b6040906003190112610e48576004359060243590565b156115e457565b60405162461bcd60e51b815260206004820152600e60248201526d125b9d985b1a59081cd95c9a585b60921b6044820152606490fd5b610120810190811067ffffffffffffffff82111761163757604052565b634e487b7160e01b600052604160045260246000fd5b6040810190811067ffffffffffffffff82111761163757604052565b90601f8019910116810190811067ffffffffffffffff82111761163757604052565b1561169257565b60405162461bcd60e51b81526020600482015260136024820152722737903832b73234b733903a3930b739b332b960691b6044820152606490fd5b156116d457565b60405162461bcd60e51b815260206004820152600c60248201526b2737ba103932b1b2b4bb32b960a11b6044820152606490fd5b90816020910312610e4857518015158103610e485790565b90816020910312610e4857516006811015610e485790565b1561173f57565b60405162461bcd60e51b815260206004820152601060248201526f141c9bd91d58dd081c9958d85b1b195960821b6044820152606490fd5b1561177e57565b60405162461bcd60e51b815260206004820152600f60248201526e141c9bd91d58dd08199b1859d9d959608a1b6044820152606490fdfea2646970667358221220bd4f23eef4130d0877925b2f15e886571c610ffbd6e23f9ef1551012b9b4641664736f6c634300081c0033",
  "linkReferences": {},
  "deployedLinkReferences": {}
}